:072DA10025627520000A0005
:10190D006100000200000000000000000000000067
:10191D0000000000000000000000000000000000BA
:10192D0000000000000000000000000000000000AA
:10193D00000000000000000000000000000000009A
:10194D00000000000000000000000000000000008A
:10195D00000000000000000000000000000000007A
:10196D00000000000000000000000000000000006A
:10197D00000000000000000000000000000000005A
:10198D00000000000000000000000000000000004A
:10199D00000000000000000000000000000000003A
:1019AD00000000000000000000000000000000002A
:1019BD00000000000000000000000000000000001A
:1019CD00000000000000000000000000000000000A
:1019DD0000000000000000000000000000000000FA
:1019ED0000000000000000000000000000000000EA
:1019FD0000000000000000000000000000000000DA
:101A0D000000000061000102000000000000000065
:101A1D0000000000000000000000000000000000B9
:101A2D0000000000000000000000000000000000A9
:101A3D000000000000000000000000000000000099
:101A4D000000000000000000000000000000000089
:101A5D000000000000000000000000000000000079
:101A6D000000000000000000000000000000000069
:101A7D000000000000000000000000000000000059
:101A8D000000000000000000000000000000000049
:101A9D000000000000000000000000000000000039
:101AAD000000000000000000000000000000000029
:101ABD000000000000000000000000000000000019
:101ACD000000000000000000000000000000000009
:101ADD0000000000000000000000000000000000F9
:101AED0000000000000000000000000000000000E9
:101AFD0000000000000000000000000000000000D9
:0D1B0D000000000000000000420000000089
:10218D001229B7E4900000F0A3F0900000E0FEA348
:10219D00E0FD2402F58274003EF583EDF090000120
:1021AD00E004F07006900000E004F0900000E0B450
:1021BD0001D8A3E0B400D37B017A00790290039B90
:1021CD0074FFF0E4FF121DD07B017A0179029003B8
:1021DD009B74FFF0E4FF122441E4900000F0A3F0A3
:1021ED00900000E0FEA3E0FFC3EE648094815044B4
:1021FD007BFF7A2D79A174022FF58274013EF58350
:10220D00E090039AF01214F5900000E0FEA3E0FFB9
:10221D007C007D08121245ED4C70097BFF7A2D79FB
:10222D00A61214F5900001E004F070B4900000E0E7
:0F223D0004F080AC7BFF7A2D79A61214F580FE99
:102C9B0054656D702048756D6920546573742100FF
:042CAB002552480066
:1029B70090039A7425F0A37480F0E4A3F07B01FDE3
:1029C700FF121EE7122C59121FDF122B3C7BFF7AD6
:1029D7002C799B90039C7410F0E4FD7F010226D0B4
:101C9E007B0B7D027F011224D37B0C7D027F101201
:101CAE0024D39003A17402F07B3A7D037F2012208F
:101CBE00BF7B0E7D027F6C1224D3122D201229863B
:101CCE009003F8121407E4FFFEFDFC9003F8E0F811
:101CDE00A3E0F9A3E0FAA3E0FB120DA49003A17414
:101CEE00025078F07B2E7D037F4A1220BF9003A115
:101CFE007410F07B2D7D027F2B1220BF9003F8E035
:101D0E00FCA3E0FDA3E0FEA3E0FF120E5BAB07AA6F
:101D1E00069003F37403F0A37410F07D027F31126A
:101D2E00224C7F007E407D1C7C469003F8E0F8A399
:101D3E00E0F9A3E0FAA3E0FB120BFE120E5BE47BCC
:101D4E00107A27F9F81213329003F37403F0A37488
:101D5E0010F07D027F5212224C800AF07B2E7D0302
:101D6E007F401220BF9003F8E0FCA3E0FDA3E0FE4D
:101D7E00A3E0FF120E5BAB07AA069003F37403F009
:101D8E00A37410F07D027F2712224C7F007E407DCF
:101D9E001C7C469003F8E0F8A3E0F9A3E0FAA3E078
:101DAE00FB120BFE120E5BE47B107A27F9F812136E
:101DBE00329003F37404F0A37410F07D027F480296
:021DCE00224CA5
:101B2B009003CA7401F0A37403F0A374FFF0A374C1
:101B3B0001F0A37403F0A374FCF0A37401F0A3747D
:101B4B0003F0A374FEF07B017A0379FD1223079057
:101B5B0003FDE075F00A842430FB9003A17410F0B0
:101B6B007D067F2F1220BF9003FDE075F00A84E500
:101B7B00F02430FB9003A17410F07D067F37122008
:101B8B00BF9003FFE075F00A842430FB9003A1742F
:101B9B0010F07D067F481220BF9003FFE075F00A1E
:101BAB0084E5F02430FB9003A17410F07D067F5088
:101BBB001220BF7B0B7D067F011224D37B0C7D068D
:101BCB007F101224D39003A17402F07B3A7D077F20
:101BDB00201220BF9003A17402F07B2E7D077F4063
:101BEB001220BF7B0E7D067F5C1224D39003FCE09A
:101BFB0075F00A842430FB9003A17410F07D047FF0
:101C0B002F1220BF9003FCE075F00A84E5F024301E
:101C1B00FB9003A17410F07D047F371220BF90035B
:101C2B00FEE075F00A842430FB9003A17410F07D64
:101C3B00047F481220BF9003FEE075F00A84E5F0A4
:101C4B002430FB9003A17410F07D047F501220BF51
:101C5B007B0D7D047F011224D37B0C7D047F10123E
:101C6B0024D39003A17402F07B3A7D057F201220D0
:101C7B00BF9003A17402F07B2E7D057F401220BF25
:101C8B007BFF7A2C79AB90039C7410F07D047F5C06
:031C9B000226D04E
:0A2D460000007F027EDADEFEDFFCF3
:012D50002260
:0A2D510000007F027E62DEFEDFFC60
:012D5B002255
:102C5900D2A37F75DFFEC2A37F147E00122BC0D2E0
:052C6900A37F75DFFEF2
:012C6E002243
:102C6F0020A3FD30A3FD7F3C7E00122BC030A303B9
:062C7F007F01227F00220C
:10000300E4FDFC20A3FD30A3FD122D51EC25E0FC03
:0E00130030A3010C20A3FD0DEDB408E7AF04EF
:0100210022BC
:0B2307009003C7EBF0A3EAF0A3E9F09D
:10231200122C5930A3030223AD30A3FDE4FB1200BB
:102322000374D32BF582E43403F583EFF00BEBB4A3
:1023320005EC9003D4E0FF9003D3E02FFFE433FEDB
:102342009003D5E07C002FFFEC3EFEA3E02FFFECD4
:102352003EFEA3E0B50754ECB506509003D3E0FF70
:102362009003CDE0FBA3E0FAA3E0F9EF1211CC90C9
:1023720003D4E0FF9003D0E0FBA3E0FAA3E0F9EF7F
:102382001211CC9003D5E0FF9003C7E0FBA3E0FA63
:10239200A3E0F9EF1211CC9003D6E0FF9003CAE05C
:0B23A200FBA3E0FAA3E0F9EF1211CC5E
:0123AD00220D
:0A2D5C0000007F0D7ED3DEFEDFFCD9
:012D6600224A
:0C2D3A00D2A2C2A2122D5CD2A2022D5C1B
:102C130090041DEFF0C2A2122DC090041DE024FF0A
:082C230092A2122D67D2A22239
:0529E700900413EFF065
:1029EC00E4A3F0900414E0FFC39408501DA80774EE
:1029FC0001088002C333D8FCFF900413E05FFF1280
:0A2A0C002C13900414E004F080D9AC
:012A1600229D
:102BDE00C2A2122DBBD2A2122DBBA2A2E43390042C
:0A2BEE001EF0122D6790041EE0FF98
:012BF80022BA
:1028E500E4900416F0900415F0122BDEEF601990B9
:1028F5000416E0FF900415E0FEF87401088002C399
:1029050033D8FC4F900416F0900415E004F0E0C3B2
:09291500940840D5900416E0FF7F
:01291E002296
:0D2D2000122D3A7FCC1229E77F440229E7EB
:10298600122D3A7FCC1229E77FBE1229E71228E5DD
:1029960090041FEFF01228E5EFFE90041FE0FDED16
:1029A600FFAC06EC120E22E4FBFA79807841020DA8
:0129B6000719
:100026000000000000000000002F00000000070094
:10003600070000147F147F1400242A7F2A1200620E
:1000460064081323003649552250000005030000BA
:1000560000001C224100000041221C000014083E42
:1000660008140008083E0808000000A06000000808
:10007600080808080000606000000020100804025C
:10008600003E5149453E0000427F4000004261511A
:100096004946002141454B31001814127F100027B4
:1000A60045454539003C4A49493000017109050377
:1000B60000364949493600064949291E00003636A8
:1000C600000000005636000000081422410000140B
:1000D60014141414000041221408000201510906E8
:1000E60000324959513E007C1211127C007F494969
:1000F6004936003E41414122007F4141221C007F9A
:1001060049494941007F09090901003E4149497AA7
:10011600007F0808087F0000417F41000020404121
:100126003F01007F08142241007F40404040007F8D
:10013600020C027F007F0408107F003E4141413ED1
:10014600007F09090906003E4151215E007F091919
:1001560029460046494949310001017F0101003F16
:100166004040403F001F2040201F003F4038403F96
:1001760000631408146300070870080700615149FA
:10018600454300007F41410000552A552A5500008D
:1001960041417F000004020102040040404040400B
:1001A600000001020400002054545478007F4844A3
:1001B600443800384444442000384444487F0038DA
:1001C6005454541800087E0901020018A4A4A47C03
:1001D600007F080404780000447D400000408084CD
:1001E6007D00007F102844000000417F4000007C15
:1001F60004180478007C0804047800384444443821
:1002060000FC242424180018242418FC007C08046C
:10021600040800485454542000043F444020003C45
:100226004040207C001C2040201C003C4030403CCC
:10023600004428102844001CA0A0A07C004464545C
:100246004C441414141414140000000000000000A0
:100256000000000000000000000000F800000000A0
:10026600000000333000000000100C06100C0600E1
:10027600000000000000000040C07840C078400048
:10028600043F04043F040400007088FC08300000AA
:10029600001820FF211E0000F008F000E018000002
:1002A60000211C031E211E0000F0088870000000BB
:1002B6001E2123241927211010160E00000000000D
:1002C6000000000000000000000000E0180402002A
:1002D600000000071820400000020418E00000009B
:1002E6000040201807000000404080F08040400099
:1002F6000202010F01020200000000F000000000EF
:100306000101011F010101000000000000000000C2
:1003160080B0700000000000000000000000000037
:1003260000010101010101010000000000000000C0
:10033600003030000000000000000000806018045B
:10034600006018060100000000E010080810E00038
:10035600000F102020100F00001010F80000000001
:100366000020203F20200000007008080888700048
:1003760000302824222130000030088888483000C8
:100386000018202020110E000000C02010F80000E8
:1003960000070424243F240000F808888808080081
:1003A6000019212020110E0000E010888818000096
:1003B600000F112020110E0000380808C838080068
:1003C6000000003F000000000070880808887000E8
:1003D600001C222121221C0000E010080810E00069
:1003E6000000312222110F00000000C0C0000000F2
:1003F6000000003030000000000000800000000017
:10040600000080600000000000008040201008000E
:1004160000010204081020004040404040404000D7
:1004260004040404040404000008102040800000B2
:100436000020100804020100007048080808F000B7
:100446000000003036010000C030C828E810E00087
:100456000718272423140B000000C038E000000012
:10046600203C23020227382008F88888887000007C
:10047600203F202020110E00C03008080808380050
:10048600071820202010080008F808080810E000C7
:10049600203F202020100F0008F88888E808100068
:1004A600203F20202320180008F88888E80810003C
:1004B600203F200003000000C03008080838000074
:1004C60007182020221E020008F808000008F80875
:1004D600203F210101213F20000808F808080000FC
:1004E6000020203F2020000000000808F80808002F
:1004F600C08080807F00000008F888C028180800A7
:10050600203F20012638200008F8080000000000DF
:10051600203F20202020300008F8F800F8F80800D6
:10052600203F003F003F200008F830C00008F808D0
:10053600203F200007183F00E01008080810E000E0
:100546000F10202020100F0008F808080808F000F7
:10055600203F210101010000E01008080810E0001A
:100566000F18242438504F0008F8888888887000AF
:10057600203F2000030C302000708808080838004F
:100586000038202121221C00180808F80808180045
:100596000000203F2000000008F808000008F808C6
:1005A600001F202020201F000878880000C8380877
:1005B600000007380E010000F80800F80008F800EF
:1005C600033C0700073C0300081868808068180889
:1005D60020302C03032C30200838C800C838080007
:1005E6000000203F2000000010080808C838080056
:1005F6002038262120201800000000FE02020200FA
:100606000000007F40404000000C30C000000000A9
:10061600000000010638C00000020202FE000000D1
:10062600004040407F000000000004020202040077
:1006360000000000000000000000000000000000B4
:10064600808080808080808000020204000000009C
:100656000000000000000000000080808080000094
:100666000019242222223F2008F800808000000082
:10067600003F112020110E00000000808080000045
:10068600000E112020201100000000808088F80054
:10069600000E112020103F20000080808080000086
:1006A600001F222222221300008080F088888818EA
:1006B6000020203F202000000000808080808000F5
:1006C600006B94949493600008F80080808000008A
:1006D600203F210000203F20008098980000000065
:1006E6000020203F20200000000000809898000095
:1006F60000C08080807F000008F8000080808000B5
:10070600203F24022D302000000808F800000000D9
:100716000020203F20200000808080808080800094
:10072600203F20003F20003F808000808080000026
:10073600203F210000203F200000808080800000B4
:10074600001F202020201F008080008080000000E5
:1007560080FFA12020110E00000000808080800014
:10076600000E112020A0FF80808080008080800005
:1007760020203F2120000100000080808080800032
:100786000033242424241900008080E080800000A7
:100796000000001F202000008080000000808000F4
:1007A600001F202020103F20808080000080808055
:1007B60000010E30080601008080008000808080E5
:1007C6000F300C030C300F0000808000808080000A
:1007D6000020312E0E312000808080000080808035
:1007E60080818E70180601000080808080808000E5
:1007F6000021302C2221300000000000807C020203
:1008060000000000003F404000000000FF00000024
:1008160000000000FF0000000002027C80000000D3
:100826000040403F000000000006010102020404EF
:100836000000000000000000405050FEFEF8FCD40E
:10084600FC7C44FCFC00203F00000000000000008F
:1008560000000000000000000F1F3F31212F2F2550
:10086600252F3F10000000000000000000000000DF
:1008760000000000000000000414D454545454DF57
:1008860054545454D4140400000000000000000026
:10089600000000000000000080601F020202020348
:1008A6000202020203000000000000000000000037
:1008B60000000000000000001060020CC000F88874
:1008C6008888FF8888A81800000000000000000043
:1008D600000000000000000004047C0380601F800C
:1008E600432C102846818000000000000000000014
:1008F60000000000000000001060028C00FE02F202
:1009060002FE00F800FF00000000000000000000EA
:10091600000000000000000004047E018047300F44
:1009260010270047807F0000000000000000000044
:100936000000000000000000003E22E2223E00FE11
:100946002222222222E20200000000000000000013
:100956000000000000000000203F201F1111007F52
:1009660044444444444740000000000000000000A6
:100976000000000000000000040404F484D4A5A6CE
:10098600A4D484F404040400000000000000000065
:10099600000000000000000000FE0202123A1613DA
:1009A600121A3242827E00000000000000000000A1
:1009B6000000000000000000002018C74444444422
:1009C600FC44444444040000000000000000000011
:1009D60000000000000000000404040704040404EE
:1009E600FF040404040404000000000000000000EA
:1009F6000000000000000000000000FE222222226B
:100A060022222222FE00000000000000000000005A
:100A160000000000000000008040300F02020202C9
:100A2600020242827F000000000000000000000079
:100A36000000000000000000000000FE82828282AA
:100A4600828282FE0000000000000000000000001C
:100A56000000000000000000000000FF4040404091
:100A6600404040FF000000000000000000000000C1
:100A7600000000000000000000FC848484FC0010DC
:100A860010101010FF101000000000000000000001
:100A96000000000000000000003F1010103F0000A2
:100AA600010640807F0000000000000000000000FA
:100AB600000000000000000000F8010600F012121D
:100AC60012F2020202FE0000000000000000000018
:100AD600000000000000000000FF0000001F1111D0
:100AE600111F0040807F0000000000000000000091
:100AF60000000000000000001060028C0000FE9262
:100B060092929292FE000000000000000000000099
:100B1600000000000000000004047E01407E424206
:100B26007E427E42427E400000000000000000003F
:100B360000000000000000000000FC242424FC2526
:100B46002624FC24242404000000000000000000E9
:100B5600000000000000000040308F80844C5525C6
:100B66002525554C80808000000000000000000014
:100B760000000000000000001060028C00FE92924F
:100B860092929292FE000000000000000000000019
:100B9600000000000000000004047E014448507F6D
:100BA60040407F5048444000000000000000000024
:100BB6000000000000000000060909E6F80C040227
:100BC60002020202041E00000000000000000000F5
:100BD6000000000000000000000000071F30204059
:100BE60040404040201000000000000000000000CF
:080BF6000000000000000000F7
:102BF900EF4E60157D087C07ED1DAA0470011C4A83
:092C090070F6EF1F70EA1E80E76F
:012C1200229F
:092D8800D2B6D2B7C2B7C2B6221E
:072DA800D2B6C2B7D2B72278
:0B2CE500122AF5122CF0AF04122AF5A1
:052CF000D2B6C2B622BD
:072AEE00AC07122D887F7870
:102AF500C2B6E4FEAD07ED5480B48004D2B78002BF
:0F2B0500C2B7EF25E0FFD2B6C2B60EEEB408E5B8
:012B1400229E
:0E2D0400122AEE122CF0E4FF122CE5022DA88C
:0E2D1200122AEE122CF07F40122CE5022DA8A2
:102A7200E924B0FFE433FEE4FDFC122A8DE4FDFC00
:0B2A8200FFFE122A8D7F10E4FDFCFE19
:102A8D00AB07AA06ED4C6003022D12AF03122D0405
:012A9D002216
:052A4500900417EFF002
:102A4A00E4F9122A72E4900418F0900417E0FF7E69
:102A5A00007D017C00122A8DA3E004F0E0C394807B
:072A6A0040E809E9B408DBB4
:012A71002242
:102B8400D3EF9400EE940040147D657C18ED1D7025
:0D2B9400011CED4C70F7EF1F70E61E80E392
:012BA1002211
:102C8500EF1FAA0670011E4A600BE4FDEDC3947B9D
:052C950050EE0D80F778
:012C9A002217
:08291F0090039EE0FFA3E0FD20
:10292700A907ED24B0FFE433FEE4FDFC122A8DE98C
:1029370054F0C4540F7E004410FFE4FDFC122A8DAE
:0C294700E9540FFF7E00E4FDFC022A8D25
:102C2B007F8D122A89E4FDFC7F14FE122A8DE4FDB0
:072C3B00FC7FAFFE022A8DB1
:102CC300E4FDFC7F8D122A83E4FDFC7FAEFE022A25
:012CD3008D73
:102B3C00E4F9122A72E4900397F07D017C00E4FF23
:102B4C00FE122A8D900397E004F0E0C3948040EAD3
:052B5C0009E9B408DDE9
:012B61002251
:102B1500E4F9122A72E4900420F07D017C007F0123
:102B25007E00122A8D900420E004F0E0C3948040DA
:062B3500E909E9B408DC27
:012B3B002277
:0B20BF0090039FEDF090039EEFF0FDFA
:1020CA00E49003A2F0F9EB24E0F0EDD3947F400A08
:1020DA00E490039EF0A3E02402F09003A1E06410D0
:1020EA00706E12291FE4F99003A2E075F010A4297A
:1020FA00F582E435F0F583E582244EF582E58334F2
:10210A0002F583E493FF7E007D017C00122A8D098B
:10211A00E9B408D390039EE0FFA3E004FD12292747
:10212A00E4F99003A2E075F010A429F582E435F0F1
:10213A00F583E5822456F582E5833402F583E49338
:10214A00FF7E007D017C00122A8D09E9B408D322A2
:10215A0012291FE4F99003A2E075F006A42426F5DB
:10216A0082E5F03400F583E58229F582E43583F5CA
:10217A0083E493FF7E007D017C00122A8D09E9B475
:02218A0006D37A
:01218C002230
:072BA200900421EFF0A905EA
:102BA9007F017E00AD0119ED600C900421E0FD7CF0
:062BB900001211DE80EEA7
:012BBF0022F3
:0E224C009003EFEFF0A3EDF0A3EAF0A3EBF0A8
:10225A00E49003F7F09003F5F09003F3E0FF9003A6
:10226A00F5E0FEC39F4003022306C3EF9E14FD7FE1
:10227A000A122BA29003F1E0FCA3E0FDCFCDCFCE52
:10228A00CCCE1211F07C007D0A1211F09003F6ED0B
:10229A00F0A3E070369003F3E014FF9003F5E0FE3C
:1022AA00C39F5027A3E0701D9003F4E0FCC3138E74
:1022BA00F0A4FF9003EFE02FFFA3E0FD9003A1EC51
:1022CA00F07B20802B9003F77401F09003F4E0FE7A
:1022DA00C313FFA3E0FDEF8DF0A4FF9003EFE02FFF
:1022EA00FFA3E0FD9003F6E02430FB9003A1EEF09B
:0C22FA001220BF9003F5E004F002226304
:0123060022B4
:1026D000900397EFF0A3EDF0A3EBF0A3EAF0A3E9EA
:0126E000F009
:1026E100E490039DF0900399E0FBA3E0FAA3E0F9E5
:1026F10090039DE0F58275830012119FFB602F907E
:102701000397E0FFA3E0FD90039CE09003A1F0128A
:1027110020BF900397E02408F0E0D394784007E4C9
:0E272100F0A3E02402F090039DE004F080B7E6
:01272F002287
:0D24D30090040EEBF090040CEFF0A3EDF080
:1024E000E490040FF0122927E4F990040EE075F04F
:1024F00040A4243EF582E5F03408F583E58229F511
:1025000082E43583F583E493FF7E007D017C001235
:102510002A8D90040FE004F009E9B410CD90040C6A
:10252000E0FFA3E004FD122927E4F990040EE07512
:10253000F040A4245EF582E5F03408F583E58229B5
:10254000F582E43583F583E493FF7E007D017C0012
:0E255000122A8D90040FE004F009E9B410CDBA
:01255E00225A
:0A23AE009003E4EFF09003E6EBF07B
:1023B800E49003EBF0A3F09003E7E0FF5407700804
:1023C800EF131313541F800A9003E7E013131354F9
:1023D8001F049003EEF09003EEEDF09003E7E0FFAA
:1023E8009003EEE0FDC39F504F9003E4E0FF1229F5
:1023F80027E09003EDF09003E6E0FF9003EDE0C3E3
:102408009F502D9003E8E0FBA3E0FAA3E0F9A3E4D2
:1024180075F00112129185F082F58312119FFF7EEB
:10242800007D017C00122A8D9003EDE004F080C647
:082438009003EEE004F080A324
:012440002279
:101FDF00E4FDFC7FAEFE122A7CE4FDFC7F40FE1286
:101FEF002A8DE4FDFC7FB0FE122A8DE4FDFC7F817B
:101FFF00FE122A8DE4FDFC7FFFFE122A8DE4FDFC0C
:10200F007FA1FE122A8DE4FDFC7FA6FE122A8DE42D
:10201F00FDFC7FA8FE122A8DE4FDFC7F3FFE122AF5
:10202F008DE4FDFC7FC8FE122A8DE4FDFC7FD3FEFC
:10203F00122A8DE4FDFCFFFE122A8DE4FDFC7FD5F4
:10204F00FE122A8DE4FDFC7F80FE122A8DE4FDFC3A
:10205F007FD8FE122A8DE4FDFC7F05FE122A8DE447
:10206F00FDFC7FD9FE122A8DE4FDFC7FF1FE122AC2
:10207F008DE4FDFC7FDAFE122A8DE4FDFC7F12FE5B
:10208F00122A8DE4FDFC7FDBFE122A8DE4FDFC7F1E
:10209F0030FE122A8DE4FDFC7F8DFE122A8DE4FDA9
:1020AF00FC7F14FE122A8DE4FDFC7FAFFE022A8D09
:10295300900419EFF0A3EDF0122CAF7FAE1228AA6A
:10296300122B62900419E0FF1228AA122B62900422
:102973001AE0FF1228AA122B62122CF57F057E00A3
:03298300022BC064
:10266D00900397E0FFA3E0FBA3E0FAA3E0F990034A
:04267D00A37408F04A
:1026810090039FEFF0A3EBF0A3EAF0A3E9F0122C83
:10269100AF7FAE1228AA122B6290039FE0801D909B
:1026A10003A3E0FF14F0EF601C9003A0E0FBA3E4A0
:1026B10075F001121291A9F0FA121186FF1228AADF
:0F26C100122B6280DA122CF57F057E00022BC0EF
:101DD000900398EBF0A3EAF0A3E9F0900397EFF0FB
:101DE000E490039CF0A3F0A3F0EF5407FEC3740843
:101DF0009EF090039BE0FF131313541FA3F0EF54C6
:101E000007A3F0AF06EF703590039CE070028033BB
:101E100090039CE0FF14F0EF601612266D9003977C
:101E2000E02408F0900399E475F00812127B80E03A
:101E300090039DE0FE7003021EE6021ED090039CFC
:101E4000E07018900397E0FFA3E0FBA3E0FAA3E0A3
:101E5000F990039DE09003A3021EE290039BE0FF34
:101E600090039EE0FEC3EF9E90039BF0E0FF1313F0
:101E700013541FA3F0EF5407A3F0EE602C900397C8
:101E8000E0FFA3E0FBA3E0FAA3E0F990039EE0905B
:101E900003A3F012268190039EE0FF900397E02FAA
:101EA000F0900399E48FF0801B90039CE0FF14F006
:101EB000EF601612266D900397E02408F0900399C6
:101EC000E475F00812127B80E090039DE0FE60163E
:101ED000900397E0FFA3E0FBA3E0FAA3E0F99003EF
:061EE000A3EEF0122681C2
:011EE60022D9
:05286B0090041BEFF0DA
:10287000E4A3F0122CAF7FAE1228AA122B629004B0
:102880001BE0FF1228AA122B62122CAF7FAF122876
:10289000AA122B621227DB90041CEFF07F01122D8D
:0928A0002D122CF590041CE0FF40
:0128A900220C
:0E244100900397EFF0A3EBF0A3EAF0A3E9F00D
:10244F00E490039CF0A3F0122CAF7FAE1228AA12D7
:10245F002B62900397E0FF1228AA122B62122CAF67
:10246F007FAF1228AA122B62E490039CF0A3F09086
:10247F00039BE0FFD390039DE09F90039CE09400AB
:10248F00503F1227DB900398E0FBA3E475F0011295
:10249F001291A9F0FAEF1211CC90039BE0FFA3E089
:1024AF00B40009A3E0B507047F018002E4FF122DF9
:1024BF002D90039DE004F070B690039CE004F08033
:0424CF00AE022CF538
:082D9100EF24FF92A1022DC006
:082D9900EF24FF92A0022DC0FF
:102CD400A2A0E4339003A5F0122DC09003A5E0FF59
:012CE40022CD
:102CAF007F01122D997F01122D91E4FF122D99E4CE
:042CBF00FF022D9152
:0F2CF500E4FF122D997F01122D917F01022D997D
:0528AA009003A4EFF013
:1028AF00E4A3F0F09003A5E0FFC394085027A80716
:1028BF007480088002C313D8FCFF9003A4E05FFF6D
:1028CF00122D997F01122D91E4FF122D919003A5E6
:0528DF00E004F080CFD1
:0128E40022D1
:1027DB00E490039EF0A3F07F01122D99E490039EE9
:1027EB00F07F01122D91122CD4EF601990039FE012
:1027FB00FF90039EE0FEF87480088002C313D8FCA0
:10280B004F90039FF0E4FF122D9190039EE004F094
:0B281B00E0C3940840CB90039FE0FF57
:01282600228F
:0D2D2D00122D997F01122D91E4FF022D91CE
:102B6200E49003A4F07F01122D997F01122D91129E
:102B72002CD49003A4EFF0E4FF122D919003A4E073
:012B8200FF53
:012B8300222F
:101B1A004102CD00C1094102CE00C10A41020200C0
:101EE700900398EDF0A3EBF0EF147003021F7E044C
:101EF7006003021FDE75985053877F90039CE06450
:101F0700017030438E40538EFE53890F43892090D2
:101F1700039AE0FEA3E0FBAA06E4F9F87FB07E711E
:101F27007D0BFC1228271213C48F8D8F8BC2ABD267
:101F37008E802B90039CE0702590039AE0FEA3E02F
:101F4700FBAA06E4F9F87FB07E717D0BFC12282707
:101F57001213C48F9C438E04438E01438E1090034B
:101F670098E07073A3E06401706D53B1FE53B2FE45
:101F770053B1FD53B2FD22538EF790039AE0FEA3AF
:101F8700E0FBAA06E4F9F87FB07E717D0BFC12280E
:101F9700271213C48F9C759A50438E04438E10905A
:101FA7000398E0FF64027015A3E0B403105391BFD8
:101FB7005392BF53917F53927F53A2EF22EFB40402
:101FC70016900399E0B4050F53B3BF53B4BF53B38F
:081FD7007F53B47F43A21022E6
:0F2A1700A3E475F001121291A9F0FA121186FDD5
:102A2600EF14600E0470178D99E59830E1FB53980A
:0F2A3600FD22AF058F9BE59A30E1FB539AFD22FD
:102A9E00900410EBF0A3EAF0A3E9F0AE0790041057
:102AAE00E0FBA3E0FAA3E0F9121186600AAF0690EC
:082ABE000410122A1780E62221
:102AC600900401EBF0A3EAF0A3E9F0AE079004044A
:102AD60074FFF5F012129145F0600CAF06900401F8
:082AE600E0FB122A1780E62232
:062787009003D8121407B4
:10278D009003E0121413000000019003DC74FF129B
:10279D0013D4EC4D4E4F60279003E0E0FCA3E0FD19
:1027AD00A3E0FEA3E0FF9003D8E0F8A3E0F9A3E0D7
:1027BD00FAA3E0FB1212A79003E012140780CB904E
:0D27CD0003E0E0FCA3E0FDA3E0FEA3E0FFBD
:0127DA0022DC
:10273000900406EFF090040BE0FF14F0EF6047E028
:10274000FFE4FCFDFE9003DC1214077F0A7E007D8F
:10275000007C00122787A804A905AA06AB079004ED
:1027600007E0FCA3E0FDA3E0FEA3E0FF121332E4C8
:102770007B0AFAF9F8121332EB2430FD900406E0DC
:07278000FF122A2680AF22A0
:102C4200AE07EEB40A077D0DE4FF122A26AD06E4B4
:072C5200FF122A26AF062243
:030023000225EBC8
:0F25EB00C0E0C083C082C0D075D000C006C0075A
:1025FA00E59830E0615398FE900203E599F0E064B3
:10260A00236019E0FF04F09002CDE0FE04F074CFDD
:10261A002EF582E43402F583EFF0803A900202E468
:10262A00F09002CDE0FF900202E0FEC39F502074BA
:10263A00CF2EF582E43402F583E0FF74052EF5828D
:10264A00E43402F583EFF0900202E004F080D290C5
:06265A0002CDE4F0D209FC
:0D266000D007D006D0D0D082D083D0E03299
:042DB6007F03DFFEBA
:012DBA0022F6
:042DBB007F1BDFFE9D
:012DBF0022F1
:042DC0007F39DFFE7A
:012DC40022EC
:062DAF0000007F26DFFE9C
:012DB50022FB
:0A2D670000007F027E26DEFEDFFC86
:012D7100223F
:0A2D720000007F037E51DEFEDFFC4F
:012D7C002234
:0A2D7D0000007F187E54DEFEDFFC2C
:012D87002229
:102BC000AD07AC06C3ED9401EC940050047C007D8D
:0E2BD00001122D7DED1D70011C144C70F422BD
:100BFE00EC4D6011E8497017ED33EC3304600DE4F1
:100C0E00FCFFFEFD22E933E8330470F8020EC71232
:100C1E000E9258046009E4CC248150062850090233
:100C2E000ED1284003020ECEC0E0EB4A7044B980CC
:100C3E0006D0E0FB020EBDEF4E701CBD8008EBFF30
:100C4E00EAFEE9FD80EBE98DF0A4FEE5F0020CE78B
:100C5E00E9CDF9EAFEEBFFEF89F0A4FCE5F0CE89D1
:100C6E00F0A42EFFE435F0CD89F0A42DFEE435F08E
:100C7E008067EF4E7005BD80D780C3EF8BF0A4ACBC
:100C8E00F0EE8BF0A42CFCE435F0F8EF8AF0A42CF7
:100C9E00E5F038FCE433CB8DF0A42CFCE5F03BF80A
:100CAE00EE8AF0A42CFCE5F038F8E433CF89F0A4FA
:100CBE002CFCE5F038CF3400CE89F0A42FFFE5F000
:100CCE003EFEE433C98DF0A42EFEE5F039CD8AF058
:100CDE00A42FFFE5F03EFEE43DFD33D0E0FB5007D0
:100CEE000BBB000F020ED1EC2CFCEF33FFEE33FEEC
:060CFE00ED33FD020EA91A
:100D0400020ED1EC5D046005E859047003020EC7BD
:100D1400120E92580460F6EC4860F2EC7004FDFE8A
:100D2400FF22C860DB2481C85009C39860025006C2
:100D3400020ECE9850CAF582E9294B4A7005AB825F
:100D4400020EBD75F0007C1A7880C3EF9BEE9AED1D
:100D540099400DC3EF9BFFEE9AFEED99FDE842F03A
:100D6400DC23ACF0D0E0FFD0E0FED0E0FDAB82208D
:100D7400E7101BEB60BAEC2CFCEF33FFEE33FEED17
:100D840033FD020EA9E803F830E705C0F075F00062
:100D9400EF2FFFEE33FEED33FD40B830E7C280AAFB
:100DA40074F8CC6480CCC86480C8F58204604FC3F6
:100DB400EB9FF5F0EA9E42F0E99D42F0E89C45F095
:100DC400603C501DE5825FFFE582D313CB5BCBF41F
:100DD4002B5582FB50280ABA002409B90020088048
:100DE4001DE5825BFBE582D313CF5FCFF4C3132FE2
:100DF4005582FF50090EBE00050DBD00010CC3EB6A
:100E04009FF5F0EA9E42F0E99D42F0E89C45F060CF
:090E140007CC4820E701B3EC22F1
:100E1D0075F020800E75F010800575F0087D007E50
:100E2D00007F003392D530D5031213C4EC3340103C
:100E3D00EF33FFEE33FEED33FDEC33FCD5F0ED2259
:0E0E4D00E5F0247EA2D513CC92E7CDCEFF2295
:100E5B00EDD2E7CD33EC3392D524814006E4FFFE8F
:100E6B00FDFC22FCE4CFCECDCC24E0501174FF80EE
:100E7B00EDC3CC13CCCD13CDCE13CECF13CF04708B
:070E8B00F030D5DE0213C4B4
:10148A00E508249AF582E43403F583E005082290FE
:10149A00039730070390039AE475F001121444028B
:1014AA0011862000E97F2ED2008018EF540F249075
:1014BA00D43440D4FF30040BEF24BFB41A005003D5
:1014CA002461FFE50960021509050CE50C700205A7
:1014DA000B30070E900397E475F001121444EF02E3
:1014EA0011CC022C427403D2078003E4C207F50828
:1014FA0090039712145BE4F509F50BF50CE5096006
:10150A00077F201214CD80F5750AFFC201C200C2FE
:10151A0002C203C205C206C208121499FF700D3036
:10152A0007057F001214DEAF0CAE0B22B4255FC292
:10153A00D5C204121499FF24D0B40A00501A75F0C7
:10154A000A780930D50508B6FF0106C6A426F62092
:10155A00D5047002D20380D924CFB41A00EF500404
:10156A00C2E5D2040217D0D20180C6D20080C0D20E
:10157A000280BCD2D580BAD20580B47F201214CDA5
:10158A002002077401B5090040F112148AFF1214EF
:10159A00CD021507D208D206809512148AFB1214BE
:1015AA008AFA12148AF94A4B700679CE7A187BFFA6
:1015BA0020022EE509602A7E008E827583001211B0
:1015CA009F60060EEE650A70F0C2D5EBC0E0EAC075
:1015DA00E0E9C0E0EE121831D0E0F9D0E0FAD0E04C
:1015EA00FB121186FF60AAEBC0E0EAC0E0E9C0E0A6
:1015FA001214CDD0E02401F9D0E03400FAD0E0FB97
:10160A00E50A0460DCD50AD98087D20280A21218C2
:10161A001360F7E50A700104120EDCA90A600DE5F1
:10162A000A600914F50A1218BBEF60F3EA30E70200
:10163A00F404C3995079EAF4250A0430E701E40472
:10164A00F50A800D12181360C1EA050A250A120E5E
:10165A00DCEA9003C6F030E701E4250A04D50A045F
:10166A0020050114121831E4C0E01218BB9003C619
:10167A00E0601320E70714F01214B5802204F0D0BA
:10168A00E014C0E07F001214B5E50A60071214AC3A
:10169A00150A800B3005031214ACD0E0021507D0EE
:1016AA00E00480C4121813609EE50A04120EDC904E
:1016BA0003C6EAF0E50A20050260010424041218B0
:0116CA0031EE
:1016CB0074FF04C0E01218BB1214B5E50A20050222
:1016DB0060031214ACD0E0B50AE87F451214BF903A
:1016EB0003C6E07F2B30E7047F2DF404C0E0121417
:1016FB00CDD0E075F00A84C0F01214B6D0E012140D
:10170B00B6021507791080027908C206C208800854
:10171B00D2D5790A8004790AC2D5E50A047002F59C
:10172B000AE4FAFDFEFF12148AFC7B082001131257
:10173B00148AFD7B1030000A12148AFE12148AFFE1
:10174B007B20EC3382D592D55013C3E43000069F37
:10175B00FFE49EFEE42001039DFDE49CFCE4CBF83A
:10176B00C201EC700CCFCECDCCE824F8F870F3802E
:10177B0017C3EF33FFEE33FEED33FDEC33FCEB33EE
:10178B00FB994002FB0FD8E9EB300105F8D0E0C420
:10179B0048B201C0E00AEC4D4E4F78207B0070C27E
:1017AB00EAB50A0040BCC0E0121833D0F0D0E020FC
:1017BB000104C4C0E0C4B201C0F01214B6D0F0D51D
:1017CB00F0EB02150712146415A453170F58157577
:1017DB004C15714217134F171B44171B49158A439E
:1017EB00172155164E4616AE4516184718EE5015CE
:1017FB00792D157D2E15A02B158123159E2018D71D
:10180B002A15394800001598E50AB4FF03750A0636
:10181B0012148AFC12148AFD12148AFE12148AFF07
:10182B009003BF020F19790AA2D5200314300509C2
:10183B00B910020404B9080104A2D5200602500114
:10184B00042002689202B509005034C0E07F2030BA
:10185B0003197F30A20272067205500F12188AC24A
:10186B0002C206C205C2087F30800F300503E9C0F3
:10187B00E01214CD300503D0E0F9D0E0B509CC303F
:10188B0005177F30B9100C1214CD7F583004077F29
:10189B00788003B908031214CD3002057F2D021492
:1018AB00CD7F202008F87F2B2006F322920280CFD9
:1018BB007F00B40700500B24BFF582E43403F5839B
:1018CB00E0FF22286E756C6C2900D20112148A304D
:1018DB0001F8C201780930D50108F60215392D50EF
:1018EB0043495812148A2403B405004001E49018AC
:1018FB00E9931214BE743A1214BED2037509040292
:02190B00170FB4
:100E9200E9D2E7C933E833F892D5EDD2E7CD33ECA6
:070EA20033FC5002B2D5221F
:100EA900EC30E7100FBF000C0EBE00080DBD0004AA
:100EB9000BEB6014A2D5EB13FCED92E7FD2274FF56
:100EC900FCFDFEFF22E480F8A2D574FF13FC7D80AF
:030ED900E480EFC3
:100EDC00F920E73624F950037907E4F42402FBE502
:100EEC0082158270021583DBF6E024FB501BE9604F
:100EFC0014E4F0E582158270021583E004F0B40A64
:0D0F0C0008E4F0D9EE7401F00A22C2D522EB
:100F1900ED33EC3392D5FA602AB4FF33EDC2E77BA7
:100F2900FF60067A0F793EE4227A0F794720D504CB
:100F39007A0F7942224E614E002B494E46002D49C7
:100F49004E4600E47A08F0A3DAFC7B00740722C05D
:100F590083C082ECC0E0EDC0E0EEC0E0EFC0E0EAA3
:100F690075F010A4CAABF075F04DA42BFBE435F075
:100F7900FCEA2410FAEB34C5FBEC34D9FCEDC2E7EA
:100F8900FF75F056A4F42411C5F0F434C58FF0A40C
:100F99002AE5F03BE43CF020E714121146D0E0FFCB
:100FA900D0E0FED0E0FDD0E0FC120D078014F4047F
:100FB900121146D0E0FFD0E0FED0E0FDD0E0FC12F7
:100FC9000BFED082D083E0FAEDD2E7CD33EC3324A7
:100FD90082FBE4C3CF33CFCE33CECD33CD33DBF376
:100FE9007B0775F00A846004F0A31B0AE5F0F0A3FF
:100FF9008FF0740AA4FFACF08EF0740AA42CFEAC36
:10100900F050010C8DF0740AA42CFDE435F0F0A326
:05101900DBDE7407227C
:10101E00020EC7E86480F8E933E83360110460F02B
:10102E00ED33EC337009E8FCE9FDEAFEEBFF220438
:10103E0060DED3EB9FEA9EE99DE8C2E78CF0C2F733
:10104E0095F0400CE8CCF8E9CDF9EACEFAEBCFFBFF
:10105E00120E9285D0F05804700320D5B3E80470B8
:10106E00075002B2D5020ED192D5EC0460F7E4CC53
:10107E00C0E0C398F8603B94186008400DD0E0FBC8
:10108E00020EA9E4FBFAC9FC8028E830E406E4C9A4
:10109E00FBE4CAFCE830E305E4C9CACBFCE854071C
:1010AE006010F8C3E913F9EA13FAEB13FBEC13FC27
:1010BE00D8F130F52FC3E49CFCEF9BFFEE9AFEEDCA
:1010CE0099FDD0E0FBEF4E4D4C701222DB03020E69
:1010DE00CEEC2CFCEF33FFEE33FEED33FDED30E7BF
:1010EE00EB020EA9EF2BFFEE3AFEED39FDD0E0FB41
:1010FE0050130BBB0003020ED1ED13FDEE13FEEFEA
:08110E0013FFEC13FC020EA913
:101116003F8000004120000042C80000447A0000E1
:10112600461C400047C35000497424004B18968063
:101136004CBEBC205A0E1BCA6753C21C749DC5AE5A
:10114600FB60065407601C2323121174EB543860AD
:101156000912116012116F120BFEECF8EDF9EEFA9E
:10116600EFCB22EB12116F80F1543803241C90113F
:1011760016FE93FC0EEE93FD0EEE930ECE93FF221B
:0300000002255F77
:0C255F00787FE4F6D8FD7581210225A6E6
:10118600BB010689828A83E0225002E722BBFE0267
:09119600E32289828A83E493229A
:10119F00BB010CE58229F582E5833AF583E0225005
:1011AF0006E92582F8E622BBFE06E92582F8E2224F
:0D11BF00E58229F582E5833AF583E4932269
:1011CC00BB010689828A83F0225002F722BBFE0102
:0211DC00F322FC
:1011DE00EF8DF0A4A8F0CF8CF0A428CE8DF0A42E25
:0211EE00FE22DF
:1011F000BC000BBE0029EF8DF084FFADF022E4CCE3
:10120000F875F008EF2FFFEE33FEEC33FCEE9DECAB
:10121000984005FCEE9DFE0FD5F0E9E4CEFD22EDF1
:10122000F8F5F0EE8420D21CFEADF075F008EF2F3B
:10123000FFED33FD4007985006D5F0F222C398FD2C
:051240000FD5F0EA22C9
:10124500C2D5EC30E709B2D5E4C39DFDE49CFCEEC4
:1012550030E715B2D5E4C39FFFE49EFE1211F0C33B
:10126500E49DFDE49CFC80031211F030D507C3E436
:061275009FFFE49EFE2233
:10127B00C5F0F8A3E028F0C5F0F8E58215827002FE
:06128B001583E038F0229B
:10129100A3F8E0C5F025F0F0E58215827002158310
:0612A100E0C838F0E8226D
:1012A700E88FF0A4CC8BF0A42CFCE98EF0A42CFCE6
:1012B7008AF0EDA42CFCEA8EF0A4CDA8F08BF0A464
:1012C7002DCC3825F0FDE98FF0A42CCD35F0FCEBC3
:1012D7008EF0A4FEA9F0EB8FF0A4CFC5F02ECD3988
:0F12E700FEE43CFCEAA42DCE35F0FDE43CFC22F5
:1012F60075F008758200EF2FFFEE33FECD33CDCCAF
:1013060033CCC58233C5829BED9AEC99E582984031
:101316000CF582EE9BFEED9AFDEC99FC0FD5F0D60E
:10132600E4CEFBE4CDFAE4CCF9A88222B800C1B938
:101336000059BA002DEC8BF084CFCECDFCE5F0CB76
:10134600F97818EF2FFFEE33FEED33FDEC33FCEBAF
:1013560033FB10D703994004EB99FB0FD8E5E4F96A
:10136600FA227818EF2FFFEE33FEED33FDEC33FC57
:10137600C933C910D7059BE99A4007EC9BFCE99A4B
:10138600F90FD8E0E4C9FAE4CCFB2275F010EF2F90
:10139600FFEE33FEED33FDCC33CCC833C810D70790
:1013A6009BEC9AE899400AED9BFDEC9AFCE899F8CB
:0E13B6000FD5F0DAE4CDFBE4CCFAE4C8F9225E
:10282700C2D5E830E70FB2D5E4C39BFBE49AFAE4DC
:1028370099F9E498F8EC30E717B2D512285D12132E
:1028470032E4C39BFBE49AFAE499F9E498F880032D
:1028570012133230D50DE4C39FFFE49EFEE49DFDC5
:04286700E49CFC22CF
:0E13C400C3E49FFFE49EFEE49DFDE49CFC223A
:1013D2007401FF3395E0FEFDFCA3A3A3E0CF2FF041
:1013E200E582158270021583E0CE3EF0E582158219
:1013F20070021583E0CD3DF0E582158270021583FF
:05140200E0CC3CF022EB
:0C140700ECF0A3EDF0A3EEF0A3EFF02258
:10141300A8828583F0D083D08212142A12142A1250
:10142300142A12142AE473E493A3C583C5F0C58375
:10143300C8C582C8F0A3C583C5F0C583C8C582C823
:011443002286
:10144400F8E0FBA3A3E0F925F0F0E5821582700231
:071454001583E0FA38F022D5
:09145B00EBF0A3EAF0A3E9F02292
:10146400D083D082F8E4937012740193700DA3A317
:1014740093F8740193F5828883E47374029368602B
:06148400EFA3A3A380DF2B
:10256B0002218DE493A3F8E493A34003F68001F2D8
:10257B0008DFF48029E493A3F85407240CC8C33371
:10258B00C4540F4420C8834004F456800146F6DF40
:10259B00E4800B010204081020408090190DE47EAA
:1025AB00019360BCA3FF543F30E509541FFEE49335
:1025BB00A360010ECF54C025E060A840B8E493A3FC
:1025CB00FAE493A3F8E493A3C8C582C8CAC583CA27
:1025DB00F0A3C8C582C8CAC583CADFE9DEE780BEDF
:011B2A0000BA
:00000001FF
