:1011CD001212E21213659000037425F0A37480F0DF
:1011DD00E4A3F07B01FDFF120C5AD2ACD288D2A849
:1011ED00D2AF90006DE4F0A37464F012129980FBFD
:10119900464F5257415244004241434B004C454649
:1011A900540052494748540053544F500052454443
:1011B900554345004144440053656C6563742045BB
:0411C90072720A0034
:10115B0041006101420062000042005F000042005A
:03116B005D000024
:100B5E00200903020C5990000374FFF0A37411F0E6
:100B6E00A37499F07B017A007933120E18E94A4B7F
:100B7E00600612130F020C4C90000374FFF0A37466
:100B8E0011F0A374A1F07B017A007933120E18E9EB
:100B9E004A4B6006121318020C4C90000374FFF0BF
:100BAE00A37411F0A374A6F07B017A007933120EB0
:100BBE0018E94A4B6006121321020C4C9000037484
:100BCE00FFF0A37411F0A374ABF07B017A007933BC
:100BDE00120E18E94A4B600512132A806190000329
:100BEE0074FFF0A37411F0A374B1F07B017A007955
:100BFE0033120E18E94A4B600512133380409000F1
:100C0E000374FFF0A37411F0A374B6F07B017A00A5
:100C1E007933120E18E94A4B600512134D801F905E
:100C2E00000374FFF0A37411F0A374BDF07B017A7E
:100C3E00007933120E18E94A4B6003121345C209AC
:0C0C4E007B017A007933E4FF12122B22A4
:100D4F009000717403F0121305121063900062EE9D
:100D5F00F0A3EFF0121305D3900063E094C8900056
:100D6F0062E09400504290006DE4F0A374C8F0125A
:100D7F0013339000717401F07FE87E0312127B121F
:100D8F00106390005DEEF0A3EFF012130590007169
:100D9F007405F07F407E0612127B12106390005F85
:100DAF00EEF0A3EFF0121305D3900063E0942C90B4
:100DBF000062E09401400302130F90005FE0FEA376
:100DCF00E0FF90005DE0FCA3E0FDC39FEC9E400EB2
:100DDF00D3ED942CEC9401400512132A802090003F
:100DEF005FE0FEA3E0FFD390005EE09F90005DE028
:100DFF009E5015EF942CEE9401400D1213217FE8B5
:090E0F007E0312127B1213332240
:10129900900061E0146006047006020D4F020B5EB7
:0A12A9007BFF7A1179C1120746227B
:030003000210BF29
:1010BF00C0E0C0F0C083C082C0D075D000C000C0F7
:1010CF0001C002C003C004C005C006C00720B21D86
:1010DF007F147E0012127B20B210900061E060043A
:1010EF00E4F080069000617401F030B2FDD007D0BB
:1010FF0006D005D004D003D002D001D000D0D0D07C
:08110F0082D083D0F0D0E03261
:0C116E0041006C5041006A0041006B0021
:1012B300438E805389F0438901758A66758CEAC22F
:0812C3008DD28CD2A9D2AF221A
:0813450090006CE0240AF02284
:08134D0090006CE024F6F02290
:0C12E2001212B3C292C293C294C29522B1
:09130F00D292C293D294C295223D
:09131800C292D293C294D2952234
:09132100C292D293D294C295222B
:09132A00D292C293C294D2952222
:09133300C292C293C294C2952239
:03000B00020FE5FC
:0F0FE500C0E0C0F0C083C082C0D075D000C0078C
:100FF400758A66758CEA90006AE004F0E075F0C8C2
:1010040084AFF0EFF090006CE0D39F4006D297D20B
:10101400968004C297C29690006BE004F0E075F0ED
:101024002884AFF0EFF0900071E0D39F4004D2A683
:101034008002C2A690006DE07002A3E060129000EE
:101044006EE024FFF090006DE034FFF0C2A3800254
:02105400D2A325
:0D105600D007D0D0D082D083D0F0D0E032CF
:04117A0041007103BC
:05117E0042006D0000BD
:0511830042006F0000B6
:10000E00438E4053890F438910E4F58BF58DC28FD3
:03001E00D28E225D
:07136500C2B4C2B502000E84
:0B12FA00C2B400D2B412135DC2B422D3
:10106300E4900000F0A3F01212FAD2B530B5FDD22D
:101073008E20B5FDC28EAF8DEFFEAD8B7C00E42DCF
:10108300FFEC3E900000F0A3EFF0E4F58DF58B90BC
:101093000000E0FCA3E0FDE41201D17B9A7A997988
:1010A300D9783F120026E4FBFA79C8784212012F5F
:0B10B30012020A90006FEEF0A3EFF0B5
:0110BE00220F
:1011880041004700C10941004800C10A4100300040
:100C5A00900001EDF0A3EBF0EF147003020CEF0427
:100C6A006003020D4E75985053877F900005E0642B
:100C7A0001702F438E40538EFE53890F4389209073
:100C8A000003E0FEA3E0FBAA06E4F9F8FF7E467D36
:100C9A0005FC1211171205A38F8D8F8BC2ABD28E52
:100CAA00802A900005E07024900003E0FEA3E0FB98
:100CBA00AA06E4F9F8FF7E467D05FC121117120513
:100CCA00A38F9C438E04438E01438E10900001E053
:100CDA007072A3E06401706C53B1FE53B2FE53B15B
:100CEA00FD53B2FD22538EF7900003E0FEA3E0FB12
:100CFA00AA06E4F9F8FF7E467D05FC1211171205D3
:100D0A00A38F9C759A50438E04438E10900001E085
:100D1A00FF64027015A3E0B403105391BF5392BF4E
:100D2A0053917F53927F53A2EF22EFB4041690009F
:100D3A0002E0B4050F53B3BF53B4BF53B37F53B4E8
:050D4A007F43A210220E
:0F11FD00A3E475F00112058DA9F0FA120535FD76
:10120C00EF14600E0470178D99E59830E1FB53983C
:0F121C00FD22AF058F9BE59A30E1FB539AFD222F
:10122B00900000EBF0A3EAF0A3E9F0AE079000000A
:10123B00E0FBA3E0FAA3E0F9120535600AAF0690D4
:08124B0000001211FD80E622F3
:10125300900065EBF0A3EAF0A3E9F0AE0790006815
:1012630074FFF5F012058D45F0600CAF0690006534
:08127300E0FB1211FD80E622F0
:1012CB00AE07EEB40A077D0DE4FF12120CAD06E477
:0712DB00FF12120CAF062206
:03002300020F6366
:0F0F6300C0E0C083C082C0D075D000C006C007F8
:100F7200E59830E0615398FE900031E599F0E06425
:100F8200236019E0FF04F0900047E0FE04F074498A
:100F92002EF582E43400F583EFF0803A900030E4DD
:100FA200F0900047E0FF900030E0FEC39F502074B5
:100FB200492EF582E43400F583E0FF74332EF58286
:100FC200E43400F583EFF0900030E004F080D2903A
:060FD2000047E4F0D20923
:0D0FD800D007D006D0D0D082D083D0E03238
:020006000022D6
:071355000000007F0ADFFE2B
:01135C00226E
:07135D000000007F18DFFE15
:011364002266
:06136C0000007F26DFFEF9
:011372002258
:0B12EE000000007F017E85DEFEDFFCBB
:0112F90022D2
:08133C007F027E0FDEFEDFFCE4
:011344002286
:09130500007F0B7EBEDEFEDFFC62
:01130E0022BC
:10127B00AD07AC06C3ED9401EC940050047C007DEB
:0E128B0001121305ED1D70011C144C70F422AD
:10002600EC4D6011E8497017ED33EC3304600DE4D4
:10003600FCFFFEFD22E933E8330470F80202761273
:10004600024158046009E4CC248150062850090274
:10005600028028400302027DC0E0EB4A7044B9806A
:1000660006D0E0FB02026CEF4E701CBD8008EBFF71
:10007600EAFEE9FD80EBE98DF0A4FEE5F002010F52
:10008600E9CDF9EAFEEBFFEF89F0A4FCE5F0CE89B5
:10009600F0A42EFFE435F0CD89F0A42DFEE435F072
:1000A6008067EF4E7005BD80D780C3EF8BF0A4ACA0
:1000B600F0EE8BF0A42CFCE435F0F8EF8AF0A42CDB
:1000C600E5F038FCE433CB8DF0A42CFCE5F03BF8EE
:1000D600EE8AF0A42CFCE5F038F8E433CF89F0A4DE
:1000E6002CFCE5F038CF3400CE89F0A42FFFE5F0E4
:1000F6003EFEE433C98DF0A42EFEE5F039CD8AF03C
:10010600A42FFFE5F03EFEE43DFD33D0E0FB5007B3
:100116000BBB000F020280EC2CFCEF33FFEE33FE2C
:06012600ED33FD0202585A
:10012C00020280EC5D046005E8590470030202765B
:10013C00120241580460F6EC4860F2EC7004FDFECB
:10014C00FF22C860DB2481C85009C39860025006A6
:10015C0002027D9850CAF582E9294B4A7005AB82A0
:10016C0002026C75F0007C1A7880C3EF9BEE9AED5E
:10017C0099400DC3EF9BFFEE9AFEED99FDE842F01E
:10018C00DC23ACF0D0E0FFD0E0FED0E0FDAB822071
:10019C00E7101BEB60BAEC2CFCEF33FFEE33FEEDFB
:1001AC0033FD020258E803F830E705C0F075F000A3
:1001BC00EF2FFFEE33FEED33FD40B830E7C280AADF
:1001CC0075F020800E75F010800575F0087D007EAE
:1001DC00007F003392D530D5031205A3EC334010C9
:1001EC00EF33FFEE33FEED33FDEC33FCD5F0ED22B7
:0E01FC00E5F0247EA2D513CC92E7CDCEFF22F3
:10020A00EDD2E7CD33EC3392D524814006E4FFFEEC
:10021A00FDFC22FCE4CFCECDCC24E0501174FF804B
:10022A00EDC3CC13CCCD13CDCE13CECF13CF0470E8
:07023A00F030D5DE0205A340
:1006DB00E5082403F582E43400F583E00508229055
:1006EB000000300703900003E475F0011205B1021E
:1006FB0005352000E97F2ED2008018EF540F24908F
:10070B00D43440D4FF30040BEF24BFB41A00500391
:10071B002461FFE50960021509050CE50C70020563
:10072B000B30070E900000E475F0011205B1EF02DB
:10073B00057B0212CB7403D2078003E4C207F508D2
:10074B009000001205C8E4F509F50BF50CE50960FE
:10075B00077F2012071E80F5750AFFC201C200C277
:10076B0002C203C205C206C2081206EAFF700D30B0
:10077B0007057F0012072FAF0CAE0B22B4255FC20B
:10078B00D5C2041206EAFF24D0B40A00501A75F041
:10079B000A780930D50508B6FF0106C6A426F6204F
:1007AB00D5047002D20380D924CFB41A00EF5004C1
:1007BB00C2E5D204020A21D20180C6D20080C0D287
:1007CB000280BCD2D580BAD20580B47F2012071E1E
:1007DB002002077401B5090040F11206DBFF120776
:1007EB001E020758D208D20680951206DBFB1206B2
:1007FB00DBFA1206DBF94A4B7006791F7A0B7BFF8B
:10080B0020022EE509602A7E008E82758300120578
:10081B004E60060EEE650A70F0C2D5EBC0E0EAC082
:10082B00E0E9C0E0EE120A82D0E0F9D0E0FAD0E0C5
:10083B00FB120535FF60AAEBC0E0EAC0E0E9C0E0BF
:10084B0012071ED0E02401F9D0E03400FAD0E0FB0F
:10085B00E50A0460DCD50AD98087D20280A2120A8D
:10086B006460F7E50A70010412028BA90A600DE5BA
:10087B000A600914F50A120B0CEF60F3EA30E70279
:10088B00F404C3995079EAF4250A0430E701E4042F
:10089B00F50A800D120A6460C1EA050A250A1202E4
:1008AB008BEA90002FF030E701E4250A04D50A0407
:1008BB0020050114120A82E4C0E0120B0C90002FE9
:1008CB00E0601320E70714F0120706802204F0D033
:1008DB00E014C0E07F00120706E50A60071206FD70
:1008EB00150A800B3005031206FDD0E0020758D025
:1008FB00E00480C4120A64609EE50A0412028B9025
:10090B00002FEAF0E50A2005026001042404120A14
:01091B008259
:10091C0074FF04C0E0120B0C120706E50A20050256
:10092C0060031206FDD0E0B50AE87F45120710906F
:10093C00002FE07F2B30E7047F2DF404C0E012077A
:10094C001ED0E075F00A84C0F0120707D0E0120741
:10095C0007020758791080027908C206C20880087D
:10096C00D2D5790A8004790AC2D5E50A047002F559
:10097C000AE4FAFDFEFF1206DBFC7B0820011312D1
:10098C0006DBFD7B1030000A1206DBFE1206DBFFD5
:10099C007B20EC3382D592D55013C3E43000069FF4
:1009AC00FFE49EFEE42001039DFDE49CFCE4CBF8F7
:1009BC00C201EC700CCFCECDCCE824F8F870F380EB
:1009CC0017C3EF33FFEE33FEED33FDEC33FCEB33AB
:1009DC00FB994002FB0FD8E9EB300105F8D0E0C4DD
:1009EC0048B201C0E00AEC4D4E4F78207B0070C23B
:1009FC00EAB50A0040BCC0E0120A84D0F0D0E02076
:100A0C000104C4C0E0C4B201C0F0120707D0F0D595
:100A1C00F0EB0207581205D107F55309605807C6C9
:100A2C004C07C24209644F096C44096C4907DB430B
:100A3C00097255089F4608FF450869470B3F500748
:100A4C00CA2D07CE2E07F12B07D22307EF200B2838
:100A5C002A078A48000007E9E50AB4FF03750A066D
:100A6C001206DBFC1206DBFD1206DBFE1206DBFFB8
:100A7C009000280202C8790AA2D520031430050977
:100A8C00B910020404B9080104A2D52006025001D1
:100A9C00042002689202B509005034C0E07F203077
:100AAC0003197F30A20272067205500F120ADBC2C4
:100ABC0002C206C205C2087F30800F300503E9C0B0
:100ACC00E012071E300503D0E0F9D0E0B509CC30B8
:100ADC0005177F30B9100C12071E7F583004077FA2
:100AEC00788003B9080312071E3002057F2D020718
:100AFC001E7F202008F87F2B2006F322920280CF45
:100B0C007F00B40700500B2428F582E43400F583F1
:100B1C00E0FF22286E756C6C2900D2011206DB30C6
:100B2C0001F8C201780930D50108F602078A2D5068
:100B3C004349581206DB2403B405004001E4900B32
:100B4C003A9312070F743A12070FD2037509040275
:020B5C0009602E
:10024100E9D2E7C933E833F892D5EDD2E7CD33EC03
:0702510033FC5002B2D5227C
:10025800EC30E7100FBF000C0EBE00080DBD000407
:100268000BEB6014A2D5EB13FCED92E7FD2274FFB3
:10027800FCFDFEFF22E480F8A2D574FF13FC7D800C
:03028800E480EF20
:10028B00F920E73624F950037907E4F42402FBE55F
:10029B0082158270021583DBF6E024FB501BE960AC
:1002AB0014E4F0E582158270021583E004F0B40AC1
:0D02BB0008E4F0D9EE7401F00A22C2D52249
:1002C800ED33EC3392D5FA602AB4FF33EDC2E77B05
:1002D800FF60067A0279EDE4227A0279F620D504E5
:1002E8007A0279F1224E614E002B494E46002D4983
:1002F8004E4600E47A08F0A3DAFC7B00740722C0BB
:1003080083C082ECC0E0EDC0E0EEC0E0EFC0E0EA00
:1003180075F010A4CAABF075F04DA42BFBE435F0D2
:10032800FCEA2410FAEB34C5FBEC34D9FCEDC2E747
:10033800FF75F056A4F42411C5F0F434C58FF0A469
:100348002AE5F03BE43CF020E7141204F5D0E0FF86
:10035800D0E0FED0E0FDD0E0FC12012F8014F404C0
:100368001204F5D0E0FFD0E0FED0E0FDD0E0FC12B2
:100378000026D082D083E0FAEDD2E7CD33EC3324E7
:1003880082FBE4C3CF33CFCE33CECD33CD33DBF3D3
:100398007B0775F00A846004F0A31B0AE5F0F0A35C
:1003A8008FF0740AA4FFACF08EF0740AA42CFEAC93
:1003B800F050010C8DF0740AA42CFDE435F0F0A384
:0503C800DBDE740722DA
:1003CD00020276E86480F8E933E83360110460F0E6
:1003DD00ED33EC337009E8FCE9FDEAFEEBFF220496
:1003ED0060DED3EB9FEA9EE99DE8C2E78CF0C2F791
:1003FD0095F0400CE8CCF8E9CDF9EACEFAEBCFFB5D
:10040D0012024185D0F05804700320D5B3E8047072
:10041D00075002B2D502028092D5EC0460F7E4CC0D
:10042D00C0E0C398F8603B94186008400DD0E0FB25
:10043D00020258E4FBFAC9FC8028E830E406E4C95E
:10044D00FBE4CAFCE830E305E4C9CACBFCE8540779
:10045D006010F8C3E913F9EA13FAEB13FBEC13FC84
:10046D00D8F130F52FC3E49CFCEF9BFFEE9AFEED27
:10047D0099FDD0E0FBEF4E4D4C701222DB030202D2
:10048D007DEC2CFCEF33FFEE33FEED33FDED30E76D
:10049D00EB020258EF2BFFEE3AFEED39FDD0E0FBFB
:1004AD0050130BBB0003020280ED13FDEE13FEEFA4
:0804BD0013FFEC13FC020258CE
:1004C5003F8000004120000042C80000447A00003F
:1004D500461C400047C35000497424004B189680C1
:1004E5004CBEBC205A0E1BCA6753C21C749DC5AEB8
:1004F500FB60065407601C2323120523EB54386068
:100505000912050F12051E120026ECF8EDF9EEFA98
:10051500EFCB22EB12051E80F1543803241C900406
:10052500C5FE93FC0EEE93FD0EEE930ECE93FF22C9
:03000000020ED716
:0C0ED700787FE4F6D8FD758121020F1E23
:10053500BB010689828A83E0225002E722BBFE02C4
:09054500E32289828A83E49322F7
:10054E00BB010CE58229F582E5833AF583E0225062
:10055E0006E92582F8E622BBFE06E92582F8E222AC
:0D056E00E58229F582E5833AF583E49322C6
:10057B00BB010689828A83F0225002F722BBFE015F
:02058B00F32259
:10058D00A3F8E0C5F025F0F0E58215827002158321
:06059D00E0C838F0E8227E
:10111700C2D5E830E70FB2D5E4C39BFBE49AFAE403
:1011270099F9E498F8EC30E717B2D512114D120689
:1011370049E4C39BFBE49AFAE499F9E498F880033D
:1011470012064930D50DE4C39FFFE49EFEE49DFDE2
:04115700E49CFC22F6
:0E05A300C3E49FFFE49EFEE49DFDE49CFC2269
:1005B100F8E0FBA3A3E0F925F0F0E58215827002D3
:0705C1001583E0FA38F02277
:0905C800EBF0A3EAF0A3E9F02234
:1005D100D083D082F8E4937012740193700DA3A3B9
:1005E10093F8740193F5828883E4737402936860CD
:0605F100EFA3A3A380DFCD
:100E1800900000EBF0A3EAF0A3E9F0A3E0FBA3E065
:100E2800FAA3E0F91205357003020EC4900000E041
:100E3800FBA3E0FAA3E0F91205357003020ED09087
:100E48000003E0F9A3E0FAA3E0A3C9F0A3EAF0A342
:100E5800E9F0900000A3E0FAA3E0F9900009EBF0B4
:100E6800A3EAF0A3E9F0900006E0FBA3E0FAA3E010
:100E7800F9120535FF6026900009E0FBA3E0FAA30C
:100E8800E0F91205356F701590000775F00112052D
:100E9800F790000AE475F0011205F780C990000682
:100EA800E0FBA3E0FAA3E0F91205357002800D908B
:100EB8000001E475F0011205F7020E34900000E01D
:0F0EC800FBA3E0FAA3E0F9227B007A0079002275
:100EE3000211CDE493A3F8E493A34003F68001F247
:100EF30008DFF48029E493A3F85407240CC8C33310
:100F0300C4540F4420C8834004F456800146F6DFDE
:100F1300E4800B010204081020408090115BE47E02
:100F2300019360BCA3FF543F30E509541FFEE493D3
:100F3300A360010ECF54C025E060A840B8E493A39A
:100F4300FAE493A3F8E493A3C8C582C8CAC583CAC5
:100F5300F0A3C8C582C8CAC583CADFE9DEE780BE7D
:011198000056
:1005F700C5F0F8A3E028F0C5F0F8E582158270028F
:060607001583E038F0222B
:10060D0075F008758200EF2FFFEE33FECD33CDCCA4
:10061D0033CCC58233C5829BED9AEC99E582984027
:10062D000CF582EE9BFEED9AFDEC99FC0FD5F0D604
:10063D00E4CEFBE4CDFAE4CCF9A88222B800C1B92E
:10064D000059BA002DEC8BF084CFCECDFCE5F0CB6C
:10065D00F97818EF2FFFEE33FEED33FDEC33FCEBA5
:10066D0033FB10D703994004EB99FB0FD8E5E4F960
:10067D00FA227818EF2FFFEE33FEED33FDEC33FC4D
:10068D00C933C910D7059BE99A4007EC9BFCE99A41
:10069D00F90FD8E0E4C9FAE4CCFB2275F010EF2F86
:1006AD00FFEE33FEED33FDCC33CCC833C810D70786
:1006BD009BEC9AE899400AED9BFDEC9AFCE899F8C1
:0E06CD000FD5F0DAE4CDFBE4CCFAE4C8F92254
:00000001FF
