:1005D700464F5257415244004241434B004C454617
:1005E700540052494748540053544F500052454411
:0805F700554345004144440056
:1006700012000E9000307425F0A37480F0A3740172
:0F068000F0FBE4FDFF120243D2AC12014780FBF6
:1001470020000302024290003074FFF0A37405F010
:10015700A374D7F07B017A007903120338E94A4B7D
:10016700600612001A02023590003074FFF0A37483
:1001770005F0A374DFF07B017A007903120338E9F5
:100187004A4B60061206BE02023590003074FFF03B
:10019700A37405F0A374E4F07B017A0079031203DA
:1001A70038E94A4B60061206C702023590003074E0
:1001B700FFF0A37405F0A374E9F07B017A007903DB
:1001C700120338E94A4B60051206D080619000306F
:1001D70074FFF0A37405F0A374EFF07B017A007944
:1001E70003120338E94A4B60051206D98040900094
:1001F7003074FFF0A37405F0A374F4F07B017A0068
:100207007903120338E94A4B60051206E2801F9012
:10021700003074FFF0A37405F0A374FBF07B017A40
:10022700007903120338E94A4B6003120003C20046
:0C0237007B017A007903E4FF1205FF222E
:0C064F004100415041003F0041004000CC
:10068F00538E7F5389F0438901758A33758CFEC26F
:08069F008DD28CD2A9D2AF224A
:08000300900041E0240AF02204
:0806E200900041E024F6F02233
:0C000E0012068FC292C293C294C29522C7
:09001A00D292C293D294C2952245
:0906BE00C292D293C294D295229B
:0906C700C292D293D294C2952292
:0906D000D292C293C294D2952289
:0906D900C292C293C294C29522A0
:03000B00020505E6
:0F050500C0E0C0F0C083C082C0D075D000C00776
:10051400758A33758CFE90003FE004F0E075F0C8F6
:1005240084AFF0EFF0900041E0D39F4006D297D221
:10053400968004C297C296900040E004F0E075F003
:100544002884AFF0EFF0900042E0D39F4004D2A69D
:040554008002C2A6B9
:0D055800D007D0D0D082D083D0F0D0E032D8
:04065B004100420018
:10065F0041001700C10041001800C1014100000016
:1002430090002EEDF0A3EBF0EF1470030202D8043C
:10025300600302033775985053877F900032E06440
:1002630001702F438E40538EFE53890F4389209094
:100273000030E0FEA3E0FBAA06E4F9F8FF7E467D2A
:1002830005FC1205651200558F8D8F8BC2ABD28E84
:10029300802A900032E07024900030E0FEA3E0FB5F
:1002A300AA06E4F9F8FF7E467D05FC1205651200F7
:1002B300558F9C438E04438E01438E1090002EE095
:1002C3007072A3E06401706C53B1FE53B2FE53B17C
:1002D300FD53B2FD22538EF7900030E0FEA3E0FB06
:1002E300AA06E4F9F8FF7E467D05FC1205651200B7
:1002F300558F9C759A50438E04438E1090002EE0C8
:10030300FF64027015A3E0B403105391BF5392BF6F
:1003130053917F53927F53A2EF22EFB404169000C0
:100323002FE0B4050F53B3BF53B4BF53B37F53B4DC
:050333007F43A210222F
:0F05A900A3E475F00112003FA9F0FA120026FD3D
:1005B800EF14600E0470178D99E59830E1FB53989D
:0F05C800FD22AF058F9BE59A30E1FB539AFD2290
:1005FF0090002DEBF0A3EAF0A3E9F0AE0790002DE9
:10060F00E0FBA3E0FAA3E0F9120026600AAF069020
:08061F00002D1205A980E6225E
:1006270090003AEBF0A3EAF0A3E9F0AE0790003DA3
:1006370074FFF5F012003F45F0600CAF0690003AEA
:08064700E0FB1205A980E62288
:1006A700AE07EEB40A077D0DE4FF1205B8AD06E408
:0706B700FF1205B8AF062297
:0300230002048351
:0F048300C0E0C083C082C0D075D000C006C007E3
:10049200E59830E0615398FE900001E599F0E06440
:1004A200236019E0FF04F0900017E0FE04F07419D5
:1004B2002EF582E43400F583EFF0803A900000E4F8
:1004C200F0900017E0FF900000E0FEC39F50207400
:1004D200192EF582E43400F583E0FF74032EF582D1
:1004E200E43400F583EFF0900000E004F080D29055
:0604F2000017E4F0D20047
:0D04F800D007D006D0D0D082D083D0E03223
:030000000203F701
:0C03F700787FE4F6D8FD75812002043EFA
:10002600BB010689828A83E0225002E722BBFE02D8
:09003600E32289828A83E493220B
:10003F00A3F8E0C5F025F0F0E58215827002158374
:06004F00E0C838F0E822D1
:10056500C2D5E830E70FB2D5E4C39BFBE49AFAE4C1
:1005750099F9E498F8EC30E717B2D512059B12000B
:10058500B5E4C39BFBE49AFAE499F9E498F880038F
:100595001200B530D50DE4C39FFFE49EFEE49DFD3A
:0405A500E49CFC22B4
:0E005500C3E49FFFE49EFEE49DFDE49CFC22BC
:1003380090002DEBF0A3EAF0A3E9F0A3E0FBA3E023
:10034800FAA3E0F912002670030203E490002DE0FE
:10035800FBA3E0FAA3E0F912002670030203F09071
:100368000030E0F9A3E0FAA3E0A3C9F0A3EAF0A300
:10037800E9F090002DA3E0FAA3E0F9900036EBF045
:10038800A3EAF0A3E9F0900033E0FBA3E0FAA3E0CE
:10039800F9120026FF6026900036E0FBA3E0FAA3DE
:1003A800E0F91200266F701590003475F001120004
:1003B80063900037E475F00112006380C990003340
:1003C800E0FBA3E0FAA3E0F91200267002800D908A
:1003D800002EE475F00112006302035490002DE032
:0F03E800FBA3E0FAA3E0F9227B007A0079002260
:10040300020670E493A3F8E493A34003F68001F299
:1004130008DFF48029E493A3F85407240CC8C333FA
:10042300C4540F4420C8834004F456800146F6DFC9
:10043300E4800B010204081020408090064FE47E04
:10044300019360BCA3FF543F30E509541FFEE493BE
:10045300A360010ECF54C025E060A840B8E493A385
:10046300FAE493A3F8E493A3C8C582C8CAC583CAB0
:10047300F0A3C8C582C8CAC583CADFE9DEE780BE68
:01066F00008A
:10006300C5F0F8A3E028F0C5F0F8E5821582700228
:060073001583E038F022C5
:1000790075F008758200EF2FFFEE33FECD33CDCC3E
:1000890033CCC58233C5829BED9AEC99E5829840C1
:100099000CF582EE9BFEED9AFDEC99FC0FD5F0D69E
:1000A900E4CEFBE4CDFAE4CCF9A88222B800C1B9C8
:1000B9000059BA002DEC8BF084CFCECDFCE5F0CB06
:1000C900F97818EF2FFFEE33FEED33FDEC33FCEB3F
:1000D90033FB10D703994004EB99FB0FD8E5E4F9FA
:1000E900FA227818EF2FFFEE33FEED33FDEC33FCE7
:1000F900C933C910D7059BE99A4007EC9BFCE99ADB
:10010900F90FD8E0E4C9FAE4CCFB2275F010EF2F1F
:10011900FFEE33FEED33FDCC33CCC833C810D7071F
:100129009BEC9AE899400AED9BFDEC9AFCE899F85A
:0E0139000FD5F0DAE4CDFBE4CCFAE4C8F922ED
:00000001FF
