:0B2780001220A31227CD121A5B80F874
:101E5E0057726F6E6720506F736974696F6E2100D1
:101E6E002552480054656D70483A0054656D704CAB
:101E7E003A0054656D702048756D69205465737411
:101E8E00210054656D70205761726E696E67202156
:101E9E000054656D7020416C657274205365742119
:101EAE00004552524F522021005761726E696E6783
:101EBE002E2E2E21212100486967682054656D70F1
:101ECE0020212121004C6F772054656D7020202138
:031EDE00212100BF
:08256A004101A6004101AB0094
:1020A3009001987425F0A37480F0E4A3F07B01FD04
:1020B300FF1215B51226751226BB1216AD12254452
:1020C3007B017A0179B0900199E4F0A37402F0E402
:1020D300FF121B949001B0E0FFD3947D5011A3E055
:1020E300FEC394C97480947F4005EFD39E500A9039
:0A20F30001B0741EF0A3740AF0227D
:10131500900195EFF030E00302148AE0FFD39406C4
:10132500400302148AEFC39400500302148AE0FDBF
:101335007B0B7F01121CC0900195E0FD7B0C7F109B
:10134500121CC0900195E004FD9001A27402F07B8F
:101355003A7F2012178D900195E0FD7B0E7F5C1280
:101365001CC012275A1223949001A7121149E4FFB9
:10137500FEFDFC9001A7E0F8A3E0F9A3E0FAA3E0E5
:10138500FB120DA4900195E0400302141804FD9092
:1013950001A27402F07B2E7F4A12178D900195E011
:1013A500FD9001A27410F07B2D7F2B12178D9001FB
:1013B500A7E0FCA3E0FDA3E0FEA3E0FF120E5BABFC
:1013C50007AA0690019A7403F0A37410F090019592
:1013D500E0FD7F3112185B7F007E407D1C7C4690CE
:1013E50001A7E0F8A3E0F9A3E0FAA3E0FB120BFEE6
:1013F500120E5BE47B107A27F9F812107490019AAB
:101405007402F0A37410F0900195E0FD7F5212185C
:101415005B800F04FD9001A27402F07B2E7F4012C9
:10142500178D9001A7E0FCA3E0FDA3E0FEA3E0FF7C
:10143500120E5BAB07AA0690019A7403F0A3741011
:10144500F0900195E0FD7F2712185B7F007E407DBF
:101455001C7C469001A7E0F8A3E0F9A3E0FAA3E01D
:10146500FB120BFE120E5BE47B107A27F9F81210C3
:101475007490019A7402F0A37410F0900195E0FD48
:101485007F4802185B7BFF7A1E795E90019B741082
:09149500F0E4FD7F011220432266
:101186009001987401F0A37401F0A374AFF0A374F6
:1011960001F0A37401F0A374ACF0A37401F0A3747E
:1011A60001F0A374AEF07B017A0179AD12191690A5
:1011B60001ADE0FF75F00A120EDC2430FB9001A2AF
:1011C6007410F07D067F2F12178D9001ADE0FF752C
:1011D600F00A120EDCAFF0EF2430FB9001A274107F
:1011E600F07D067F3712178D9001AFE0FF75F00A8C
:1011F600120EDC2430FB9001A27410F07D067F48AD
:1012060012178D9001AFE0FF75F00A120EDCAFF0F9
:10121600EF2430FB9001A27410F07D067F50121768
:101226008D7B0B7D067F01121CC07B0C7D067F101B
:10123600121CC09001A27402F07B3A7D077F201237
:10124600178D9001A27402F07B2E7D077F40121746
:101256008D7B0E7D067F5C121CC09001ACE0FF7595
:10126600F00A120EDC2430FB9001A27410F07D040B
:101276007F2F12178D9001ACE0FF75F00A120EDC7D
:10128600AFF0EF2430FB9001A27410F07D047F379D
:1012960012178D9001AEE0FF75F00A120EDC2430B5
:1012A600FB9001A27410F07D047F4812178D900107
:1012B600AEE0FF75F00A120EDCAFF0EF2430FB90C3
:1012C60001A27410F07D047F5012178D7B0D7D04F2
:1012D6007F01121CC07B0C7D047F10121CC0900184
:1012E600A27402F07B3A7D057F2012178D9001A231
:1012F6007402F07B2E7D057F4012178D7BFF7A1ED0
:0F130600796E90019B7410F07D047F5C02204390
:101DD8007BFF7A1E797290019B7410F07D027F015F
:101DE8001220437BFF7A1E797990019B7410F07D55
:101DF800047F011220439001B0E0FB7A0090019A21
:101E08007403F0A37410F07D027F3812185B900100
:101E1800A27410F07B2B7D027F3212178D9001A2E5
:101E28007410F07B2D7D047F3212178D9001B1E084
:101E3800FB7A0090019A7403F0A37410F07D047F7C
:101E48003812185B7B0E7D027F5C121CC07B0E7DF6
:061E5800047F5C021CC0C7
:101F63009001ABE06076B404119001B0E004F0E0BE
:101F7300D3947D4053747DF0804E9001ABE0FFB469
:101F830005169001B0E014F0A3E0FE9001B0E0D399
:101F93009E5035E004F08030EFB406169001B1E0B6
:101FA30004F09001B0E0FFA3E0C39F401BE014F0F6
:101FB30080169001ABE0B4070F9001B1E014F0E09C
:101FC300D3940050037437F07B017A0179B0900108
:0D1FD300997402F0E4FF121FF4121DD822D1
:0927CD001227E79001ABEFF022A6
:101AF8009001ABE0B4010A122544E49001A6F080FD
:101B0800229001ABE0B4020B1225449001A67401A7
:101B1800F080109001ABE0B403091225449001A6AF
:101B28007402F09001A6E01460221460352402705B
:101B3800477BFF7A1E798090019B7410F0E4FD7F4B
:101B4800011220437F021213150211867BFF7A1EB1
:101B5800799090019B7410F0E4FD7F0112204302FC
:101B68001DD87BFF7A1E799F90019B7410F0E4FDCD
:101B78007F01122043021F637BFF7A1E79AF900119
:0C1B88009B7410F0E4FD7F01122043224A
:101A5B00121AF89001B0E0FCE4120E279001A7E0F7
:101A6B00F8A3E0F9A3E0FAA3E0FB120DA460254074
:101A7B0023122544E4FF1213157BFF7A1E79B790CE
:101A8B00019B7410F07D027F011220437BFF7A1EB5
:101A9B0079C580449001B1E0FFC3E49FFDE494005D
:101AAB00FC120E229001A7E0F8A3E0F9A3E0FAA341
:101ABB00E0FB120DA45035122544E4FF1213157BE5
:101ACB00FF7A1E79B790019B7410F07D027F011293
:101ADB0020437BFF7A1E79D390019B7410F07D0419
:0D1AEB007F011220437FE87E0312260A22AD
:0A278B0000007F027EDADEFEDFFCB4
:012795002221
:0A27960000007F027E62DEFEDFFC21
:0127A0002216
:1026BB00D2907F75DFFEC2907F147E0012260AD265
:0526CB00907F75DFFEA9
:0126D00022E7
:1026D1002090FD3090FD7F3C7E0012260A30900351
:0626E1007F01227F0022B0
:1025AF00E4FDFC2090FD3090FD122796EC25E0FC19
:0E25BF003090010C2090FD0DEDB408E7AF0444
:0125CD0022EB
:0B191600900195EBF0A3EAF0A3E9F0CC
:101921001226BB3090030219BC3090FDE4FB122556
:10193100AF74A12BF582E43401F583EFF00BEBB426
:1019410005EC9001A2E0FF9001A1E02FFFE433FE3E
:101951009001A3E07C002FFFEC3EFEA3E02FFFEC03
:101961003EFEA3E0B50754ECB506509001A1E0FF9F
:1019710090019BE0FBA3E0FAA3E0F9EF120F449082
:1019810001A2E0FF90019EE0FBA3E0FAA3E0F9EFE2
:10199100120F449001A3E0FF900195E0FBA3E0FA50
:1019A100A3E0F9EF120F449001A4E0FF900198E049
:0B19B100FBA3E0FAA3E0F9EF120F44E3
:0119BC002208
:0A27A10000007F0D7ED3DEFEDFFC9A
:0127AB00220B
:0C277400D291C2911227A1D2910227A19C
:10265D00900199EFF0C291122807900199E024FFA3
:08266D0092911227ACD29122D8
:0523C500900197EFF00C
:1023CA00E4A3F0900198E0FFC39408501DA8077495
:1023DA0001088002C333D8FCFF900197E05FFF1227
:0A23EA00265D900198E004F080D910
:0123F40022C6
:10262800C291122802D291122802A291E433900199
:0A26380099F01227AC900199E0FF21
:012642002275
:1022F300E4900198F0900197F0122628EF6019906E
:102303000198E0FF900197E0FEF87401088002C392
:1023130033D8FC4F900198F0900197E004F0E0C3AC
:09232300940840D5900198E0FFF8
:01232C00228E
:0D275A001227747FCC1223C57F440223C5D3
:102394001227747FCC1223C57FBE1223C51222F3E9
:1023A400900196EFF01222F3EFFE900196E0FDED1E
:1023B400FFAC06EC120E22E4FBFA79807841020DA0
:0123C4000711
:100026000000000000000000002F00000000070094
:10003600070000147F147F1400242A7F2A1200620E
:1000460064081323003649552250000005030000BA
:1000560000001C224100000041221C000014083E42
:1000660008140008083E0808000000A06000000808
:10007600080808080000606000000020100804025C
:10008600003E5149453E0000427F4000004261511A
:100096004946002141454B31001814127F100027B4
:1000A60045454539003C4A49493000017109050377
:1000B60000364949493600064949291E00003636A8
:1000C600000000005636000000081422410000140B
:1000D60014141414000041221408000201510906E8
:1000E60000324959513E007C1211127C007F494969
:1000F6004936003E41414122007F4141221C007F9A
:1001060049494941007F09090901003E4149497AA7
:10011600007F0808087F0000417F41000020404121
:100126003F01007F08142241007F40404040007F8D
:10013600020C027F007F0408107F003E4141413ED1
:10014600007F09090906003E4151215E007F091919
:1001560029460046494949310001017F0101003F16
:100166004040403F001F2040201F003F4038403F96
:1001760000631408146300070870080700615149FA
:10018600454300007F41410000552A552A5500008D
:1001960041417F000004020102040040404040400B
:1001A600000001020400002054545478007F4844A3
:1001B600443800384444442000384444487F0038DA
:1001C6005454541800087E0901020018A4A4A47C03
:1001D600007F080404780000447D400000408084CD
:1001E6007D00007F102844000000417F4000007C15
:1001F60004180478007C0804047800384444443821
:1002060000FC242424180018242418FC007C08046C
:10021600040800485454542000043F444020003C45
:100226004040207C001C2040201C003C4030403CCC
:10023600004428102844001CA0A0A07C004464545C
:100246004C441414141414140000000000000000A0
:100256000000000000000000000000F800000000A0
:10026600000000333000000000100C06100C0600E1
:10027600000000000000000040C07840C078400048
:10028600043F04043F040400007088FC08300000AA
:10029600001820FF211E0000F008F000E018000002
:1002A60000211C031E211E0000F0088870000000BB
:1002B6001E2123241927211010160E00000000000D
:1002C6000000000000000000000000E0180402002A
:1002D600000000071820400000020418E00000009B
:1002E6000040201807000000404080F08040400099
:1002F6000202010F01020200000000F000000000EF
:100306000101011F010101000000000000000000C2
:1003160080B0700000000000000000000000000037
:1003260000010101010101010000000000000000C0
:10033600003030000000000000000000806018045B
:10034600006018060100000000E010080810E00038
:10035600000F102020100F00001010F80000000001
:100366000020203F20200000007008080888700048
:1003760000302824222130000030088888483000C8
:100386000018202020110E000000C02010F80000E8
:1003960000070424243F240000F808888808080081
:1003A6000019212020110E0000E010888818000096
:1003B600000F112020110E0000380808C838080068
:1003C6000000003F000000000070880808887000E8
:1003D600001C222121221C0000E010080810E00069
:1003E6000000312222110F00000000C0C0000000F2
:1003F6000000003030000000000000800000000017
:10040600000080600000000000008040201008000E
:1004160000010204081020004040404040404000D7
:1004260004040404040404000008102040800000B2
:100436000020100804020100007048080808F000B7
:100446000000003036010000C030C828E810E00087
:100456000718272423140B000000C038E000000012
:10046600203C23020227382008F88888887000007C
:10047600203F202020110E00C03008080808380050
:10048600071820202010080008F808080810E000C7
:10049600203F202020100F0008F88888E808100068
:1004A600203F20202320180008F88888E80810003C
:1004B600203F200003000000C03008080838000074
:1004C60007182020221E020008F808000008F80875
:1004D600203F210101213F20000808F808080000FC
:1004E6000020203F2020000000000808F80808002F
:1004F600C08080807F00000008F888C028180800A7
:10050600203F20012638200008F8080000000000DF
:10051600203F20202020300008F8F800F8F80800D6
:10052600203F003F003F200008F830C00008F808D0
:10053600203F200007183F00E01008080810E000E0
:100546000F10202020100F0008F808080808F000F7
:10055600203F210101010000E01008080810E0001A
:100566000F18242438504F0008F8888888887000AF
:10057600203F2000030C302000708808080838004F
:100586000038202121221C00180808F80808180045
:100596000000203F2000000008F808000008F808C6
:1005A600001F202020201F000878880000C8380877
:1005B600000007380E010000F80800F80008F800EF
:1005C600033C0700073C0300081868808068180889
:1005D60020302C03032C30200838C800C838080007
:1005E6000000203F2000000010080808C838080056
:1005F6002038262120201800000000FE02020200FA
:100606000000007F40404000000C30C000000000A9
:10061600000000010638C00000020202FE000000D1
:10062600004040407F000000000004020202040077
:1006360000000000000000000000000000000000B4
:10064600808080808080808000020204000000009C
:100656000000000000000000000080808080000094
:100666000019242222223F2008F800808000000082
:10067600003F112020110E00000000808080000045
:10068600000E112020201100000000808088F80054
:10069600000E112020103F20000080808080000086
:1006A600001F222222221300008080F088888818EA
:1006B6000020203F202000000000808080808000F5
:1006C600006B94949493600008F80080808000008A
:1006D600203F210000203F20008098980000000065
:1006E6000020203F20200000000000809898000095
:1006F60000C08080807F000008F8000080808000B5
:10070600203F24022D302000000808F800000000D9
:100716000020203F20200000808080808080800094
:10072600203F20003F20003F808000808080000026
:10073600203F210000203F200000808080800000B4
:10074600001F202020201F008080008080000000E5
:1007560080FFA12020110E00000000808080800014
:10076600000E112020A0FF80808080008080800005
:1007760020203F2120000100000080808080800032
:100786000033242424241900008080E080800000A7
:100796000000001F202000008080000000808000F4
:1007A600001F202020103F20808080000080808055
:1007B60000010E30080601008080008000808080E5
:1007C6000F300C030C300F0000808000808080000A
:1007D6000020312E0E312000808080000080808035
:1007E60080818E70180601000080808080808000E5
:1007F6000021302C2221300000000000807C020203
:1008060000000000003F404000000000FF00000024
:1008160000000000FF0000000002027C80000000D3
:100826000040403F000000000006010102020404EF
:100836000000000000000000405050FEFEF8FCD40E
:10084600FC7C44FCFC00203F00000000000000008F
:1008560000000000000000000F1F3F31212F2F2550
:10086600252F3F10000000000000000000000000DF
:1008760000000000000000000414D454545454DF57
:1008860054545454D4140400000000000000000026
:10089600000000000000000080601F020202020348
:1008A6000202020203000000000000000000000037
:1008B60000000000000000001060020CC000F88874
:1008C6008888FF8888A81800000000000000000043
:1008D600000000000000000004047C0380601F800C
:1008E600432C102846818000000000000000000014
:1008F60000000000000000001060028C00FE02F202
:1009060002FE00F800FF00000000000000000000EA
:10091600000000000000000004047E018047300F44
:1009260010270047807F0000000000000000000044
:100936000000000000000000003E22E2223E00FE11
:100946002222222222E20200000000000000000013
:100956000000000000000000203F201F1111007F52
:1009660044444444444740000000000000000000A6
:100976000000000000000000040404F484D4A5A6CE
:10098600A4D484F404040400000000000000000065
:10099600000000000000000000FE0202123A1613DA
:1009A600121A3242827E00000000000000000000A1
:1009B6000000000000000000002018C74444444422
:1009C600FC44444444040000000000000000000011
:1009D60000000000000000000404040704040404EE
:1009E600FF040404040404000000000000000000EA
:1009F6000000000000000000000000FE222222226B
:100A060022222222FE00000000000000000000005A
:100A160000000000000000008040300F02020202C9
:100A2600020242827F000000000000000000000079
:100A36000000000000000000000000FE82828282AA
:100A4600828282FE0000000000000000000000001C
:100A56000000000000000000000000FF4040404091
:100A6600404040FF000000000000000000000000C1
:100A7600000000000000000000FC848484FC0010DC
:100A860010101010FF101000000000000000000001
:100A96000000000000000000003F1010103F0000A2
:100AA600010640807F0000000000000000000000FA
:100AB600000000000000000000F8010600F012121D
:100AC60012F2020202FE0000000000000000000018
:100AD600000000000000000000FF0000001F1111D0
:100AE600111F0040807F0000000000000000000091
:100AF60000000000000000001060028C0000FE9262
:100B060092929292FE000000000000000000000099
:100B1600000000000000000004047E01407E424206
:100B26007E427E42427E400000000000000000003F
:100B360000000000000000000000FC242424FC2526
:100B46002624FC24242404000000000000000000E9
:100B5600000000000000000040308F80844C5525C6
:100B66002525554C80808000000000000000000014
:100B760000000000000000001060028C00FE92924F
:100B860092929292FE000000000000000000000019
:100B9600000000000000000004047E014448507F6D
:100BA60040407F5048444000000000000000000024
:100BB6000000000000000000060909E6F80C040227
:100BC60002020202041E00000000000000000000F5
:100BD6000000000000000000000000071F30204059
:100BE60040404040201000000000000000000000CF
:080BF6000000000000000000F7
:10264300EF4E60157D087C07ED1DAA0470011C4A3E
:0926530070F6EF1F70EA1E80E72B
:01265C00225B
:0927D600D2B6D2B7C2B7C2B622D6
:0727EF00D2B6C2B7D2B72237
:0B271F001224FD12272AAF041224FD33
:05272A00D2B6C2B62288
:0724F600AC071227D67F7826
:1024FD00C2B6E4FEAD07ED5480B48004D2B78002BD
:0F250D00C2B7EF25E0FFD2B6C2B60EEEB408E5B6
:01251C00229C
:0E273E001224F612272AE4FF12271F0227EFAB
:0E274C001224F612272A7F4012271F0227EFC1
:10245000E924B0FFE433FEE4FDFC12246BE4FDFC50
:0B246000FFFE12246B7F10E4FDFCFE69
:10246B00AB07AA06ED4C600302274CAF0312273EC5
:01247B00223E
:052423009001E7EFF05D
:10242800E4F9122450E49001E8F09001E7E0FF7E1F
:10243800007D017C0012246BA3E004F0E0C39480CB
:0724480040E809E9B408DBDC
:01244F00226A
:1025CE00D3EF9400EE940040147D657C18ED1D70E1
:0D25DE00011CED4C70F7EF1F70E61E80E34E
:0125EB0022CD
:1026E700EF1FAA0670011E4A600BE4FDEDC3947B41
:0526F70050EE0D80F71C
:0126FC0022BB
:08232D0090019FE0FFA3E0FD19
:10233500A907ED24B0FFE433FEE4FDFC12246BE9AC
:1023450054F0C4540F7E004410FFE4FDFC12246BCE
:0C235500E9540FFF7E00E4FDFC02246B45
:10268D007F8D122467E4FDFC7F14FE12246BE4FDA4
:07269D00FC7FAFFE02246B7D
:1026FD00E4FDFC7F8D122461E4FDFC7FAEFE02241F
:01270D006B60
:10254400E4F9122450E4900195F07D017C00E4FF4D
:10255400FE12246B900195E004F0E0C3948040EAFD
:0525640009E9B408DDE7
:01256900224F
:10251D00E4F9122450E49001EDF07D017C007F017F
:10252D007E0012246B9001EDE004F0E0C394804036
:06253D00E909E9B408DC25
:012543002275
:0B178D009001A0EDF090019FEFF0FD37
:10179800E49001A3F0F9EB24E0F0EDD3947F400A44
:1017A800E490019FF0A3E02402F09001A2E064100D
:1017B800706E12232DE4F99001A3E075F010A429AE
:1017C800F582E435F0F583E582244EF582E583342D
:1017D80002F583E493FF7E007D017C0012246B09EF
:1017E800E9B408D390019FE0FFA3E004FD1223357C
:1017F800E4F99001A3E075F010A429F582E435F02E
:10180800F583E5822456F582E5833402F583E49373
:10181800FF7E007D017C0012246B09E9B408D32205
:1018280012232DE4F99001A3E075F006A42426F50F
:1018380082E5F03400F583E58229F582E43583F505
:1018480083E493FF7E007D017C0012246B09E9B4D8
:0218580006D3B5
:01185A00226B
:0725EC0090019FEFF0A9052B
:1025F3007F017E00AD0119ED600C90019FE0FD7C31
:0626030000120F5680EEEC
:0126090022AE
:0E185B00900196EFF0A3EDF0A3EAF0A3EBF0FE
:10186900E490019EF090019CF090019AE0FF9001B4
:101879009CE0FEC39F4003021915C3EF9E14FD7F30
:101889000A1225EC900198E0FCA3E0FDCFCDCFCE64
:10189900CCCE120F687C007D0A120F6890019DED75
:1018A900F0A3E0703690019AE014FF90019CE0FEED
:1018B900C39F5027A3E0701D90019BE0FCC3138ECA
:1018C900F0A4FF900196E02FFFA3E0FD9001A2ECA8
:1018D900F07B20802B90019E7401F090019BE0FE2B
:1018E900C313FFA3E0FDEF8DF0A4FF900196E02F55
:1018F900FFA3E0FD90019DE02430FB9001A2EEF0F2
:0C19090012178D90019CE004F00218728F
:0119150022AF
:10204300900196EFF0A3EDF0A3EBF0A3EAF0A3E980
:01205300F09C
:10205400E490019CF0900198E0FBA3E0FAA3E0F97E
:1020640090019CE0F582758300120F17FB602F909E
:102074000196E0FFA3E0FD90019BE09001A2F01225
:10208400178D900196E02408F0E0D394784007E49B
:0E209400F0A3E02402F090019CE004F080B77D
:0120A200221B
:0D1CC000900198EBF0900196EFF0A3EDF08D
:101CCD00E4900199F0122335E4F9900198E075F054
:101CDD0040A4243EF582E5F03408F583E58229F52C
:101CED0082E43583F583E493FF7E007D017C001251
:101CFD00246B900199E004F009E9B410CD900196A0
:101D0D00E0FFA3E004FD122335E4F9900198E0759E
:101D1D00F040A4245EF582E5F03408F583E58229D0
:101D2D00F582E43583F583E493FF7E007D017C002D
:0E1D3D0012246B900199E004F009E9B410CD76
:011D4B002275
:0A1C2D009001BEEFF09001C0EBF053
:101C3700E49001C5F0A3F09001C1E0FF54077008DC
:101C4700EF131313541F800A9001C1E013131354A9
:101C57001F049001C8F09001C8EDF09001C1E0FFAA
:101C67009001C8E0FDC39F504F9001BEE0FF1223D3
:101C770035E09001C7F09001C0E0FF9001C7E0C3D5
:101C87009F502D9001C2E0FBA3E0FAA3E0F9A3E483
:101C970075F001120FD385F082F583120F17FF7EBF
:101CA700007D017C0012246B9001C7E004F080C620
:081CB7009001C8E004F080A3D5
:011CBF002202
:1016AD00E4FDFC7FAEFE12245AE4FDFC7F40FE12E9
:1016BD00246BE4FDFC7FB0FE12246BE4FDFC7F8106
:1016CD00FE12246BE4FDFC7FFFFE12246BE4FDFC97
:1016DD007FA1FE12246BE4FDFC7FA6FE12246BE4B9
:1016ED00FDFC7FA8FE12246BE4FDFC7F3FFE12245F
:1016FD006BE4FDFC7FC8FE12246BE4FDFC7FD3FE82
:10170D0012246BE4FDFCFFFE12246BE4FDFC7FD57F
:10171D00FE12246BE4FDFC7F80FE12246BE4FDFCC5
:10172D007FD8FE12246BE4FDFC7F05FE12246BE4D2
:10173D00FDFC7FD9FE12246BE4FDFC7FF1FE12242B
:10174D006BE4FDFC7FDAFE12246BE4FDFC7F12FEE0
:10175D0012246BE4FDFC7FDBFE12246BE4FDFC7FA9
:10176D0030FE12246BE4FDFC7F8DFE12246BE4FD34
:10177D00FC7F14FE12246BE4FDFC7FAFFE02246B94
:102361009001E9EFF0A3EDF012000E7FAE1222B85A
:1023710012258D9001E9E0FF1222B812258D9001FE
:10238100EAE0FF1222B812258D12272F7F057E0069
:0323910002260A17
:101FE0009001C9E0FFA3E0FBA3E0FAA3E0F99001B0
:041FF000997408F0E8
:101FF400900195EFF0A3EBF0A3EAF0A3E9F012004F
:102004000E7FAE1222B812258D900195E0801D90AE
:102014000199E0FF14F0EF601C900196E0FBA3E44B
:1020240075F001120FD3A9F0FA120EFEFF1222B8B6
:0F20340012258D80DA12272F7F057E0002260AE3
:10149E009001CAEBF0A3EAF0A3E9F09001C9EFF0D6
:1014AE00E49001CEF0A3F0A3F0EF5407FEC374084E
:1014BE009EF09001CDE0FF131313541FA3F0EF54D1
:1014CE0007A3F0AF06EF70359001CEE070028033C7
:1014DE009001CEE0FF14F0EF6016121FE09001C9EC
:1014EE00E02408F09001CBE475F008120FBD80E007
:1014FE009001CFE0FE70030215B402159E9001CE4E
:10150E00E070189001C9E0FFA3E0FBA3E0FAA3E0AE
:10151E00F99001CFE09001990215B09001CDE0FF56
:10152E009001D0E0FEC3EF9E9001CDF0E0FF1313CB
:10153E0013541FA3F0EF5407A3F0EE602C9001C9D3
:10154E00E0FFA3E0FBA3E0FAA3E0F99001D0E09066
:10155E000199F0121FF49001D0E0FF9001C9E02F25
:10156E00F09001CBE48FF0801B9001CEE0FF14F0E1
:10157E00EF6016121FE09001C9E02408F09001CB35
:10158E00E475F008120FBD80E09001CFE0FE60160A
:10159E009001C9E0FFA3E0FBA3E0FAA3E0F99001FC
:0615AE0099EEF0121FF49B
:0115B4002214
:052279009001EBEFF005
:10227E00E4A3F012000E7FAE1222B812258D90014B
:10228E00EBE0FF1222B812258D12000E7FAF122244
:10229E00B812258D1221A89001ECEFF07F011227C4
:0922AE006712272F9001ECE0FFFC
:0122B7002204
:0E1B9400900195EFF0A3EBF0A3EAF0A3E9F0C7
:101BA200E490019BF0A3F012000E7FAE1222B81255
:101BB200258D900195E0FF1222B812258D12000E9C
:101BC2007FAF1222B812258DE490019BF0A3F09012
:101BD2000199E0FEA3E0FFD390019CE09F90019B5E
:101BE200E09E50441221A8900196E0FBA3E475F018
:101BF20001120FD3A9F0FAEF120F4490019BE0FEFD
:101C0200A3E0FF900199E0B50609A3E0B507047FC0
:101C1200018002E4FF12276790019CE004F070AF9C
:0B1C220090019BE004F080A702272F38
:08000300EF24FF92A10228077F
:0827DF00EF24FF92A00228077D
:10270E00A2A0E43390019FF012280790019FE0FFF2
:01271E002298
:10000E007F011227DF7F01120003E4FF1227DFE4D6
:04001E00FF020003DA
:0F272F00E4FF1227DF7F011200037F010227DF83
:0522B80090019DEFF014
:1022BD00E4A3F0F090019EE0FFC394085027A80717
:1022CD007480088002C313D8FCFF90019DE05FFF6E
:1022DD001227DF7F01120003E4FF12000390019E1D
:0522ED00E004F080CFC9
:0122F20022C9
:1021A800E490019DF0A3F07F011227DFE490019DE8
:1021B800F07F0112000312270EEF601990019EE0D4
:1021C800FF90019DE0FEF87480088002C313D8FCDC
:1021D8004F90019EF0E4FF12000390019DE004F08F
:0B21E800E0C3940840CB90019EE0FF94
:0121F30022C9
:0D2767001227DF7F01120003E4FF020003D0
:10258D00E490019DF07F011227DF7F0112000312FD
:10259D00270E90019DEFF0E4FF12000390019DE0E6
:0125AD00FF2E
:0125AE00220A
:0A2572004201D500004201D3000031
:10267500538E7F5389F0438901758A66758CFCC238
:082685008DD28CD2AFD2A92244
:0727E7009001D7E0FFE4F0D0
:0127EE0022C8
:10247C00E4FF2080010F2081027F022082027F0373
:10248C002083027F042084027F052085027F0620A2
:09249C0086027F072087027F08F9
:0124A5002214
:1019BD009001D1E0A3F012247C9001D1EFF0A3E0CF
:1019CD00FFB4010B9001D1E070059001D704F0EF49
:1019DD00B4020C9001D1E070069001D77402F09022
:1019ED0001D2E0B4030C9001D1E070069001D774E0
:1019FD0003F09001D2E0FFB4040C9001D1E0700629
:101A0D009001D77404F0EFB4050C9001D1E070068D
:101A1D009001D77405F09001D2E0B4060C9001D17D
:101A2D00E070069001D77406F09001D2E0FFB40784
:101A3D000C9001D1E070069001D77407F0EFB40857
:0D1A4D000C9001D1E070069001D77408F0F4
:011A5A002269
:03000B0002223896
:0D223800C0E0C083C082C0D075D000C007D8
:10224500758A66758CFC9001D4E004F070069001E7
:10225500D3E004F09001D3E07004A3E064147009A6
:092265009001D3F0A3F01219BDA1
:0B226E00D007D0D0D082D083D0E03267
:10257C004100CB00C1004100CC00C1014100000072
:1015B500900196EDF0A3EBF0EF14700302164C04C6
:1015C50060030216AC75985053877F90019AE064CA
:1015D500017030438E40538EFE53890F438920900E
:1015E5000198E0FEA3E0FBAA06E4F9F87FB07E715E
:1015F5007D0BFC1221F41211068F8D8F8BC2ABD29D
:101605008E802B90019AE07025900198E0FEA3E072
:10161500FBAA06E4F9F87FB07E717D0BFC1221F47C
:101625001211068F9C438E04438E01438E10900148
:1016350096E07073A3E06401706D53B1FE53B2FE82
:1016450053B1FD53B2FD22538EF7900198E0FEA3EE
:10165500E0FBAA06E4F9F87FB07E717D0BFC122150
:10166500F41211068F9C759A50438E04438E109088
:101675000196E0FF64027015A3E0B403105391BF17
:101685005392BF53917F53927F53A2EF22EFB4043D
:1016950016900197E0B4050F53B3BF53B4BF53B3CE
:0816A5007F53B47F43A2102221
:0F23F500A3E475F001120FD3A9F0FA120EFEFD4A
:10240400EF14600E0470178D99E59830E1FB539832
:0F241400FD22AF058F9BE59A30E1FB539AFD2225
:1024A6009001E4EBF0A3EAF0A3E9F0AE079001E4B3
:1024B600E0FBA3E0FAA3E0F9120EFE600AAF069075
:0824C60001E41223F580E62277
:1024CE009001D9EBF0A3EAF0A3E9F0AE079001DC9E
:1024DE0074FFF5F0120FD345F0600CAF069001D9E2
:0824EE00E0FB1223F580E62259
:062154009001B2121149D6
:10215A009001BA121155000000019001B674FF12E5
:10216A001116EC4D4E4F60279001BAE0FCA3E0FD3A
:10217A00A3E0FEA3E0FF9001B2E0F8A3E0F9A3E038
:10218A00FAA3E0FB120FE99001BA12114980CB9031
:0D219A0001BAE0FCA3E0FDA3E0FEA3E0FF1E
:0121A7002215
:1020FD009001DEEFF09001E3E0FF14F0EF6047E0B8
:10210D00FFE4FCFDFE9001B61211497F0A7E007DB1
:10211D00007C00122154A804A905AA06AB07900162
:10212D00DFE0FCA3E0FDA3E0FEA3E0FF121074E4EA
:10213D007B0AFAF9F8121074EB2430FD9001DEE001
:07214D00FF12240480AF2201
:1026A400AE07EEB40A077D0DE4FF122404AD06E480
:0726B400FF122404AF06220F
:03002300021EE1D9
:0F1EE100C0E0C083C082C0D075D000C006C0076B
:101EF000E59830E0615398FE900001E599F0E064C8
:101F0000236019E0FF04F09000CBE0FE04F074CDF4
:101F10002EF582E43400F583EFF0803A900000E47F
:101F2000F09000CBE0FF900000E0FEC39F502074D3
:101F3000CD2EF582E43400F583E0FF74032EF582A4
:101F4000E43400F583EFF0900000E004F080D290DC
:061F500000CBE4F0D2001A
:0D1F5600D007D006D0D0D082D083D0E032AA
:0427FD007F03DFFE79
:0128010022B4
:042802007F1BDFFE5B
:0128060022AF
:042807007F39DFFE38
:01280B0022AA
:0627F60000007F26DFFE5B
:0127FC0022BA
:0A27AC0000007F027E26DEFEDFFC47
:0127B6002200
:0A27B70000007F037E51DEFEDFFC10
:0127C10022F5
:0A27C20000007F187E54DEFEDFFCED
:0127CC0022EA
:10260A00AD07AC06C3ED9401EC940050047C007D48
:0E261A00011227C2ED1D70011C144C70F42239
:100BFE00EC4D6011E8497017ED33EC3304600DE4F1
:100C0E00FCFFFEFD22E933E8330470F8020EC71232
:100C1E000E9258046009E4CC248150062850090233
:100C2E000ED1284003020ECEC0E0EB4A7044B980CC
:100C3E0006D0E0FB020EBDEF4E701CBD8008EBFF30
:100C4E00EAFEE9FD80EBE98DF0A4FEE5F0020CE78B
:100C5E00E9CDF9EAFEEBFFEF89F0A4FCE5F0CE89D1
:100C6E00F0A42EFFE435F0CD89F0A42DFEE435F08E
:100C7E008067EF4E7005BD80D780C3EF8BF0A4ACBC
:100C8E00F0EE8BF0A42CFCE435F0F8EF8AF0A42CF7
:100C9E00E5F038FCE433CB8DF0A42CFCE5F03BF80A
:100CAE00EE8AF0A42CFCE5F038F8E433CF89F0A4FA
:100CBE002CFCE5F038CF3400CE89F0A42FFFE5F000
:100CCE003EFEE433C98DF0A42EFEE5F039CD8AF058
:100CDE00A42FFFE5F03EFEE43DFD33D0E0FB5007D0
:100CEE000BBB000F020ED1EC2CFCEF33FFEE33FEEC
:060CFE00ED33FD020EA91A
:100D0400020ED1EC5D046005E859047003020EC7BD
:100D1400120E92580460F6EC4860F2EC7004FDFE8A
:100D2400FF22C860DB2481C85009C39860025006C2
:100D3400020ECE9850CAF582E9294B4A7005AB825F
:100D4400020EBD75F0007C1A7880C3EF9BEE9AED1D
:100D540099400DC3EF9BFFEE9AFEED99FDE842F03A
:100D6400DC23ACF0D0E0FFD0E0FED0E0FDAB82208D
:100D7400E7101BEB60BAEC2CFCEF33FFEE33FEED17
:100D840033FD020EA9E803F830E705C0F075F00062
:100D9400EF2FFFEE33FEED33FD40B830E7C280AAFB
:100DA40074F8CC6480CCC86480C8F58204604FC3F6
:100DB400EB9FF5F0EA9E42F0E99D42F0E89C45F095
:100DC400603C501DE5825FFFE582D313CB5BCBF41F
:100DD4002B5582FB50280ABA002409B90020088048
:100DE4001DE5825BFBE582D313CF5FCFF4C3132FE2
:100DF4005582FF50090EBE00050DBD00010CC3EB6A
:100E04009FF5F0EA9E42F0E99D42F0E89C45F060CF
:090E140007CC4820E701B3EC22F1
:100E1D0075F020800E75F010800575F0087D007E50
:100E2D00007F003392D530D503121106EC334010FC
:100E3D00EF33FFEE33FEED33FDEC33FCD5F0ED2259
:0E0E4D00E5F0247EA2D513CC92E7CDCEFF2295
:100E5B00EDD2E7CD33EC3392D524814006E4FFFE8F
:100E6B00FDFC22FCE4CFCECDCC24E0501174FF80EE
:100E7B00EDC3CC13CCCD13CDCE13CECF13CF04708B
:070E8B00F030D5DE02110674
:100E9200E9D2E7C933E833F892D5EDD2E7CD33ECA6
:070EA20033FC5002B2D5221F
:100EA900EC30E7100FBF000C0EBE00080DBD0004AA
:100EB9000BEB6014A2D5EB13FCED92E7FD2274FF56
:100EC900FCFDFEFF22E480F8A2D574FF13FC7D80AF
:030ED900E480EFC3
:03000000021D4C92
:0C1D4C00787FE4F6D8FD758120021D931D
:100EDC00C2D530F707B2D563F0FF05F030E70CB29E
:100EEC00D5F4048463F0FF05F080018430D502F45E
:020EFC000422CE
:100EFE00BB010689828A83E0225002E722BBFE02F2
:090F0E00E32289828A83E4932224
:100F1700BB010CE58229F582E5833AF583E022508F
:100F270006E92582F8E622BBFE06E92582F8E222D9
:0D0F3700E58229F582E5833AF583E49322F3
:100F4400BB010689828A83F0225002F722BBFE018C
:020F5400F32286
:100F5600EF8DF0A4A8F0CF8CF0A428CE8DF0A42EAF
:020F6600FE2269
:100F6800BC000BBE0029EF8DF084FFADF022E4CC6D
:100F7800F875F008EF2FFFEE33FEEC33FCEE9DEC36
:100F8800984005FCEE9DFE0FD5F0E9E4CEFD22ED7C
:100F9800F8F5F0EE8420D21CFEADF075F008EF2FC6
:100FA800FFED33FD4007985006D5F0F222C398FDB7
:050FB8000FD5F0EA2254
:100FBD00C5F0F8A3E028F0C5F0F8E58215827002BF
:060FCD001583E038F0225C
:100FD300A3F8E0C5F025F0F0E582158270021583D1
:060FE300E0C838F0E8222E
:100FE900E88FF0A4CC8BF0A42CFCE98EF0A42CFCA7
:100FF9008AF0EDA42CFCEA8EF0A4CDA8F08BF0A425
:101009002DCC3825F0FDE98FF0A42CCD35F0FCEB83
:101019008EF0A4FEA9F0EB8FF0A4CFC5F02ECD3948
:0F102900FEE43CFCEAA42DCE35F0FDE43CFC22B5
:1010380075F008758200EF2FFFEE33FECD33CDCC6F
:1010480033CCC58233C5829BED9AEC99E5829840F2
:101058000CF582EE9BFEED9AFDEC99FC0FD5F0D6CF
:10106800E4CEFBE4CDFAE4CCF9A88222B800C1B9F9
:101078000059BA002DEC8BF084CFCECDFCE5F0CB37
:10108800F97818EF2FFFEE33FEED33FDEC33FCEB70
:1010980033FB10D703994004EB99FB0FD8E5E4F92B
:1010A800FA227818EF2FFFEE33FEED33FDEC33FC18
:1010B800C933C910D7059BE99A4007EC9BFCE99A0C
:1010C800F90FD8E0E4C9FAE4CCFB2275F010EF2F51
:1010D800FFEE33FEED33FDCC33CCC833C810D70751
:1010E8009BEC9AE899400AED9BFDEC9AFCE899F88C
:0E10F8000FD5F0DAE4CDFBE4CCFAE4C8F9221F
:1021F400C2D5E830E70FB2D5E4C39BFBE49AFAE416
:1022040099F9E498F8EC30E717B2D512222A1210A3
:1022140074E4C39BFBE49AFAE499F9E498F8800324
:1022240012107430D50DE4C39FFFE49EFEE49DFDBF
:04223400E49CFC2208
:0E110600C3E49FFFE49EFEE49DFDE49CFC22FA
:101114007401FF3395E0FEFDFCA3A3A3E0CF2FF001
:10112400E582158270021583E0CE3EF0E5821582D9
:1011340070021583E0CD3DF0E582158270021583BF
:05114400E0CC3CF022AC
:0C114900ECF0A3EDF0A3EEF0A3EFF02219
:10115500A8828583F0D083D08212116C12116C1293
:10116500116C12116CE473E493A3C583C5F0C583B8
:10117500C8C582C8F0A3C583C5F0C583C8C582C8E4
:011185002247
:101D5800022780E493A3F8E493A34003F68001F2FA
:101D680008DFF48029E493A3F85407240CC8C3338C
:101D7800C4540F4420C8834004F456800146F6DF5B
:101D8800E4800B010204081020408090256AE47E5C
:101D9800019360BCA3FF543F30E509541FFEE49350
:101DA800A360010ECF54C025E060A840B8E493A317
:101DB800FAE493A3F8E493A3C8C582C8CAC583CA42
:101DC800F0A3C8C582C8CAC583CADFE9DEE780BEFA
:01258C00004E
:00000001FF
