:10222F0054656D702048756D692054657374210075
:10223F000D0A77643A3E25660A000D0A7764643A00
:10224F003E25640D0A0025640D0A000D0A73643AD9
:0B225F003E2025640D0A0025524800B7
:1022A4009001987425F0A37480F0E4A3F07B01FD01
:1022B400FF121B68122591121C601224967BFF7A70
:1022C40022792F90019A7410F0E4FD7F0112218B82
:0822D400121A1912180C80F80F
:101A19007B0B7D027F01121FF17B0C7D027F10126F
:101A29001FF19001A17402F07B3A7D037F20121D02
:101A3900407B0E7D027F6C121FF1122621122310AA
:101A49009001D51213377BFF7A22793F9001D5E0B7
:101A5900FCA3E0FDA3E0FEA3E0FF90019812133779
:101A69001213F4E4FFFEFDFC9001D5E0F8A3E0F9C0
:101A7900A3E0FAA3E0FB120DA49001A1740250782F
:101A8900F07B2E7D037F4A121D409001A17410F056
:101A99007B2D7D027F2B121D409001D5E0FCA3E038
:101AA900FDA3E0FEA3E0FF120E5BAB07AA069001BF
:101AB900997403F0A37410F07D027F31121E0E7F1A
:101AC900007E407D1C7C469001D5E0F8A3E0F9A397
:101AD900E0FAA3E0FB120BFE120E5BE47B107A27FF
:101AE900F9F81212979001997403F0A37410F07D1C
:101AF900027F52121E0E800AF07B2E7D037F401258
:101B09001D409001D5E0FCA3E0FDA3E0FEA3E0FFAA
:101B1900120E5BAB07AA069001997403F0A3741027
:101B2900F07D027F27121E0E7F007E407D1C7C46C1
:101B39009001D5E0F8A3E0F9A3E0FAA3E0FB120BCA
:101B4900FE120E5BE47B107A27F9F81212979001C6
:0F1B5900997404F0A37410F07D027F48021E0EF1
:10180C007B017A0179D0121EC97BFF7A227949902B
:10181C0001D2E075F00A842430900198F01213F490
:10182C007BFF7A2279559001D2E075F00A84E5F0BD
:10183C002430900198F01213F47BFF7A22795590A2
:10184C0001D3E075F00A842430900198F01213F45F
:10185C007BFF7A2279559001D3E075F00A84E5F08C
:10186C002430900198F01213F47BFF7A22795A906D
:10187C0001D0E075F00A842430900198F01213F432
:10188C007BFF7A2279559001D0E075F00A84E5F05F
:10189C002430900198F01213F47BFF7A2279559042
:1018AC0001D1E075F00A842430900198F01213F401
:1018BC007BFF7A2279559001D1E075F00A84E5F02E
:1018CC002430900198F01213F49001D2E075F00AD4
:1018DC00842430FB9001A17410F07D067F2F121D23
:1018EC00409001D2E075F00A84E5F02430FB9001C1
:1018FC00A17410F07D067F37121D409001D3E07566
:10190C00F00A842430FB9001A17410F07D067F480E
:10191C00121D409001D3E075F00A84E5F02430FBF1
:10192C009001A17410F07D067F50121D407B0B7D41
:10193C00067F01121FF17B0C7D067F10121FF190A8
:10194C0001A17402F07B3A7D077F20121D409001AB
:10195C00A17402F07B2E7D077F40121D407B0E7D13
:10196C00067F5C121FF19001D0E075F00A842430E0
:10197C00FB9001A17410F07D047F2F121D4090018B
:10198C00D0E075F00A84E5F02430FB9001A17410CE
:10199C00F07D047F37121D409001D1E075F00A8470
:1019AC002430FB9001A17410F07D047F48121D407F
:1019BC009001D1E075F00A84E5F02430FB9001A190
:1019CC007410F07D047F50121D407B0D7D047F014F
:1019DC00121FF17B0C7D047F10121FF19001A1747A
:1019EC0002F07B3A7D057F20121D409001A174020C
:1019FC00F07B2E7D057F40121D407BFF7A2279669D
:0D1A0C0090019A7410F07D047F5C02218B24
:0A263A0000007F027EDADEFEDFFC06
:012644002273
:0A26450000007F027E62DEFEDFFC73
:01264F002268
:10259100D2A07F75DFFEC2A07F147E001224F8D284
:0525A100A07F75DFFEC4
:0125A6002212
:1025A70020A0FD30A0FD7F3C7E001224F830A00360
:0625B7007F01227F0022DB
:10000300E4FDFC20A0FD30A0FD122645EC25E0FC1C
:0E00130030A0010C20A0FD0DEDB408E7AF04F5
:0100210022BC
:0B1EC900900195EBF0A3EAF0A3E9F014
:101ED40012259130A003021F5B30A0FD12263AE4C4
:101EE400900198F0120003900195E0FBA3E475F0D3
:101EF40001121245A9F0FAEF1211CC900198E004F6
:101F0400F0E0C3940540DD9001987493F09001983B
:101F1400E014F070F8900195E0FBA3E0FAA3E0F977
:101F240090000112119FFF1211862FFFE433FE90DF
:101F3400000212119F7C002FFFEC3EFE9000031262
:101F4400119F2FFFEC3EFE90000412119FB507076E
:091F5400ECB506037F01227F00B9
:011F5D002261
:0A26500000007F0D7ED3DEFEDFFCEC
:01265A00225D
:0C262E00D2A5C2A5122650D2A50226504B
:10254B00900198EFF0C2A512269D900198E024FF10
:08255B0092A512265BD2A52215
:05234100900196EFF091
:10234600E4A3F0900197E0FFC39408501DA807741A
:1023560001088002C333D8FCFF900196E05FFF12AC
:0A236600254B900197E004F080D9A8
:01237000224A
:10251600C2A5122698D2A5122698A2A5E433900148
:0A25260098F012265B900198E0FF88
:012530002288
:10226A00E4900197F0900196F0122516EF6019900C
:10227A000197E0FF900196E0FEF87401088002C31E
:10228A0033D8FC4F900197F0900196E004F0E0C338
:09229A00940840D5900197E0FF83
:0122A3002218
:0D26210012262E7FCC1223417F440223415C
:1023100012262E7FCC1223417FBE12234112226A45
:10232000900195EFF012226AEFFE900195E0FDED2D
:10233000FFAC06EC120E22E4FBFA79807841020D24
:012340000795
:100026000000000000000000002F00000000070094
:10003600070000147F147F1400242A7F2A1200620E
:1000460064081323003649552250000005030000BA
:1000560000001C224100000041221C000014083E42
:1000660008140008083E0808000000A06000000808
:10007600080808080000606000000020100804025C
:10008600003E5149453E0000427F4000004261511A
:100096004946002141454B31001814127F100027B4
:1000A60045454539003C4A49493000017109050377
:1000B60000364949493600064949291E00003636A8
:1000C600000000005636000000081422410000140B
:1000D60014141414000041221408000201510906E8
:1000E60000324959513E007C1211127C007F494969
:1000F6004936003E41414122007F4141221C007F9A
:1001060049494941007F09090901003E4149497AA7
:10011600007F0808087F0000417F41000020404121
:100126003F01007F08142241007F40404040007F8D
:10013600020C027F007F0408107F003E4141413ED1
:10014600007F09090906003E4151215E007F091919
:1001560029460046494949310001017F0101003F16
:100166004040403F001F2040201F003F4038403F96
:1001760000631408146300070870080700615149FA
:10018600454300007F41410000552A552A5500008D
:1001960041417F000004020102040040404040400B
:1001A600000001020400002054545478007F4844A3
:1001B600443800384444442000384444487F0038DA
:1001C6005454541800087E0901020018A4A4A47C03
:1001D600007F080404780000447D400000408084CD
:1001E6007D00007F102844000000417F4000007C15
:1001F60004180478007C0804047800384444443821
:1002060000FC242424180018242418FC007C08046C
:10021600040800485454542000043F444020003C45
:100226004040207C001C2040201C003C4030403CCC
:10023600004428102844001CA0A0A07C004464545C
:100246004C441414141414140000000000000000A0
:100256000000000000000000000000F800000000A0
:10026600000000333000000000100C06100C0600E1
:10027600000000000000000040C07840C078400048
:10028600043F04043F040400007088FC08300000AA
:10029600001820FF211E0000F008F000E018000002
:1002A60000211C031E211E0000F0088870000000BB
:1002B6001E2123241927211010160E00000000000D
:1002C6000000000000000000000000E0180402002A
:1002D600000000071820400000020418E00000009B
:1002E6000040201807000000404080F08040400099
:1002F6000202010F01020200000000F000000000EF
:100306000101011F010101000000000000000000C2
:1003160080B0700000000000000000000000000037
:1003260000010101010101010000000000000000C0
:10033600003030000000000000000000806018045B
:10034600006018060100000000E010080810E00038
:10035600000F102020100F00001010F80000000001
:100366000020203F20200000007008080888700048
:1003760000302824222130000030088888483000C8
:100386000018202020110E000000C02010F80000E8
:1003960000070424243F240000F808888808080081
:1003A6000019212020110E0000E010888818000096
:1003B600000F112020110E0000380808C838080068
:1003C6000000003F000000000070880808887000E8
:1003D600001C222121221C0000E010080810E00069
:1003E6000000312222110F00000000C0C0000000F2
:1003F6000000003030000000000000800000000017
:10040600000080600000000000008040201008000E
:1004160000010204081020004040404040404000D7
:1004260004040404040404000008102040800000B2
:100436000020100804020100007048080808F000B7
:100446000000003036010000C030C828E810E00087
:100456000718272423140B000000C038E000000012
:10046600203C23020227382008F88888887000007C
:10047600203F202020110E00C03008080808380050
:10048600071820202010080008F808080810E000C7
:10049600203F202020100F0008F88888E808100068
:1004A600203F20202320180008F88888E80810003C
:1004B600203F200003000000C03008080838000074
:1004C60007182020221E020008F808000008F80875
:1004D600203F210101213F20000808F808080000FC
:1004E6000020203F2020000000000808F80808002F
:1004F600C08080807F00000008F888C028180800A7
:10050600203F20012638200008F8080000000000DF
:10051600203F20202020300008F8F800F8F80800D6
:10052600203F003F003F200008F830C00008F808D0
:10053600203F200007183F00E01008080810E000E0
:100546000F10202020100F0008F808080808F000F7
:10055600203F210101010000E01008080810E0001A
:100566000F18242438504F0008F8888888887000AF
:10057600203F2000030C302000708808080838004F
:100586000038202121221C00180808F80808180045
:100596000000203F2000000008F808000008F808C6
:1005A600001F202020201F000878880000C8380877
:1005B600000007380E010000F80800F80008F800EF
:1005C600033C0700073C0300081868808068180889
:1005D60020302C03032C30200838C800C838080007
:1005E6000000203F2000000010080808C838080056
:1005F6002038262120201800000000FE02020200FA
:100606000000007F40404000000C30C000000000A9
:10061600000000010638C00000020202FE000000D1
:10062600004040407F000000000004020202040077
:1006360000000000000000000000000000000000B4
:10064600808080808080808000020204000000009C
:100656000000000000000000000080808080000094
:100666000019242222223F2008F800808000000082
:10067600003F112020110E00000000808080000045
:10068600000E112020201100000000808088F80054
:10069600000E112020103F20000080808080000086
:1006A600001F222222221300008080F088888818EA
:1006B6000020203F202000000000808080808000F5
:1006C600006B94949493600008F80080808000008A
:1006D600203F210000203F20008098980000000065
:1006E6000020203F20200000000000809898000095
:1006F60000C08080807F000008F8000080808000B5
:10070600203F24022D302000000808F800000000D9
:100716000020203F20200000808080808080800094
:10072600203F20003F20003F808000808080000026
:10073600203F210000203F200000808080800000B4
:10074600001F202020201F008080008080000000E5
:1007560080FFA12020110E00000000808080800014
:10076600000E112020A0FF80808080008080800005
:1007760020203F2120000100000080808080800032
:100786000033242424241900008080E080800000A7
:100796000000001F202000008080000000808000F4
:1007A600001F202020103F20808080000080808055
:1007B60000010E30080601008080008000808080E5
:1007C6000F300C030C300F0000808000808080000A
:1007D6000020312E0E312000808080000080808035
:1007E60080818E70180601000080808080808000E5
:1007F6000021302C2221300000000000807C020203
:1008060000000000003F404000000000FF00000024
:1008160000000000FF0000000002027C80000000D3
:100826000040403F000000000006010102020404EF
:100836000000000000000000405050FEFEF8FCD40E
:10084600FC7C44FCFC00203F00000000000000008F
:1008560000000000000000000F1F3F31212F2F2550
:10086600252F3F10000000000000000000000000DF
:1008760000000000000000000414D454545454DF57
:1008860054545454D4140400000000000000000026
:10089600000000000000000080601F020202020348
:1008A6000202020203000000000000000000000037
:1008B60000000000000000001060020CC000F88874
:1008C6008888FF8888A81800000000000000000043
:1008D600000000000000000004047C0380601F800C
:1008E600432C102846818000000000000000000014
:1008F60000000000000000001060028C00FE02F202
:1009060002FE00F800FF00000000000000000000EA
:10091600000000000000000004047E018047300F44
:1009260010270047807F0000000000000000000044
:100936000000000000000000003E22E2223E00FE11
:100946002222222222E20200000000000000000013
:100956000000000000000000203F201F1111007F52
:1009660044444444444740000000000000000000A6
:100976000000000000000000040404F484D4A5A6CE
:10098600A4D484F404040400000000000000000065
:10099600000000000000000000FE0202123A1613DA
:1009A600121A3242827E00000000000000000000A1
:1009B6000000000000000000002018C74444444422
:1009C600FC44444444040000000000000000000011
:1009D60000000000000000000404040704040404EE
:1009E600FF040404040404000000000000000000EA
:1009F6000000000000000000000000FE222222226B
:100A060022222222FE00000000000000000000005A
:100A160000000000000000008040300F02020202C9
:100A2600020242827F000000000000000000000079
:100A36000000000000000000000000FE82828282AA
:100A4600828282FE0000000000000000000000001C
:100A56000000000000000000000000FF4040404091
:100A6600404040FF000000000000000000000000C1
:100A7600000000000000000000FC848484FC0010DC
:100A860010101010FF101000000000000000000001
:100A96000000000000000000003F1010103F0000A2
:100AA600010640807F0000000000000000000000FA
:100AB600000000000000000000F8010600F012121D
:100AC60012F2020202FE0000000000000000000018
:100AD600000000000000000000FF0000001F1111D0
:100AE600111F0040807F0000000000000000000091
:100AF60000000000000000001060028C0000FE9262
:100B060092929292FE000000000000000000000099
:100B1600000000000000000004047E01407E424206
:100B26007E427E42427E400000000000000000003F
:100B360000000000000000000000FC242424FC2526
:100B46002624FC24242404000000000000000000E9
:100B5600000000000000000040308F80844C5525C6
:100B66002525554C80808000000000000000000014
:100B760000000000000000001060028C00FE92924F
:100B860092929292FE000000000000000000000019
:100B9600000000000000000004047E014448507F6D
:100BA60040407F5048444000000000000000000024
:100BB6000000000000000000060909E6F80C040227
:100BC60002020202041E00000000000000000000F5
:100BD6000000000000000000000000071F30204059
:100BE60040404040201000000000000000000000CF
:080BF6000000000000000000F7
:10253100EF4E60157D087C07ED1DAA0470011C4A51
:0925410070F6EF1F70EA1E80E73E
:01254A00226E
:09267C00D2A6D2A7C2A7C2A62271
:07268500D2A6C2A7D2A722D2
:0B25F50012244F122600AF0412244FE6
:05260000D2A6C2A622D3
:07244800AC0712267C7F782F
:10244F00C2A6E4FEAD07ED5480B48004D2A780028B
:0F245F00C2A7EF25E0FFD2A6C2A60EEEB408E595
:01246E00224B
:0E260500122448122600E4FF1225F502268555
:0E2613001224481226007F401225F50226856B
:1023CC00E924B0FFE433FEE4FDFC1223E7E4FDFC5A
:0B23DC00FFFE1223E77F10E4FDFCFE73
:1023E700AB07AA06ED4C6003022613AF03122605BE
:0123F70022C3
:05239F009001E2EFF0E7
:1023A400E4F91223CCE49001E3F09001E2E0FF7E33
:1023B400007D017C001223E7A3E004F0E0C39480D5
:0723C40040E809E9B408DB61
:0123CB0022EF
:1024BC00D3EF9400EE940040147D657C18ED1D70F4
:0D24CC00011CED4C70F7EF1F70E61E80E361
:0124D90022E0
:1025BD00EF1FAA0670011E4A600BE4FDEDC3947B6C
:0525CD0050EE0D80F747
:0125D20022E6
:0822DC0090019EE0FFA3E0FD6C
:1022E400A907ED24B0FFE433FEE4FDFC1223E7E983
:1022F40054F0C4540F7E004410FFE4FDFC1223E7A5
:0C230400E9540FFF7E00E4FDFC0223E71B
:102563007F8D1223E3E4FDFC7F14FE1223E7E4FDD9
:07257300FC7FAFFE0223E72D
:1025D300E4FDFC7F8D1223DDE4FDFC7FAEFE0223D0
:0125E300E710
:10249600E4F91223CCE4900195F07D017C00E4FF81
:1024A600FE1223E7900195E004F0E0C3948040EA31
:0524B60009E9B408DD96
:0124BB0022FE
:10246F00E4F91223CCE49001E4F07D017C007F01BC
:10247F007E001223E79001E4E004F0E0C394804073
:06248F00E909E9B408DCD4
:012495002224
:0B1D400090019FEDF090019EEFF0FD80
:101D4B00E49001A2F0F9EB24E0F0EDD3947F400A8C
:101D5B00E490019EF0A3E02402F09001A1E0641056
:101D6B00706E1222DCE4F99001A2E075F010A42948
:101D7B00F582E435F0F583E582244EF582E5833474
:101D8B0002F583E493FF7E007D017C001223E709BB
:101D9B00E9B408D390019EE0FFA3E004FD1222E416
:101DAB00E4F99001A2E075F010A429F582E435F076
:101DBB00F583E5822456F582E5833402F583E493BB
:101DCB00FF7E007D017C001223E709E9B408D322D2
:101DDB001222DCE4F99001A2E075F006A42426F5AA
:101DEB0082E5F03400F583E58229F582E43583F54D
:101DFB0083E493FF7E007D017C001223E709E9B4A5
:021E0B0006D3FC
:011E0D0022B2
:0724DA0090019EEFF0A9053F
:1024E1007F017E00AD0119ED600C90019EE0FD7C45
:0624F100001211DE80EE76
:0124F70022C2
:0E1E0E00900195EFF0A3EDF0A3EAF0A3EBF046
:101E1C00E490019DF090019BF0900199E0FF9001FE
:101E2C009BE0FEC39F4003021EC8C3EF9E14FD7FC0
:101E3C000A1224DA900197E0FCA3E0FDCFCDCFCEBF
:101E4C00CCCE1211F07C007D0A1211F090019CEDA9
:101E5C00F0A3E07036900199E014FF90019BE0FE36
:101E6C00C39F5027A3E0701D90019AE0FCC3138E12
:101E7C00F0A4FF900195E02FFFA3E0FD9001A1ECF1
:101E8C00F07B20802B90019D7401F090019AE0FE74
:101E9C00C313FFA3E0FDEF8DF0A4FF900195E02F9D
:101EAC00FFA3E0FD90019CE02430FB9001A1EEF03B
:0C1EBC00121D4090019BE004F0021E2566
:011EC80022F7
:10218B00900195EFF0A3EDF0A3EBF0A3EAF0A3E938
:01219B00F053
:10219C00E490019BF0900197E0FBA3E0FAA3E0F937
:1021AC0090019BE0F58275830012119FFB602F90CC
:1021BC000195E0FFA3E0FD90019AE09001A1F012DF
:1021CC001D40900195E02408F0E0D394784007E49A
:0E21DC00F0A3E02402F090019BE004F080B735
:0121EA0022D2
:0D1FF100900197EBF0900195EFF0A3EDF05B
:101FFE00E4900198F01222E4E4F9900197E075F074
:10200E0040A4243EF582E5F03408F583E58229F5F7
:10201E0082E43583F583E493FF7E007D017C00121C
:10202E0023E7900198E004F009E9B410CD900195F2
:10203E00E0FFA3E004FD1222E4E4F9900197E075BD
:10204E00F040A4245EF582E5F03408F583E582299C
:10205E00F582E43583F583E493FF7E007D017C00F9
:0E206E001223E7900198E004F009E9B410CDC8
:01207C002241
:0A1F5E009001C5EFF09001C7EBF011
:101F6800E49001CCF0A3F09001C8E0FF540770089A
:101F7800EF131313541F800A9001C8E0131313546E
:101F88001F049001CFF09001CFEDF09001C8E0FF61
:101F98009001CFE0FDC39F504F9001C5E0FF122292
:101FA800E4E09001CEF09001C7E0FF9001CEE0C3DD
:101FB8009F502D9001C9E0FBA3E0FAA3E0F9A3E448
:101FC80075F00112124585F082F58312119FFF7E8C
:101FD800007D017C001223E79001CEE004F080C66A
:081FE8009001CFE004F080A39A
:011FF00022CE
:101C6000E4FDFC7FAEFE1223D6E4FDFC7F40FE12B5
:101C700023E7E4FDFC7FB0FE1223E7E4FDFC7F8157
:101C8000FE1223E7E4FDFC7FFFFE1223E7E4FDFCE8
:101C90007FA1FE1223E7E4FDFC7FA6FE1223E7E40A
:101CA000FDFC7FA8FE1223E7E4FDFC7F3FFE12232C
:101CB000E7E4FDFC7FC8FE1223E7E4FDFC7FD3FED2
:101CC0001223E7E4FDFCFFFE1223E7E4FDFC7FD5D1
:101CD000FE1223E7E4FDFC7F80FE1223E7E4FDFC17
:101CE0007FD8FE1223E7E4FDFC7F05FE1223E7E424
:101CF000FDFC7FD9FE1223E7E4FDFC7FF1FE1223F9
:101D0000E7E4FDFC7FDAFE1223E7E4FDFC7F12FE30
:101D10001223E7E4FDFC7FDBFE1223E7E4FDFC7FFA
:101D200030FE1223E7E4FDFC7F8DFE1223E7E4FD85
:101D3000FC7F14FE1223E7E4FDFC7FAFFE0223E7E5
:1025E4004100CB00C1094100CC00C10A41000000F8
:101B6800900196EDF0A3EBF0EF147003021BFF0455
:101B78006003021C5F75985053877F90019AE06458
:101B8800017030438E40538EFE53890F4389209055
:101B98000198E0FEA3E0FBAA06E4F9F87FB07E71A5
:101BA8007D0BFC1221EB1213298F8D8F8BC2ABD2C8
:101BB8008E802B90019AE07025900198E0FEA3E0BA
:101BC800FBAA06E4F9F87FB07E717D0BFC1221EBCD
:101BD8001213298F9C438E04438E01438E1090016B
:101BE80096E07073A3E06401706D53B1FE53B2FECA
:101BF80053B1FD53B2FD22538EF7900198E0FEA336
:101C0800E0FBAA06E4F9F87FB07E717D0BFC122197
:101C1800EB1213298F9C759A50438E04438E1090B3
:101C28000196E0FF64027015A3E0B403105391BF5E
:101C38005392BF53917F53927F53A2EF22EFB40484
:101C480016900197E0B4050F53B3BF53B4BF53B315
:081C58007F53B47F43A2102268
:0F237100A3E475F001121245A9F0FA121186FDCE
:10238000EF14600E0470178D99E59830E1FB5398B7
:0F239000FD22AF058F9BE59A30E1FB539AFD22AA
:1023F8009001DFEBF0A3EAF0A3E9F0AE079001DF6C
:10240800E0FBA3E0FAA3E0F9121186600AAF069098
:0824180001DF12237180E622AE
:102420009001DAEBF0A3EAF0A3E9F0AE079001DD4A
:1024300074FFF5F012124545F0600CAF069001DA1A
:08244000E0FB12237180E6228B
:10257A00AE07EEB40A077D0DE4FF122380AD06E430
:07258A00FF122380AF0622BF
:03002300022109AE
:0F210900C0E0C083C082C0D075D000C006C00740
:10211800E59830E0615398FE900001E599F0E0649D
:10212800236019E0FF04F09000CBE0FE04F074CDCA
:102138002EF582E43400F583EFF0803A900000E455
:10214800F09000CBE0FF900000E0FEC39F502074A9
:10215800CD2EF582E43400F583E0FF74032EF5827A
:10216800E43400F583EFF0900000E004F080D290B2
:0621780000CBE4F0D209E7
:0D217E00D007D006D0D0D082D083D0E03280
:042693007F03DFFEE4
:012697002220
:042698007F1BDFFEC7
:01269C00221B
:04269D007F39DFFEA4
:0126A1002216
:06268C0000007F26DFFEC6
:012692002225
:0A265B0000007F027E26DEFEDFFC99
:012665002252
:0A26660000007F037E51DEFEDFFC62
:012670002247
:0A26710000007F187E54DEFEDFFC3F
:01267B00223C
:1024F800AD07AC06C3ED9401EC940050047C007D5C
:0E25080001122671ED1D70011C144C70F4229E
:100BFE00EC4D6011E8497017ED33EC3304600DE4F1
:100C0E00FCFFFEFD22E933E8330470F8020EC71232
:100C1E000E9258046009E4CC248150062850090233
:100C2E000ED1284003020ECEC0E0EB4A7044B980CC
:100C3E0006D0E0FB020EBDEF4E701CBD8008EBFF30
:100C4E00EAFEE9FD80EBE98DF0A4FEE5F0020CE78B
:100C5E00E9CDF9EAFEEBFFEF89F0A4FCE5F0CE89D1
:100C6E00F0A42EFFE435F0CD89F0A42DFEE435F08E
:100C7E008067EF4E7005BD80D780C3EF8BF0A4ACBC
:100C8E00F0EE8BF0A42CFCE435F0F8EF8AF0A42CF7
:100C9E00E5F038FCE433CB8DF0A42CFCE5F03BF80A
:100CAE00EE8AF0A42CFCE5F038F8E433CF89F0A4FA
:100CBE002CFCE5F038CF3400CE89F0A42FFFE5F000
:100CCE003EFEE433C98DF0A42EFEE5F039CD8AF058
:100CDE00A42FFFE5F03EFEE43DFD33D0E0FB5007D0
:100CEE000BBB000F020ED1EC2CFCEF33FFEE33FEEC
:060CFE00ED33FD020EA91A
:100D0400020ED1EC5D046005E859047003020EC7BD
:100D1400120E92580460F6EC4860F2EC7004FDFE8A
:100D2400FF22C860DB2481C85009C39860025006C2
:100D3400020ECE9850CAF582E9294B4A7005AB825F
:100D4400020EBD75F0007C1A7880C3EF9BEE9AED1D
:100D540099400DC3EF9BFFEE9AFEED99FDE842F03A
:100D6400DC23ACF0D0E0FFD0E0FED0E0FDAB82208D
:100D7400E7101BEB60BAEC2CFCEF33FFEE33FEED17
:100D840033FD020EA9E803F830E705C0F075F00062
:100D9400EF2FFFEE33FEED33FD40B830E7C280AAFB
:100DA40074F8CC6480CCC86480C8F58204604FC3F6
:100DB400EB9FF5F0EA9E42F0E99D42F0E89C45F095
:100DC400603C501DE5825FFFE582D313CB5BCBF41F
:100DD4002B5582FB50280ABA002409B90020088048
:100DE4001DE5825BFBE582D313CF5FCFF4C3132FE2
:100DF4005582FF50090EBE00050DBD00010CC3EB6A
:100E04009FF5F0EA9E42F0E99D42F0E89C45F060CF
:090E140007CC4820E701B3EC22F1
:100E1D0075F020800E75F010800575F0087D007E50
:100E2D00007F003392D530D503121329EC334010D7
:100E3D00EF33FFEE33FEED33FDEC33FCD5F0ED2259
:0E0E4D00E5F0247EA2D513CC92E7CDCEFF2295
:100E5B00EDD2E7CD33EC3392D524814006E4FFFE8F
:100E6B00FDFC22FCE4CFCECDCC24E0501174FF80EE
:100E7B00EDC3CC13CCCD13CDCE13CECF13CF04708B
:070E8B00F030D5DE0213294F
:10138900E5082498F582E43401F583E00508229004
:101399000195300703900198E475F0011213430297
:1013A90011862000E97F2ED2008018EF540F249077
:1013B900D43440D4FF30040BEF24BFB41A005003D7
:1013C9002461FFE50960021509050CE50C700205A9
:1013D9000B30070E900195E475F001121343EF02EB
:1013E90011CC02257A7403D2078003E4C207F508F9
:1013F90090019512135AE4F509F50BF50CE509600E
:10140900077F201213CC80F5750AFFC201C200C202
:1014190002C203C205C206C208121398FF700D303A
:1014290007057F001213DDAF0CAE0B22B4255FC296
:10143900D5C204121398FF24D0B40A00501A75F0CB
:101449000A780930D50508B6FF0106C6A426F62094
:10145900D5047002D20380D924CFB41A00EF500406
:10146900C2E5D2040216CFD20180C6D20080C0D212
:101479000280BCD2D580BAD20580B47F201213CCA9
:101489002002077401B5090040F1121389FF1213F4
:10149900CC021406D208D2068095121389FB1213C6
:1014A90089FA121389F94A4B700679CD7A177BFFAD
:1014B90020022EE509602A7E008E827583001211B2
:1014C9009F60060EEE650A70F0C2D5EBC0E0EAC077
:1014D900E0E9C0E0EE121730D0E0F9D0E0FAD0E050
:1014E900FB121186FF60AAEBC0E0EAC0E0E9C0E0A8
:1014F9001213CCD0E02401F9D0E03400FAD0E0FB9B
:10150900E50A0460DCD50AD98087D20280A21217C5
:101519001260F7E50A700104120EDCA90A600DE5F4
:101529000A600914F50A1217BAEF60F3EA30E70204
:10153900F404C3995079EAF4250A0430E701E40474
:10154900F50A800D12171260C1EA050A250A120E62
:10155900DCEA9001C4F030E701E4250A04D50A0465
:1015690020050114121730E4C0E01217BA9001C423
:10157900E0601320E70714F01213B4802204F0D0BE
:10158900E014C0E07F001213B4E50A60071213AB40
:10159900150A800B3005031213ABD0E0021406D0F4
:1015A900E00480C4121712609EE50A04120EDC9052
:1015B90001C4EAF0E50A20050260010424041217B7
:0115C90030F1
:1015CA0074FF04C0E01217BA1213B4E50A20050228
:1015DA0060031213ABD0E0B50AE87F451213BE9040
:1015EA0001C4E07F2B30E7047F2DF404C0E012131E
:1015FA00CCD0E075F00A84C0F01213B5D0E0121313
:10160A00B5021406791080027908C206C208800859
:10161A00D2D5790A8004790AC2D5E50A047002F59E
:10162A000AE4FAFDFEFF121389FC7B08200113125B
:10163A001389FD7B1030000A121389FE121389FFE9
:10164A007B20EC3382D592D55013C3E43000069F39
:10165A00FFE49EFEE42001039DFDE49CFCE4CBF83C
:10166A00C201EC700CCFCECDCCE824F8F870F38030
:10167A0017C3EF33FFEE33FEED33FDEC33FCEB33F0
:10168A00FB994002FB0FD8E9EB300105F8D0E0C422
:10169A0048B201C0E00AEC4D4E4F78207B0070C280
:1016AA00EAB50A0040BCC0E0121732D0F0D0E02000
:1016BA000104C4C0E0C4B201C0F01213B5D0F0D521
:1016CA00F0EB02140612136314A353160E58147483
:1016DA004C14704216124F161A44161A49148943AA
:1016EA00162055154D4615AD4515174717ED5014DB
:1016FA00782D147C2E149F2B148023149D2017D62A
:10170A002A14384800001497E50AB4FF03750A063C
:10171A00121389FC121389FD121389FE121389FF11
:10172A009001BD020F19790AA2D5200314300509C8
:10173A00B910020404B9080104A2D5200602500116
:10174A00042002689202B509005034C0E07F2030BC
:10175A0003197F30A20272067205500F121789C24E
:10176A0002C206C205C2087F30800F300503E9C0F5
:10177A00E01213CC300503D0E0F9D0E0B509CC3043
:10178A0005177F30B9100C1213CC7F583004077F2D
:10179A00788003B908031213CC3002057F2D021397
:1017AA00CC7F202008F87F2B2006F322920280CFDC
:1017BA007F00B40700500B24BDF582E43401F583A1
:1017CA00E0FF22286E756C6C2900D2011213893051
:1017DA0001F8C201780930D50108F60214382D50F3
:1017EA004349581213892403B405004001E49017B1
:1017FA00E8931213BD743A1213BDD2037509040299
:02180A00160EB8
:100E9200E9D2E7C933E833F892D5EDD2E7CD33ECA6
:070EA20033FC5002B2D5221F
:100EA900EC30E7100FBF000C0EBE00080DBD0004AA
:100EB9000BEB6014A2D5EB13FCED92E7FD2274FF56
:100EC900FCFDFEFF22E480F8A2D574FF13FC7D80AF
:030ED900E480EFC3
:100EDC00F920E73624F950037907E4F42402FBE502
:100EEC0082158270021583DBF6E024FB501BE9604F
:100EFC0014E4F0E582158270021583E004F0B40A64
:0D0F0C0008E4F0D9EE7401F00A22C2D522EB
:100F1900ED33EC3392D5FA602AB4FF33EDC2E77BA7
:100F2900FF60067A0F793EE4227A0F794720D504CB
:100F39007A0F7942224E614E002B494E46002D49C7
:100F49004E4600E47A08F0A3DAFC7B00740722C05D
:100F590083C082ECC0E0EDC0E0EEC0E0EFC0E0EAA3
:100F690075F010A4CAABF075F04DA42BFBE435F075
:100F7900FCEA2410FAEB34C5FBEC34D9FCEDC2E7EA
:100F8900FF75F056A4F42411C5F0F434C58FF0A40C
:100F99002AE5F03BE43CF020E714121146D0E0FFCB
:100FA900D0E0FED0E0FDD0E0FC120D078014F4047F
:100FB900121146D0E0FFD0E0FED0E0FDD0E0FC12F7
:100FC9000BFED082D083E0FAEDD2E7CD33EC3324A7
:100FD90082FBE4C3CF33CFCE33CECD33CD33DBF376
:100FE9007B0775F00A846004F0A31B0AE5F0F0A3FF
:100FF9008FF0740AA4FFACF08EF0740AA42CFEAC36
:10100900F050010C8DF0740AA42CFDE435F0F0A326
:05101900DBDE7407227C
:10101E00020EC7E86480F8E933E83360110460F02B
:10102E00ED33EC337009E8FCE9FDEAFEEBFF220438
:10103E0060DED3EB9FEA9EE99DE8C2E78CF0C2F733
:10104E0095F0400CE8CCF8E9CDF9EACEFAEBCFFBFF
:10105E00120E9285D0F05804700320D5B3E80470B8
:10106E00075002B2D5020ED192D5EC0460F7E4CC53
:10107E00C0E0C398F8603B94186008400DD0E0FBC8
:10108E00020EA9E4FBFAC9FC8028E830E406E4C9A4
:10109E00FBE4CAFCE830E305E4C9CACBFCE854071C
:1010AE006010F8C3E913F9EA13FAEB13FBEC13FC27
:1010BE00D8F130F52FC3E49CFCEF9BFFEE9AFEEDCA
:1010CE0099FDD0E0FBEF4E4D4C701222DB03020E69
:1010DE00CEEC2CFCEF33FFEE33FEED33FDED30E7BF
:1010EE00EB020EA9EF2BFFEE3AFEED39FDD0E0FB41
:1010FE0050130BBB0003020ED1ED13FDEE13FEEFEA
:08110E0013FFEC13FC020EA913
:101116003F8000004120000042C80000447A0000E1
:10112600461C400047C35000497424004B18968063
:101136004CBEBC205A0E1BCA6753C21C749DC5AE5A
:10114600FB60065407601C2323121174EB543860AD
:101156000912116012116F120BFEECF8EDF9EEFA9E
:10116600EFCB22EB12116F80F1543803241C90113F
:1011760016FE93FC0EEE93FD0EEE930ECE93FF221B
:0300000002207D5E
:0C207D00787FE4F6D8FD7581210220C4B4
:10118600BB010689828A83E0225002E722BBFE0267
:09119600E32289828A83E493229A
:10119F00BB010CE58229F582E5833AF583E0225005
:1011AF0006E92582F8E622BBFE06E92582F8E2224F
:0D11BF00E58229F582E5833AF583E4932269
:1011CC00BB010689828A83F0225002F722BBFE0102
:0211DC00F322FC
:1011DE00EF8DF0A4A8F0CF8CF0A428CE8DF0A42E25
:0211EE00FE22DF
:1011F000BC000BBE0029EF8DF084FFADF022E4CCE3
:10120000F875F008EF2FFFEE33FEEC33FCEE9DECAB
:10121000984005FCEE9DFE0FD5F0E9E4CEFD22EDF1
:10122000F8F5F0EE8420D21CFEADF075F008EF2F3B
:10123000FFED33FD4007985006D5F0F222C398FD2C
:051240000FD5F0EA22C9
:10124500A3F8E0C5F025F0F0E5821582700215835C
:06125500E0C838F0E822B9
:10125B0075F008758200EF2FFFEE33FECD33CDCC4A
:10126B0033CCC58233C5829BED9AEC99E5829840CD
:10127B000CF582EE9BFEED9AFDEC99FC0FD5F0D6AA
:10128B00E4CEFBE4CDFAE4CCF9A88222B800C1B9D4
:10129B000059BA002DEC8BF084CFCECDFCE5F0CB12
:1012AB00F97818EF2FFFEE33FEED33FDEC33FCEB4B
:1012BB0033FB10D703994004EB99FB0FD8E5E4F906
:1012CB00FA227818EF2FFFEE33FEED33FDEC33FCF3
:1012DB00C933C910D7059BE99A4007EC9BFCE99AE7
:1012EB00F90FD8E0E4C9FAE4CCFB2275F010EF2F2C
:1012FB00FFEE33FEED33FDCC33CCC833C810D7072C
:10130B009BEC9AE899400AED9BFDEC9AFCE899F866
:0E131B000FD5F0DAE4CDFBE4CCFAE4C8F922F9
:1021EB00C2D5E830E70FB2D5E4C39BFBE49AFAE41F
:1021FB0099F9E498F8EC30E717B2D51222211212B4
:10220B0097E4C39BFBE49AFAE499F9E498F880030A
:10221B0012129730D50DE4C39FFFE49EFEE49DFDA3
:04222B00E49CFC2211
:0E132900C3E49FFFE49EFEE49DFDE49CFC22D5
:0C133700ECF0A3EDF0A3EEF0A3EFF02229
:10134300F8E0FBA3A3E0F925F0F0E5821582700233
:071353001583E0FA38F022D7
:09135A00EBF0A3EAF0A3E9F02294
:10136300D083D082F8E4937012740193700DA3A319
:1013730093F8740193F5828883E47374029368602D
:06138300EFA3A3A380DF2D
:102089000222A4E493A3F8E493A34003F68001F2A7
:1020990008DFF48029E493A3F85407240CC8C33358
:1020A900C4540F4420C8834004F456800146F6DF27
:1020B900E4800B01020408102040809025E4E47EAE
:1020C900019360BCA3FF543F30E509541FFEE4931C
:1020D900A360010ECF54C025E060A840B8E493A3E3
:1020E900FAE493A3F8E493A3C8C582C8CAC583CA0E
:1020F900F0A3C8C582C8CAC583CADFE9DEE780BEC6
:0125F40000E6
:00000001FF
