:0C1A7600C10941023200C10A4102000017
:10215C0090023EEDF0A3EBF0EF1470030221F304B8
:10216C00600302225375985053877F900242E064BB
:10217C00017030438E40538EFE53890F438920905B
:10218C000240E0FEA3E0FBAA06E4F9F87FB07E7102
:10219C007D0BFC122D951213618F8D8F8BC2ABD2E0
:1021AC008E802B900242E07025900240E0FEA3E06E
:1021BC00FBAA06E4F9F87FB07E717D0BFC122D951D
:1021CC001213618F9C438E04438E01438E10900238
:1021DC003EE07073A3E06401706D53B1FE53B2FE28
:1021EC0053B1FD53B2FD22538EF7900240E0FEA393
:1021FC00E0FBAA06E4F9F87FB07E717D0BFC122D92
:10220C00951213618F9C759A50438E04438E1090D7
:10221C00023EE0FF64027015A3E0B403105391BFBB
:10222C005392BF53917F53927F53A2EF22EFB4048A
:10223C001690023FE0B4050F53B3BF53B4BF53B372
:08224C007F53B47F43A210226E
:0F2F9600A3E475F00112127DA9F0FA1211A8FD43
:102FA500EF14600E0470178D99E59830E1FB539886
:0F2FB500FD22AF058F9BE59A30E1FB539AFD2279
:1030470090029CEBF0A3EAF0A3E9F0AE0790029C94
:10305700E0FBA3E0FAA3E0F91211A8600AAF06901B
:08306700029C122F9680E62264
:10306F00900297EBF0A3EAF0A3E9F0AE0790029A73
:10307F0074FFF5F012127D45F0600CAF06900297C9
:08308F00E0FB122F9680E622FF
:1031A600AB07AA06EB640A4A70067D0DFF122FA52F
:0C31B600AD03E4FF122FA5AE02AF032210
:0300230002233C79
:10233C00C0E0C083C082C0D075D000C005C006C04C
:01234C000789
:10234D00E59820E0030224125398FEAF9990020005
:10235D00E0FE700AEF64A560030224108078EEB4ED
:10236D00011CEF900200B46A10E004F090020C74AE
:10237D00A5F0A3746AF0022410E4F0022410900278
:10238D0000E0FEB4020904F090020EEFF08074EE4E
:10239D00B40313900200E004F0EFD39420505B904F
:1023AD00020FEFF0805D90020FE024FEFE90020020
:1023BD00E0FDC39E5011740C2DF582E43402F583BB
:1023CD00EFF0900200800FEEB50510900230E4F0B2
:1023DD00A3EFF0900200E004F0802890020FE014CB
:1023ED00FE900200E0B50612EFFE900230E04EF0D6
:1023FD00A3E0F0900200E4F08009900200E4F09078
:05240D00020FF0D209EE
:0F241200D007D006D005D0D0D082D083D0E03212
:043384007F03DFFEE6
:013388002222
:043389007F1BDFFEC9
:01338D00221D
:04338E007F39DFFEA6
:013392002218
:0633760000007F26DFFECF
:01337C00222E
:0A33120000007F027E26DEFEDFFCD5
:01331C00228E
:0A331D0000007F037E51DEFEDFFC9E
:013327002283
:0A33280000007F187E54DEFEDFFC7B
:013332002278
:10314C00AD07AC06C3ED9401EC940050047C007DFB
:0E315C0001123328ED1D70011C144C70F4227A
:0A33330000007F027EDADEFEDFFC00
:01333D00226D
:0A333E0000007F027E62DEFEDFFC6D
:013348002262
:10323E00D2907F75DFFEC2907F147E0012314CD289
:05324E00907F75DFFE1A
:013253002258
:103254002090FD3090FD7F3C7E0012314C30900375
:063264007F01227F002221
:10312D00E4FDFC2090FD3090FD12333EEC25E0FCDB
:0E313D003090010C2090FD0DEDB408E7AF04BA
:01314B002261
:0B268A0090023DEBF0A3EAF0A3E9F0A2
:1026950012323E3090030227303090FDE4FB1231B8
:1026A5002D74492BF582E43402F583EFF00BEBB47E
:1026B50005EC90024AE0FF900249E02FFFE433FE6B
:1026C50090024BE07C002FFFEC3EFEA3E02FFFECD9
:1026D5003EFEA3E0B50754ECB50650900249E0FF75
:1026E500900243E0FBA3E0FAA3E0F9EF1211EE90AC
:1026F500024AE0FF900246E0FBA3E0FAA3E0F9EF0F
:102705001211EE90024BE0FF90023DE0FBA3E0FAD0
:10271500A3E0F9EF1211EE90024CE0FF900240E0C9
:0B272500FBA3E0FAA3E0F9EF1211EEB5
:012730002286
:0A33490000007F0D7ED3DEFEDFFCE6
:013353002257
:0C330600D291C291123349D29102334996
:1031F700900241EFF0C29112338E900241E024FF1A
:083207009291123312D29122C0
:052F660090023FEFF0B6
:102F6B00E4A3F0900240E0FFC39408501DA807743F
:102F7B0001088002C333D8FCFF90023FE05FFF12D1
:0A2F8B0031F7900240E004F080D915
:012F95002219
:1031C200C291123389D291123389A291E4339002CF
:0A31D20041F0123312900241E0FFB9
:0131DC0022D0
:102E9400E4900240F090023FF01231C2EF601990CA
:102EA4000240E0FF90023FE0FEF87401088002C394
:102EB40033D8FC4F900240F090023FE004F0E0C3AE
:092EC400940840D5900240E0FFA3
:012ECD0022E2
:0D32EC001233067FCC122F667F44022F663E
:102F35001233067FCC122F667FBE122F66122E9497
:102F450090023EEFF0122E94EFFE90023EE0FDED72
:102F5500FFAC06EC120E22E4FBFA79807841020DF3
:012F65000764
:100026000000000000000000002F00000000070094
:10003600070000147F147F1400242A7F2A1200620E
:1000460064081323003649552250000005030000BA
:1000560000001C224100000041221C000014083E42
:1000660008140008083E0808000000A06000000808
:10007600080808080000606000000020100804025C
:10008600003E5149453E0000427F4000004261511A
:100096004946002141454B31001814127F100027B4
:1000A60045454539003C4A49493000017109050377
:1000B60000364949493600064949291E00003636A8
:1000C600000000005636000000081422410000140B
:1000D60014141414000041221408000201510906E8
:1000E60000324959513E007C1211127C007F494969
:1000F6004936003E41414122007F4141221C007F9A
:1001060049494941007F09090901003E4149497AA7
:10011600007F0808087F0000417F41000020404121
:100126003F01007F08142241007F40404040007F8D
:10013600020C027F007F0408107F003E4141413ED1
:10014600007F09090906003E4151215E007F091919
:1001560029460046494949310001017F0101003F16
:100166004040403F001F2040201F003F4038403F96
:1001760000631408146300070870080700615149FA
:10018600454300007F41410000552A552A5500008D
:1001960041417F000004020102040040404040400B
:1001A600000001020400002054545478007F4844A3
:1001B600443800384444442000384444487F0038DA
:1001C6005454541800087E0901020018A4A4A47C03
:1001D600007F080404780000447D400000408084CD
:1001E6007D00007F102844000000417F4000007C15
:1001F60004180478007C0804047800384444443821
:1002060000FC242424180018242418FC007C08046C
:10021600040800485454542000043F444020003C45
:100226004040207C001C2040201C003C4030403CCC
:10023600004428102844001CA0A0A07C004464545C
:100246004C441414141414140000000000000000A0
:100256000000000000000000000000F800000000A0
:10026600000000333000000000100C06100C0600E1
:10027600000000000000000040C07840C078400048
:10028600043F04043F040400007088FC08300000AA
:10029600001820FF211E0000F008F000E018000002
:1002A60000211C031E211E0000F0088870000000BB
:1002B6001E2123241927211010160E00000000000D
:1002C6000000000000000000000000E0180402002A
:1002D600000000071820400000020418E00000009B
:1002E6000040201807000000404080F08040400099
:1002F6000202010F01020200000000F000000000EF
:100306000101011F010101000000000000000000C2
:1003160080B0700000000000000000000000000037
:1003260000010101010101010000000000000000C0
:10033600003030000000000000000000806018045B
:10034600006018060100000000E010080810E00038
:10035600000F102020100F00001010F80000000001
:100366000020203F20200000007008080888700048
:1003760000302824222130000030088888483000C8
:100386000018202020110E000000C02010F80000E8
:1003960000070424243F240000F808888808080081
:1003A6000019212020110E0000E010888818000096
:1003B600000F112020110E0000380808C838080068
:1003C6000000003F000000000070880808887000E8
:1003D600001C222121221C0000E010080810E00069
:1003E6000000312222110F00000000C0C0000000F2
:1003F6000000003030000000000000800000000017
:10040600000080600000000000008040201008000E
:1004160000010204081020004040404040404000D7
:1004260004040404040404000008102040800000B2
:100436000020100804020100007048080808F000B7
:100446000000003036010000C030C828E810E00087
:100456000718272423140B000000C038E000000012
:10046600203C23020227382008F88888887000007C
:10047600203F202020110E00C03008080808380050
:10048600071820202010080008F808080810E000C7
:10049600203F202020100F0008F88888E808100068
:1004A600203F20202320180008F88888E80810003C
:1004B600203F200003000000C03008080838000074
:1004C60007182020221E020008F808000008F80875
:1004D600203F210101213F20000808F808080000FC
:1004E6000020203F2020000000000808F80808002F
:1004F600C08080807F00000008F888C028180800A7
:10050600203F20012638200008F8080000000000DF
:10051600203F20202020300008F8F800F8F80800D6
:10052600203F003F003F200008F830C00008F808D0
:10053600203F200007183F00E01008080810E000E0
:100546000F10202020100F0008F808080808F000F7
:10055600203F210101010000E01008080810E0001A
:100566000F18242438504F0008F8888888887000AF
:10057600203F2000030C302000708808080838004F
:100586000038202121221C00180808F80808180045
:100596000000203F2000000008F808000008F808C6
:1005A600001F202020201F000878880000C8380877
:1005B600000007380E010000F80800F80008F800EF
:1005C600033C0700073C0300081868808068180889
:1005D60020302C03032C30200838C800C838080007
:1005E6000000203F2000000010080808C838080056
:1005F6002038262120201800000000FE02020200FA
:100606000000007F40404000000C30C000000000A9
:10061600000000010638C00000020202FE000000D1
:10062600004040407F000000000004020202040077
:1006360000000000000000000000000000000000B4
:10064600808080808080808000020204000000009C
:100656000000000000000000000080808080000094
:100666000019242222223F2008F800808000000082
:10067600003F112020110E00000000808080000045
:10068600000E112020201100000000808088F80054
:10069600000E112020103F20000080808080000086
:1006A600001F222222221300008080F088888818EA
:1006B6000020203F202000000000808080808000F5
:1006C600006B94949493600008F80080808000008A
:1006D600203F210000203F20008098980000000065
:1006E6000020203F20200000000000809898000095
:1006F60000C08080807F000008F8000080808000B5
:10070600203F24022D302000000808F800000000D9
:100716000020203F20200000808080808080800094
:10072600203F20003F20003F808000808080000026
:10073600203F210000203F200000808080800000B4
:10074600001F202020201F008080008080000000E5
:1007560080FFA12020110E00000000808080800014
:10076600000E112020A0FF80808080008080800005
:1007760020203F2120000100000080808080800032
:100786000033242424241900008080E080800000A7
:100796000000001F202000008080000000808000F4
:1007A600001F202020103F20808080000080808055
:1007B60000010E30080601008080008000808080E5
:1007C6000F300C030C300F0000808000808080000A
:1007D6000020312E0E312000808080000080808035
:1007E60080818E70180601000080808080808000E5
:1007F6000021302C2221300000000000807C020203
:1008060000000000003F404000000000FF00000024
:1008160000000000FF0000000002027C80000000D3
:100826000040403F000000000006010102020404EF
:100836000000000000000000405050FEFEF8FCD40E
:10084600FC7C44FCFC00203F00000000000000008F
:1008560000000000000000000F1F3F31212F2F2550
:10086600252F3F10000000000000000000000000DF
:1008760000000000000000000414D454545454DF57
:1008860054545454D4140400000000000000000026
:10089600000000000000000080601F020202020348
:1008A6000202020203000000000000000000000037
:1008B60000000000000000001060020CC000F88874
:1008C6008888FF8888A81800000000000000000043
:1008D600000000000000000004047C0380601F800C
:1008E600432C102846818000000000000000000014
:1008F60000000000000000001060028C00FE02F202
:1009060002FE00F800FF00000000000000000000EA
:10091600000000000000000004047E018047300F44
:1009260010270047807F0000000000000000000044
:100936000000000000000000003E22E2223E00FE11
:100946002222222222E20200000000000000000013
:100956000000000000000000203F201F1111007F52
:1009660044444444444740000000000000000000A6
:100976000000000000000000040404F484D4A5A6CE
:10098600A4D484F404040400000000000000000065
:10099600000000000000000000FE0202123A1613DA
:1009A600121A3242827E00000000000000000000A1
:1009B6000000000000000000002018C74444444422
:1009C600FC44444444040000000000000000000011
:1009D60000000000000000000404040704040404EE
:1009E600FF040404040404000000000000000000EA
:1009F6000000000000000000000000FE222222226B
:100A060022222222FE00000000000000000000005A
:100A160000000000000000008040300F02020202C9
:100A2600020242827F000000000000000000000079
:100A36000000000000000000000000FE82828282AA
:100A4600828282FE0000000000000000000000001C
:100A56000000000000000000000000FF4040404091
:100A6600404040FF000000000000000000000000C1
:100A7600000000000000000000FC848484FC0010DC
:100A860010101010FF101000000000000000000001
:100A96000000000000000000003F1010103F0000A2
:100AA600010640807F0000000000000000000000FA
:100AB600000000000000000000F8010600F012121D
:100AC60012F2020202FE0000000000000000000018
:100AD600000000000000000000FF0000001F1111D0
:100AE600111F0040807F0000000000000000000091
:100AF60000000000000000001060028C0000FE9262
:100B060092929292FE000000000000000000000099
:100B1600000000000000000004047E01407E424206
:100B26007E427E42427E400000000000000000003F
:100B360000000000000000000000FC242424FC2526
:100B46002624FC24242404000000000000000000E9
:100B5600000000000000000040308F80844C5525C6
:100B66002525554C80808000000000000000000014
:100B760000000000000000001060028C00FE92924F
:100B860092929292FE000000000000000000000019
:100B9600000000000000000004047E014448507F6D
:100BA60040407F5048444000000000000000000024
:100BB6000000000000000000060909E6F80C040227
:100BC60002020202041E00000000000000000000F5
:100BD6000000000000000000000000071F30204059
:100BE60040404040201000000000000000000000CF
:080BF6000000000000000000F7
:1031DD00EF4E60157D087C07ED1DAA0470011C4A99
:0931ED0070F6EF1F70EA1E80E786
:0131F60022B6
:09335400D2B6D2B7C2B7C2B6224C
:07337D00D2B6C2B7D2B7229D
:0B32A20012309E1232ADAF0412309EBD
:0532AD00D2B6C2B622FA
:07309700AC071233547F78EF
:10309E00C2B6E4FEAD07ED5480B48004D2B7800210
:0F30AE00C2B7EF25E0FFD2B6C2B60EEEB408E50A
:0130BD0022F0
:0E32D0001230971232ADE4FF1232A202337DAB
:0E32DE001230971232AD7F401232A202337DC1
:102FF100E924B0FFE433FEE4FDFC12300CE4FDFCF7
:0B300100FFFE12300C7F10E4FDFCFE0F
:10300C00AB07AA06ED4C60030232DEAF031232D0DE
:01301C002291
:052FC40090029FEFF0F8
:102FC900E4F9122FF1E49002A0F090029FE0FF7E55
:102FD900007D017C0012300CA3E004F0E0C3948072
:072FE90040E809E9B408DB30
:012FF00022BE
:10316A00D3EF9400EE940040147D657C18ED1D7039
:0D317A00011CED4C70F7EF1F70E61E80E3A6
:013187002225
:10326A00EF1FAA0670011E4A600BE4FDEDC3947BB2
:05327A0050EE0D80F78D
:01327F00222C
:082ECE00900247E0FFA3E0FDC4
:102ED600A907ED24B0FFE433FEE4FDFC12300CE953
:102EE60054F0C4540F7E004410FFE4FDFC12300C75
:0C2EF600E9540FFF7E00E4FDFC02300CEC
:103227007F8D123008E4FDFC7F14FE12300CE4FDA4
:07323700FC7FAFFE02300C2A
:10328000E4FDFC7F8D123002E4FDFC7FAEFE0230D7
:013290000C31
:1030E500E4F9122FF1E490023DF07D017C00E4FF4C
:1030F500FE12300C90023DE004F0E0C3948040EAFB
:0531050009E9B408DD3A
:01310A0022A2
:1030BE00E4F9122FF1E49002A5F07D017C007F016E
:1030CE007E0012300C9002A5E004F0E0C394804024
:0630DE00E909E9B408DC79
:0130E40022C9
:0B250100900248EDF0900247EFF0FD63
:10250C00E490024BF0F9EB24E0F0EDD3947F400A19
:10251C00E4900247F0A3E02402F090024AE0641039
:10252C00706E122ECEE4F990024BE075F010A429D7
:10253C00F582E435F0F583E582244EF582E58334AB
:10254C0002F583E493FF7E007D017C0012300C09C0
:10255C00E9B408D3900247E0FFA3E004FD122ED6A5
:10256C00E4F990024BE075F010A429F582E435F003
:10257C00F583E5822456F582E5833402F583E493F2
:10258C00FF7E007D017C0012300C09E9B408D322D7
:10259C00122ECEE4F990024BE075F006A42426F539
:1025AC0082E5F03400F583E58229F582E43583F584
:1025BC0083E493FF7E007D017C0012300C09E9B4AA
:0225CC0006D334
:0125CE0022EA
:07318800900247EFF0A905DA
:10318F007F017E00AD0119ED600C900247E0FD7CE0
:06319F000012120080EE98
:0131A5002207
:0E25CF0090023EEFF0A3EDF0A3EAF0A3EBF0D4
:1025DD00E4900246F0900244F0900242E0FF900237
:1025ED0044E0FEC39F4003022689C3EF9E14FD7F86
:1025FD000A123188900240E0FCA3E0FDCFCDCFCE92
:10260D00CCCE1212127C007D0A121212900245EDF0
:10261D00F0A3E07036900242E014FF900244E0FE19
:10262D00C39F5027A3E0701D900243E0FCC3138E9F
:10263D00F0A4FF90023EE02FFFA3E0FD90024AECD4
:10264D00F07B20802B9002467401F0900243E0FE57
:10265D00C313FFA3E0FDEF8DF0A4FF90023EE02F2A
:10266D00FFA3E0FD900245E02430FB90024AEEF01E
:0C267D00122501900244E004F00225E662
:01268900222E
:102C350090023EEFF0A3EDF0A3EBF0A3EAF0A3E9D9
:012C4500F09E
:102C4600E4900244F0900240E0FBA3E0FAA3E0F92E
:102C5600900244E0F5827583001211C1FB602F904B
:102C6600023EE0FFA3E0FD900243E090024AF0122C
:102C7600250190023EE02408F0E0D394784007E472
:0E2C8600F0A3E02402F0900244E004F080B7D6
:012C9400221D
:0D2A3400900240EBF090023EEFF0A3EDF0B9
:102A4100E4900241F0122ED6E4F9900240E075F0D4
:102A510040A4243EF582E5F03408F583E58229F5AA
:102A610082E43583F583E493FF7E007D017C0012CF
:102A7100300C900241E004F009E9B410CD90023E1F
:102A8100E0FFA3E004FD122ED6E4F9900240E075C8
:102A9100F040A4245EF582E5F03408F583E582294F
:102AA100F582E43583F583E493FF7E007D017C00AC
:0E2AB10012300C900241E004F009E9B410CD9F
:012ABF0022F4
:0A29A10090027CEFF090027EEBF054
:1029AB00E4900283F0A3F090027FE0FF54077008DD
:1029BB00EF131313541F800A90027FE01313135469
:1029CB001F04900286F0900286EDF090027FE0FFEC
:1029DB00900286E0FDC39F504F90027CE0FF122EC9
:1029EB00D6E0900285F090027EE0FF900285E0C376
:1029FB009F502D900280E0FBA3E0FAA3E0F9A3E443
:102A0B0075F00112127D85F082F5831211C1FF7EE4
:102A1B00007D017C0012300C900285E004F080C632
:082A2B00900286E004F080A394
:012A33002280
:10242100E4FDFC7FAEFE122FFBE4FDFC7F40FE12BB
:10243100300CE4FDFC7FB0FE12300CE4FDFC7F812A
:10244100FE12300CE4FDFC7FFFFE12300CE4FDFCBB
:102451007FA1FE12300CE4FDFC7FA6FE12300CE4DD
:10246100FDFC7FA8FE12300CE4FDFC7F3FFE123024
:102471000CE4FDFC7FC8FE12300CE4FDFC7FD3FEB2
:1024810012300CE4FDFCFFFE12300CE4FDFC7FD5A4
:10249100FE12300CE4FDFC7F80FE12300CE4FDFCEA
:1024A1007FD8FE12300CE4FDFC7F05FE12300CE4F7
:1024B100FDFC7FD9FE12300CE4FDFC7FF1FE1230F1
:1024C1000CE4FDFC7FDAFE12300CE4FDFC7F12FE11
:1024D10012300CE4FDFC7FDBFE12300CE4FDFC7FCE
:1024E10030FE12300CE4FDFC7F8DFE12300CE4FD59
:1024F100FC7F14FE12300CE4FDFC7FAFFE02300CB9
:102F02009002A1EFF0A3EDF012000E7FAE122E5947
:102F120012310B9002A1E0FF122E5912310B9002D6
:102F2200A2E0FF122E5912310B1232B27F057E003F
:032F320002314C1D
:102BD200900287E0FFA3E0FBA3E0FAA3E0F99002F2
:042BE200417408F042
:102BE60090023DEFF0A3EBF0A3EAF0A3E9F01200A8
:102BF6000E7FAE122E5912310B90023DE0801D90D1
:102C06000241E0FF14F0EF601C90023EE0FBA3E4FB
:102C160075F00112127DA9F0FA1211A8FF122E59B1
:0F2C260012310B80DA1232B27F057E0002314C80
:10204500900288EBF0A3EAF0A3E9F0900287EFF0A5
:10205500E490028CF0A3F0A3F0EF5407FEC37408DC
:102065009EF090028BE0FF131313541FA3F0EF545F
:1020750007A3F0AF06EF703590028CE07002803355
:1020850090028CE0FF14F0EF6016122BD2900287BD
:10209500E02408F0900289E475F00812126780E0E8
:1020A50090028DE0FE700302215B02214590028CB7
:1020B500E07018900287E0FFA3E0FBA3E0FAA3E03D
:1020C500F990028DE090024102215790028BE0FFCA
:1020D50090028EE0FEC3EF9E90028BF0E0FF13139B
:1020E50013541FA3F0EF5407A3F0EE602C90028762
:1020F500E0FFA3E0FBA3E0FAA3E0F990028EE090F5
:102105000241F0122BE690028EE0FF900287E02F4D
:10211500F0900289E48FF0801B90028CE0FF14F0B0
:10212500EF6016122BD2900287E02408F090028906
:10213500E475F00812126780E090028DE0FE6016EB
:10214500900287E0FFA3E0FBA3E0FAA3E0F9900289
:0621550041EEF0122BE642
:01215B002261
:052E1A009002A3EFF09F
:102E1F00E4A3F012000E7FAE122E5912310B900266
:102E2F00A3E0FF122E5912310B12000E7FAF122E9C
:102E3F005912310B122D499002A4EFF07F0112327B
:092E4F00F91232B29002A4E0FF76
:012E58002257
:0E29080090023DEFF0A3EBF0A3EAF0A3E9F09C
:10291600E4900243F0A3F012000E7FAE122E59127D
:10292600310B90023DE0FF122E5912310B12000EB0
:102936007FAF122E5912310BE4900243F0A3F090B0
:102946000241E0FEA3E0FFD3900244E09F900243E1
:10295600E09E5044122D4990023EE0FBA3E475F040
:102966000112127DA9F0FAEF1211EE900243E0FE79
:10297600A3E0FF900241E0B50609A3E0B507047F96
:10298600018002E4FF1232F9900244E004F070AFD5
:0B299600900243E004F080A70232B280
:08000300EF24FF92A102338EED
:08336600EF24FF92A002338E58
:10329100A2A0E433900247F012338E900247E0FF80
:0132A100220A
:10000E007F011233667F01120003E4FF123366E4B0
:04001E00FF020003DA
:0F32B200E4FF1233667F011200037F01023366CF
:052E5900900245EFF0BE
:102E5E00E4A3F0F0900246E0FFC394085027A807C1
:102E6E007480088002C313D8FCFF900245E05FFF18
:102E7E001233667F01120003E4FF12000390024634
:052E8E00E004F080CF1C
:012E9300221C
:102D4900E4900245F0A3F07F01123366E490024556
:102D5900F07F01120003123291EF6019900246E0F0
:102D6900FF900245E0FEF87480088002C313D8FC86
:102D79004F900246F0E4FF120003900245E004F090
:0B2D8900E0C3940840CB900246E0FF3E
:012D9400221C
:0D32F9001233667F01120003E4FF020003A0
:10310B00E4900245F07F011233667F011200031237
:10311B003291900245EFF0E4FF120003900245E07C
:01312B00FFA4
:01312C002280
:0A1A820042029300004202910000AE
:10320F00538E7F5389F0438901758A66758CFCC292
:08321F008DD28CD2AFD2A9229E
:07336E00900295E0FFE4F07E
:013375002235
:10301D00E4FF2080010F2081027F022082027F03C6
:10302D002083027F042084027F052085027F0620F5
:09303D0086027F072087027F084C
:013046002267
:1027310090028FE0A3F012301D90028FEFF0A3E022
:10274100FFB4010B90028FE0700590029504F0EF49
:10275100B4020C90028FE070069002957402F09022
:102761000290E0B4030C90028FE070069002957421
:1027710003F0900290E0FFB4040C90028FE0700629
:102781009002957404F0EFB4050C90028FE070068E
:102791009002957405F0900290E0B4060C90028FBF
:1027A100E070069002957406F0900290E0FFB40785
:1027B1000C90028FE070069002957407F0EFB40858
:0D27C1000C90028FE070069002957408F0F5
:0127CE0022E8
:03000B00022DD9EA
:0D2DD900C0E0C083C082C0D075D000C0072C
:102DE600758A66758CFC900292E004F0700690027B
:102DF60091E004F0900291E07004A3E0641470097D
:092E0600900291F0A3F0122731B3
:0B2E0F00D007D0D0D082D083D0E032BA
:101A8C006100000000C1814001C0804101C0804163
:101A9C0000C1814001C0804100C1814000C1814032
:101AAC0001C0804101C0804100C1814000C1814022
:101ABC0001C0804100C1814001C0804101C0804112
:101ACC0000C1814001C0804100C1814000C1814002
:101ADC0001C0804100C1814001C0804101C08041F2
:101AEC0000C1814000C1814001C0804101C08041E2
:101AFC0000C1814001C0804100C1814000C18140D2
:101B0C0001C0804101C0804100C1814000C18140C1
:101B1C0001C0804100C1814001C0804101C08041B1
:101B2C0000C1814000C1814001C0804101C08041A1
:101B3C0000C1814001C0804100C1814000C1814091
:101B4C0001C0804100C1814001C0804101C0804181
:101B5C0000C1814001C0804100C1814000C1814071
:101B6C0001C0804101C0804100C1814000C1814061
:101B7C0001C0804100C1814001C0804101C0804151
:101B8C0000C181406100010000C0C101C30302C259
:101B9C00C60607C705C5C404CC0C0DCD0FCFCE0EA1
:101BAC000ACACB0BC90908C8D81819D91BDBDA1A11
:101BBC001EDEDF1FDD1D1CDC14D4D515D71716D681
:101BCC00D21213D311D1D010F03031F133F3F232F1
:101BDC0036F6F737F53534F43CFCFD3DFF3F3EFE61
:101BEC00FA3A3BFB39F9F83828E8E929EB2B2AEAD1
:101BFC00EE2E2FEF2DEDEC2CE42425E527E7E62641
:101C0C0022E2E323E12120E0A06061A163A3A262B0
:101C1C0066A6A767A56564A46CACAD6DAF6F6EAE20
:101C2C00AA6A6BAB69A9A86878B8B979BB7B7ABA90
:101C3C00BE7E7FBF7DBDBC7CB47475B577B7B67600
:101C4C0072B2B373B17170B0509091519353529270
:101C5C0096565797559594549C5C5D9D5F9F9E5EE0
:101C6C005A9A9B5B99595898884849894B8B8A4A50
:101C7C004E8E8F4F8D4D4C8C4484854587474686C0
:081C8C00824243834181804044
:102CF00090023EEBF0A3EAF0A3E9F0A3ECF0A3ED21
:012D0000F0E2
:102D01007FFF7DFF90024174FFF5F012127D45F0C7
:102D1100603190023EE0FBA3E475F00112127DA93F
:102D2100F0FA1211A86DFB7A002400F582EA340052
:102D3100F583E06FFD74002BF582EA3401F583E041
:072D4100FF80C1EFFEEDFF72
:012D48002268
:0F32C100122C95D2ACD2AF12335D1227CF80F80A
:101EBE0057726F6E6720506F736974696F6E210071
:101ECE00445331384232302054656D703A20252EFD
:101EDE00326620A1E60A0054656D70482057617283
:101EEE006E696E673A20256420A1E60A0054656D7E
:101EFE00704C205761726E696E673A20256420A17E
:101F0E00E60A004453313842323020436865636B31
:101F1E00204552524F520A0025524800444854312F
:101F2E00312054656D703A2025642E256420A1E67B
:101F3E000A0044485431312048756D693A202564B1
:101F4E002E2564202525480A0052656164204448E8
:101F5E005431312054656D7020434D44204552520A
:101F6E004F520A00444854313120436865636B2058
:101F7E004552524F520A0054656D70483A005465EE
:101F8E006D704C3A005761726E696E672054656DC4
:101F9E00702053657420446F6E650A005761726E2F
:101FAE00696E672054656D702053657420434D44EF
:101FBE00204552524F520A005761726E696E672069
:101FCE0054656D702053657420436865636B2045BE
:101FDE0052524F520A0054656D702048756D69203B
:101FEE0054657374210054656D70205761726E696B
:101FFE006E6720210054656D7020416C65727420EF
:10200E0053657421004552524F5220210057617280
:10201E006E696E672E2E2E21212100486967682079
:10202E0054656D7020212121004C6F772054656D11
:07203E007020202121210088
:081C940041026E0041027500DF
:102C95009002407425F0A37480F0A37401F0FBE466
:102CA500FDFF12215C12320F12323E122421123026
:102CB500E57B017A02797A900241E4F0A37402F08F
:102CC500E4FF12290890027AE0FFD3947D5011A306
:102CD500E0FEC394C97480947F4005EFD39E500AEB
:0B2CE50090027A741EF0A3740AF02223
:101C9D0090023DEFF030E003021E14E0FFD39406F6
:101CAD004003021E14EFC394005003021E14E0FD06
:101CBD007B0B7F01122A3490023DE0FD7B0C7F10DF
:101CCD00122A3490023DE004FD90024A7402F07B2A
:101CDD003A7F2012250190023DE0FD7B0E7F5C12C4
:101CED002A341232EC122F3590026F12136FE4FF6B
:101CFD00FEFDFC90026FE0F8A3E0F9A3E0FAA3E08B
:101D0D00FB120DA490023DE04003021DA004FD90C6
:101D1D00024A7402F07B2E7F4A12250190023DE0AB
:101D2D00FD90024A7410F07B2D7F2B12250190023D
:101D3D006FE0FCA3E0FDA3E0FEA3E0FF120E5BABA2
:101D4D0007AA069002427403F0A37410F090023DAE
:101D5D00E0FD7F311225CF7F007E407D1C7C4690BB
:101D6D00026FE0F8A3E0F9A3E0FAA3E0FB120BFE8B
:101D7D00120E5BE47B107A27F9F81212CF90024213
:101D8D007402F0A37410F090023DE0FD7F52122515
:101D9D00CF800F04FD90024A7402F07B2E7F40121B
:101DAD00250190026FE0FCA3E0FDA3E0FEA3E0FFA0
:101DBD00120E5BAB07AA069002427403F0A37410D7
:101DCD00F090023DE0FD7F271225CF7F007E407D04
:101DDD001C7C4690026FE0F8A3E0F9A3E0FAA3E0C3
:101DED00FB120BFE120E5BE47B107A27F9F8121230
:101DFD00CF9002427402F0A37410F090023DE0FD0A
:101E0D007F481225CF801690023DE0FD7BFF7A1EA4
:101E1D0079BE9002437410F07F01122C3520090316
:101E2D00021EBD7B017A02790C90020FE024FEFDAB
:101E3D00E434FFFC122CF0900273EEF0A3EFF0905F
:101E4D000230E0FCA3E0FD6F7001E4705890027366
:101E5D00E0FBEC6B7001E4704C90020EE0B4111CD1
:101E6D007BFF7A1E79CE90026FE0FCA3E0FDA3E02C
:101E7D00FEA3E0FF90024112136F802F90020EE03F
:101E8D006412702A7BFF7A1E79E590027AE0900247
:101E9D0041F012142C7BFF7A1E79FB90027BE090AF
:101EAD000241F080067BFF7A1F791112142CC209B2
:011EBD002202
:101844009002407401F0A37402F0A37479F0A374BD
:1018540001F0A37402F0A37476F0A37401F0A374EE
:1018640002F0A37478F07B017A02797712268A90C9
:101874000277E0FF75F00A1211862430FB90024AC9
:101884007410F07D067F2F122501900277E0FF751A
:10189400F00A121186AFF0EF2430FB90024A741064
:1018A400F07D067F37122501900279E0FF75F00A7A
:1018B4001211862430FB90024A7410F07D067F4892
:1018C400122501900279E0FF75F00A121186AFF03B
:1018D400EF2430FB90024A7410F07D067F501225ED
:1018E400017B0B7D067F01122A347B0C7D067F1061
:1018F400122A3490024A7402F07B3A7D077F201248
:10190400250190024A7402F07B2E7D077F40122548
:10191400017B0E7D067F5C122A34900276E0FF750F
:10192400F00A1211862430FB90024A7410F07D04F0
:101934007F2F122501900276E0FF75F00A121186BE
:10194400AFF0EF2430FB90024A7410F07D047F372F
:10195400122501900278E0FF75F00A1211862430F6
:10196400FB90024A7410F07D047F48122501900216
:1019740078E0FF75F00A121186AFF0EF2430FB9087
:10198400024A7410F07D047F501225017B0D7D0402
:101994007F01122A347B0C7D047F10122A349002BA
:1019A4004A7402F07B3A7D057F2012250190024A99
:1019B4007402F07B2E7D057F401225017BFF7A1F88
:1019C40079269002437410F07D047F5C122C35203C
:1019D4000903021A757B017A02790C90020FE02444
:1019E400FEFDE434FFFC122CF0900273EEF0A3EF42
:1019F400F0900230E0FCA3E0FD6F7001E4706790AA
:101A04000273E0FBEC6B7001E4705B90020EE06427
:101A1400137BFF704B7A1F792A900277E0FE33958F
:101A2400E0900241F0A3CEF0900279E0FE3395E01D
:101A3400900243F0A3CEF012142C7BFF7A1F79405E
:101A4400900276E0FE3395E0900241F0A3CEF09050
:101A54000278E0FE3395E0900243F0A3CEF0800CD0
:101A64007A1F795780067BFF7A1F797212142CC271
:021A7400092245
:102B4C007BFF7A1F79859002437410F07D027F0120
:102B5C00122C357BFF7A1F798C9002437410F07D18
:102B6C00047F01122C3590027AE0FB7A009002422D
:102B7C007403F0A37410F07D027F381225CF9002FD
:102B8C004A7410F07B2B7D027F3212250190024A91
:102B9C007410F07B2D7D047F3212250190027BE0B6
:102BAC00FB7A009002427403F0A37410F07D047F52
:102BBC00381225CF7B0E7D027F5C122A347B0E7D72
:062BCC00047F5C022A34C4
:10225400900275E0FF6062B4041190027AE004F029
:10226400E0D3947D4053747DF0804E900275E0FF7E
:10227400B4051690027AE014F0A3E0FE90027AE02E
:10228400D39E5035E004F08030EFB4061690027B04
:10229400E004F090027AE0FFA3E0C39F401BE01447
:1022A400F08016900275E0B4070F90027BE014F002
:1022B400E0D3940050037437F03009687B017A024C
:1022C400790C90020FE024FEFDE434FFFC122CF0A4
:1022D400900273EEF0A3EFF0900230E0FCA3E0FD77
:1022E4006F7001E47033900273E0FBEC6B7001E4F7
:1022F400702790020EE0B41418900210E090027A55
:10230400F0900211E090027BF07BFF7A1F799380BA
:102314000E7BFF7A1F79AA80067BFF7A1F79C6128B
:10232400142CC2097B017A02797A9002417402F07A
:08233400E4FF122BE6022B4C22
:09335D0012336E900275EFF022AC
:10286C00900275E0B4010A1230E5E490026EF0803B
:10287C0022900275E0B4020B1230E590026E7401E6
:10288C00F08010900275E0B403091230E590026EEE
:10289C007402F090026EE014602214603524027011
:1028AC00477BFF7A1F79E49002437410F0E4FD7FBC
:1028BC0001122C357F02121C9D0218447BFF7A1FDB
:1028CC0079F49002437410F0E4FD7F01122C350270
:1028DC002B4C7BFF7A2079039002437410F0E4FDBB
:1028EC007F01122C350222547BFF7A20791390023F
:0C28FC00437410F0E4FD7F01122C352223
:1027CF0012286C90027AE0FCE4120E2790026FE060
:1027DF00F8A3E0F9A3E0FAA3E0FB120DA4602540F3
:1027EF00231230E5E4FF121C9D7BFF7A20791B90AA
:1027FF0002437410F07D027F01122C357BFF7A208B
:10280F007929804490027BE0FFC3E49FFDE49400AC
:10281F00FC120E2290026FE0F8A3E0F9A3E0FAA3F6
:10282F00E0FB120DA450351230E5E4FF121C9D7B26
:10283F00FF7A20791B9002437410F07D027F011202
:10284F002C357BFF7A2079379002437410F07D048A
:0D285F007F01122C357FE87E0312314C22E0
:100BFE00EC4D6011E8497017ED33EC3304600DE4F1
:100C0E00FCFFFEFD22E933E8330470F8020EC71232
:100C1E000E9258046009E4CC248150062850090233
:100C2E000ED1284003020ECEC0E0EB4A7044B980CC
:100C3E0006D0E0FB020EBDEF4E701CBD8008EBFF30
:100C4E00EAFEE9FD80EBE98DF0A4FEE5F0020CE78B
:100C5E00E9CDF9EAFEEBFFEF89F0A4FCE5F0CE89D1
:100C6E00F0A42EFFE435F0CD89F0A42DFEE435F08E
:100C7E008067EF4E7005BD80D780C3EF8BF0A4ACBC
:100C8E00F0EE8BF0A42CFCE435F0F8EF8AF0A42CF7
:100C9E00E5F038FCE433CB8DF0A42CFCE5F03BF80A
:100CAE00EE8AF0A42CFCE5F038F8E433CF89F0A4FA
:100CBE002CFCE5F038CF3400CE89F0A42FFFE5F000
:100CCE003EFEE433C98DF0A42EFEE5F039CD8AF058
:100CDE00A42FFFE5F03EFEE43DFD33D0E0FB5007D0
:100CEE000BBB000F020ED1EC2CFCEF33FFEE33FEEC
:060CFE00ED33FD020EA91A
:100D0400020ED1EC5D046005E859047003020EC7BD
:100D1400120E92580460F6EC4860F2EC7004FDFE8A
:100D2400FF22C860DB2481C85009C39860025006C2
:100D3400020ECE9850CAF582E9294B4A7005AB825F
:100D4400020EBD75F0007C1A7880C3EF9BEE9AED1D
:100D540099400DC3EF9BFFEE9AFEED99FDE842F03A
:100D6400DC23ACF0D0E0FFD0E0FED0E0FDAB82208D
:100D7400E7101BEB60BAEC2CFCEF33FFEE33FEED17
:100D840033FD020EA9E803F830E705C0F075F00062
:100D9400EF2FFFEE33FEED33FD40B830E7C280AAFB
:100DA40074F8CC6480CCC86480C8F58204604FC3F6
:100DB400EB9FF5F0EA9E42F0E99D42F0E89C45F095
:100DC400603C501DE5825FFFE582D313CB5BCBF41F
:100DD4002B5582FB50280ABA002409B90020088048
:100DE4001DE5825BFBE582D313CF5FCFF4C3132FE2
:100DF4005582FF50090EBE00050DBD00010CC3EB6A
:100E04009FF5F0EA9E42F0E99D42F0E89C45F060CF
:090E140007CC4820E701B3EC22F1
:100E1D0075F020800E75F010800575F0087D007E50
:100E2D00007F003392D530D503121361EC3340109F
:100E3D00EF33FFEE33FEED33FDEC33FCD5F0ED2259
:0E0E4D00E5F0247EA2D513CC92E7CDCEFF2295
:100E5B00EDD2E7CD33EC3392D524814006E4FFFE8F
:100E6B00FDFC22FCE4CFCECDCC24E0501174FF80EE
:100E7B00EDC3CC13CCCD13CDCE13CECF13CF04708B
:070E8B00F030D5DE02136117
:1013C100E5082441F582E43402F583E00508229022
:1013D100023E300703900241E475F00112137B02D3
:1013E10011A82000E97F2ED2008018EF540F24901D
:1013F100D43440D4FF30040BEF24BFB41A0050039F
:101401002461FFE50960021509050CE50C70020570
:101411000B30070E90023EE475F00112137BEF02D0
:1014210011EE0231A67403D2078003E4C207F50866
:1014310090023E121392E4F509F50BF50CE50960F3
:10144100077F2012140480F5750AFFC201C200C291
:1014510002C203C205C206C2081213D0FF700D30CA
:1014610007057F00121415AF0CAE0B22B4255FC225
:10147100D5C2041213D0FF24D0B40A00501A75F05B
:101481000A780930D50508B6FF0106C6A426F6205C
:10149100D5047002D20380D924CFB41A00EF5004CE
:1014A100C2E5D204021707D20180C6D20080C0D2A1
:1014B1000280BCD2D580BAD20580B47F2012140438
:1014C1002002077401B5090040F11213C1FF121483
:1014D1000402143ED208D20680951213C1FB1213E6
:1014E100C1FA1213C1F94A4B700679057A187BFFCC
:1014F10020022EE509602A7E008E8275830012117A
:10150100C160060EEE650A70F0C2D5EBC0E0EAC01C
:10151100E0E9C0E0EE121768D0E0F9D0E0FAD0E0DF
:10152100FB1211A8FF60AAEBC0E0EAC0E0E9C0E04D
:10153100121404D0E02401F9D0E03400FAD0E0FB29
:10154100E50A0460DCD50AD98087D20280A212178D
:101551004A60F7E50A700104120EDCA90A600DE584
:101561000A600914F50A1217F2EF60F3EA30E70294
:10157100F404C3995079EAF4250A0430E701E4043C
:10158100F50A800D12174A60C1EA050A250A120EF2
:10159100DCEA90026DF030E701E4250A04D50A0483
:1015A10020050114121768E4C0E01217F290026DD1
:1015B100E0601320E70714F01213EC802204F0D04E
:1015C100E014C0E07F001213ECE50A60071213E398
:1015D100150A800B3005031213E3D0E002143ED04C
:1015E100E00480C412174A609EE50A04120EDC90E2
:1015F100026DEAF0E50A20050260010424041217D5
:011601006880
:1016020074FF04C0E01217F21213ECE50A2005027F
:1016120060031213E3D0E0B50AE87F451213F69097
:10162200026DE07F2B30E7047F2DF404C0E012143A
:1016320004D0E075F00A84C0F01213EDD0E012136A
:10164200ED02143E791080027908C206C2088008B1
:10165200D2D5790A8004790AC2D5E50A047002F566
:101662000AE4FAFDFEFF1213C1FC7B0820011312EB
:1016720013C1FD7B1030000A1213C1FE1213C1FF09
:101682007B20EC3382D592D55013C3E43000069F01
:10169200FFE49EFEE42001039DFDE49CFCE4CBF804
:1016A200C201EC700CCFCECDCCE824F8F870F380F8
:1016B20017C3EF33FFEE33FEED33FDEC33FCEB33B8
:1016C200FB994002FB0FD8E9EB300105F8D0E0C4EA
:1016D20048B201C0E00AEC4D4E4F78207B0070C248
:1016E200EAB50A0040BCC0E012176AD0F0D0E02090
:1016F2000104C4C0E0C4B201C0F01213EDD0F0D5B1
:10170200F0EB02143E12139B14DB5316465814AC32
:101712004C14A842164A4F16524416524914C14359
:1017220016585515854615E545154F471825501489
:10173200B02D14B42E14D72B14B82314D520180EA0
:101742002A147048000014CFE50AB4FF03750A0694
:101752001213C1FC1213C1FD1213C1FE1213C1FFF9
:10176200900266020F19790AA2D5200314300509E6
:10177200B910020404B9080104A2D52006025001DE
:10178200042002689202B509005034C0E07F203084
:1017920003197F30A20272067205500F1217C1C2DE
:1017A20002C206C205C2087F30800F300503E9C0BD
:1017B200E0121404300503D0E0F9D0E0B509CC30D2
:1017C20005177F30B9100C1214047F583004077FBC
:1017D200788003B908031214043002057F2D021425
:1017E200047F202008F87F2B2006F322920280CF6C
:1017F2007F00B40700500B2466F582E43402F583BF
:10180200E0FF22286E756C6C2900D2011213C130E0
:1018120001F8C201780930D50108F60214702D5082
:101822004349581213C12403B405004001E490183F
:1018320020931213F5743A1213F5D20375090402B8
:02184200164648
:100E9200E9D2E7C933E833F892D5EDD2E7CD33ECA6
:070EA20033FC5002B2D5221F
:100EA900EC30E7100FBF000C0EBE00080DBD0004AA
:100EB9000BEB6014A2D5EB13FCED92E7FD2274FF56
:100EC900FCFDFEFF22E480F8A2D574FF13FC7D80AF
:030ED900E480EFC3
:100EDC00F920E73624F950037907E4F42402FBE502
:100EEC0082158270021583DBF6E024FB501BE9604F
:100EFC0014E4F0E582158270021583E004F0B40A64
:0D0F0C0008E4F0D9EE7401F00A22C2D522EB
:100F1900ED33EC3392D5FA602AB4FF33EDC2E77BA7
:100F2900FF60067A0F793EE4227A0F794720D504CB
:100F39007A0F7942224E614E002B494E46002D49C7
:100F49004E4600E47A08F0A3DAFC7B00740722C05D
:100F590083C082ECC0E0EDC0E0EEC0E0EFC0E0EAA3
:100F690075F010A4CAABF075F04DA42BFBE435F075
:100F7900FCEA2410FAEB34C5FBEC34D9FCEDC2E7EA
:100F8900FF75F056A4F42411C5F0F434C58FF0A40C
:100F99002AE5F03BE43CF020E714121146D0E0FFCB
:100FA900D0E0FED0E0FDD0E0FC120D078014F4047F
:100FB900121146D0E0FFD0E0FED0E0FDD0E0FC12F7
:100FC9000BFED082D083E0FAEDD2E7CD33EC3324A7
:100FD90082FBE4C3CF33CFCE33CECD33CD33DBF376
:100FE9007B0775F00A846004F0A31B0AE5F0F0A3FF
:100FF9008FF0740AA4FFACF08EF0740AA42CFEAC36
:10100900F050010C8DF0740AA42CFDE435F0F0A326
:05101900DBDE7407227C
:10101E00020EC7E86480F8E933E83360110460F02B
:10102E00ED33EC337009E8FCE9FDEAFEEBFF220438
:10103E0060DED3EB9FEA9EE99DE8C2E78CF0C2F733
:10104E0095F0400CE8CCF8E9CDF9EACEFAEBCFFBFF
:10105E00120E9285D0F05804700320D5B3E80470B8
:10106E00075002B2D5020ED192D5EC0460F7E4CC53
:10107E00C0E0C398F8603B94186008400DD0E0FBC8
:10108E00020EA9E4FBFAC9FC8028E830E406E4C9A4
:10109E00FBE4CAFCE830E305E4C9CACBFCE854071C
:1010AE006010F8C3E913F9EA13FAEB13FBEC13FC27
:1010BE00D8F130F52FC3E49CFCEF9BFFEE9AFEEDCA
:1010CE0099FDD0E0FBEF4E4D4C701222DB03020E69
:1010DE00CEEC2CFCEF33FFEE33FEED33FDED30E7BF
:1010EE00EB020EA9EF2BFFEE3AFEED39FDD0E0FB41
:1010FE0050130BBB0003020ED1ED13FDEE13FEEFEA
:08110E0013FFEC13FC020EA913
:101116003F8000004120000042C80000447A0000E1
:10112600461C400047C35000497424004B18968063
:101136004CBEBC205A0E1BCA6753C21C749DC5AE5A
:10114600FB60065407601C2323121174EB543860AD
:101156000912116012116F120BFEECF8EDF9EEFA9E
:10116600EFCB22EB12116F80F1543803241C90113F
:1011760016FE93FC0EEE93FD0EEE930ECE93FF221B
:03000000022AC011
:0C2AC000787FE4F6D8FD758121022B0719
:10118600C2D530F707B2D563F0FF05F030E70CB2F1
:10119600D5F4048463F0FF05F080018430D502F4B1
:0211A600042221
:1011A800BB010689828A83E0225002E722BBFE0245
:0911B800E32289828A83E4932278
:1011C100BB010CE58229F582E5833AF583E02250E3
:1011D10006E92582F8E622BBFE06E92582F8E2222D
:0D11E100E58229F582E5833AF583E4932247
:1011EE00BB010689828A83F0225002F722BBFE01E0
:0211FE00F322DA
:10120000EF8DF0A4A8F0CF8CF0A428CE8DF0A42E02
:02121000FE22BC
:10121200BC000BBE0029EF8DF084FFADF022E4CCC0
:10122200F875F008EF2FFFEE33FEEC33FCEE9DEC89
:10123200984005FCEE9DFE0FD5F0E9E4CEFD22EDCF
:10124200F8F5F0EE8420D21CFEADF075F008EF2F19
:10125200FFED33FD4007985006D5F0F222C398FD0A
:051262000FD5F0EA22A7
:10126700C5F0F8A3E028F0C5F0F8E5821582700212
:061277001583E038F022AF
:10127D00A3F8E0C5F025F0F0E58215827002158324
:06128D00E0C838F0E82281
:1012930075F008758200EF2FFFEE33FECD33CDCC12
:1012A30033CCC58233C5829BED9AEC99E582984095
:1012B3000CF582EE9BFEED9AFDEC99FC0FD5F0D672
:1012C300E4CEFBE4CDFAE4CCF9A88222B800C1B99C
:1012D3000059BA002DEC8BF084CFCECDFCE5F0CBDA
:1012E300F97818EF2FFFEE33FEED33FDEC33FCEB13
:1012F30033FB10D703994004EB99FB0FD8E5E4F9CE
:10130300FA227818EF2FFFEE33FEED33FDEC33FCBA
:10131300C933C910D7059BE99A4007EC9BFCE99AAE
:10132300F90FD8E0E4C9FAE4CCFB2275F010EF2FF3
:10133300FFEE33FEED33FDCC33CCC833C810D707F3
:101343009BEC9AE899400AED9BFDEC9AFCE899F82E
:0E1353000FD5F0DAE4CDFBE4CCFAE4C8F922C1
:102D9500C2D5E830E70FB2D5E4C39BFBE49AFAE469
:102DA50099F9E498F8EC30E717B2D5122DCB121249
:102DB500CFE4C39BFBE49AFAE499F9E498F880031D
:102DC5001212CF30D50DE4C39FFFE49EFEE49DFDB6
:042DD500E49CFC225C
:0E136100C3E49FFFE49EFEE49DFDE49CFC229D
:0C136F00ECF0A3EDF0A3EEF0A3EFF022F1
:10137B00F8E0FBA3A3E0F925F0F0E58215827002FB
:07138B001583E0FA38F0229F
:09139200EBF0A3EAF0A3E9F0225C
:10139B00D083D082F8E4937012740193700DA3A3E1
:1013AB0093F8740193F5828883E4737402936860F5
:0613BB00EFA3A3A380DFF5
:102ACC000232C1E493A3F8E493A34003F68001F22D
:102ADC0008DFF48029E493A3F85407240CC8C3330B
:102AEC00C4540F4420C8834004F456800146F6DFDA
:102AFC00E4800B0102040810204080901A76E47EDA
:102B0C00019360BCA3FF543F30E509541FFEE493CE
:102B1C00A360010ECF54C025E060A840B8E493A395
:102B2C00FAE493A3F8E493A3C8C582C8CAC583CAC0
:102B3C00F0A3C8C582C8CAC583CADFE9DEE780BE78
:011C9C000047
:00000001FF
