:0B2783001220A61227D0121A5E80F868
:101E610057726F6E6720506F736974696F6E2100CE
:101E71002552480054656D70483A0054656D704CA8
:101E81003A0054656D702048756D6920546573740E
:101E9100210054656D70205761726E696E67202153
:101EA1000054656D7020416C657274205365742116
:101EB100004552524F522021005761726E696E6780
:101EC1002E2E2E21212100486967682054656D70EE
:101ED10020212121004C6F772054656D7020202135
:031EE100212100BC
:08256D004101A6004101AB0091
:1020A6009001987425F0A37480F0E4A3F07B01FD01
:1020B600FF1215B81226781226BE1216B012254740
:1020C6007B017A0179B0900199E4F0A37402F0E4FF
:1020D600FF121B979001B0E0FFD3947D5011A3E04F
:1020E600FEC394C97480947F4005EFD39E500A9036
:0A20F60001B0741EF0A3740AF0227A
:10131500900195EFF030E00302148AE0FFD39406C4
:10132500400302148AEFC39400500302148AE0FDBF
:101335007B0B7F01121CC3900195E0FD7B0C7F1098
:10134500121CC3900195E004FD9001A27402F07B8C
:101355003A7F20121790900195E0FD7B0E7F5C127D
:101365001CC312275D1223979001A7121149E4FFB0
:10137500FEFDFC9001A7E0F8A3E0F9A3E0FAA3E0E5
:10138500FB120DA4900195E0400302141804FD9092
:1013950001A27402F07B2E7F4A121790900195E00E
:1013A500FD9001A27410F07B2D7F2B1217909001F8
:1013B500A7E0FCA3E0FDA3E0FEA3E0FF120E5BABFC
:1013C50007AA0690019A7403F0A37410F090019592
:1013D500E0FD7F3112185E7F007E407D1C7C4690CB
:1013E50001A7E0F8A3E0F9A3E0FAA3E0FB120BFEE6
:1013F500120E5BE47B107A27F9F812107490019AAB
:101405007402F0A37410F0900195E0FD7F5212185C
:101415005E800F04FD9001A27402F07B2E7F4012C6
:1014250017909001A7E0FCA3E0FDA3E0FEA3E0FF79
:10143500120E5BAB07AA0690019A7403F0A3741011
:10144500F0900195E0FD7F2712185E7F007E407DBC
:101455001C7C469001A7E0F8A3E0F9A3E0FAA3E01D
:10146500FB120BFE120E5BE47B107A27F9F81210C3
:101475007490019A7402F0A37410F0900195E0FD48
:101485007F4802185E900195E0FD7BFF7A1E796129
:0C14950090019B7410F07F011220462291
:101186009001987401F0A37401F0A374AFF0A374F6
:1011960001F0A37401F0A374ACF0A37401F0A3747E
:1011A60001F0A374AEF07B017A0179AD12191990A2
:1011B60001ADE0FF75F00A120EDC2430FB9001A2AF
:1011C6007410F07D067F2F1217909001ADE0FF7529
:1011D600F00A120EDCAFF0EF2430FB9001A274107F
:1011E600F07D067F371217909001AFE0FF75F00A89
:1011F600120EDC2430FB9001A27410F07D067F48AD
:101206001217909001AFE0FF75F00A120EDCAFF0F6
:10121600EF2430FB9001A27410F07D067F50121768
:10122600907B0B7D067F01121CC37B0C7D067F1015
:10123600121CC39001A27402F07B3A7D077F201234
:1012460017909001A27402F07B2E7D077F40121743
:10125600907B0E7D067F5C121CC39001ACE0FF758F
:10126600F00A120EDC2430FB9001A27410F07D040B
:101276007F2F1217909001ACE0FF75F00A120EDC7A
:10128600AFF0EF2430FB9001A27410F07D047F379D
:101296001217909001AEE0FF75F00A120EDC2430B2
:1012A600FB9001A27410F07D047F48121790900104
:1012B600AEE0FF75F00A120EDCAFF0EF2430FB90C3
:1012C60001A27410F07D047F501217907B0D7D04EF
:1012D6007F01121CC37B0C7D047F10121CC390017E
:1012E600A27402F07B3A7D057F201217909001A22E
:1012F6007402F07B2E7D057F401217907BFF7A1ECD
:0F130600797190019B7410F07D047F5C0220468A
:101DDB007BFF7A1E797590019B7410F07D027F0159
:101DEB001220467BFF7A1E797C90019B7410F07D4C
:101DFB00047F011220469001B0E0FB7A0090019A1B
:101E0B007403F0A37410F07D027F3812185E9001FA
:101E1B00A27410F07B2B7D027F321217909001A2DF
:101E2B007410F07B2D7D047F321217909001B1E07E
:101E3B00FB7A0090019A7403F0A37410F07D047F79
:101E4B003812185E7B0E7D027F5C121CC37B0E7DED
:061E5B00047F5C021CC3C1
:101F66009001ABE06076B404119001B0E004F0E0BB
:101F7600D3947D4053747DF0804E9001ABE0FFB466
:101F860005169001B0E014F0A3E0FE9001B0E0D396
:101F96009E5035E004F08030EFB406169001B1E0B3
:101FA60004F09001B0E0FFA3E0C39F401BE014F0F3
:101FB60080169001ABE0B4070F9001B1E014F0E099
:101FC600D3940050037437F07B017A0179B0900105
:0D1FD600997402F0E4FF121FF7121DDB22C8
:0927D0001227EA9001ABEFF022A0
:101AFB009001ABE0B4010A122547E49001A6F080F7
:101B0B00229001ABE0B4020B1225479001A67401A1
:101B1B00F080109001ABE0B403091225479001A6A9
:101B2B007402F09001A6E014602214603524027058
:101B3B00477BFF7A1E798390019B7410F0E4FD7F45
:101B4B00011220467F021213150211867BFF7A1EAB
:101B5B00799390019B7410F0E4FD7F0112204602F3
:101B6B001DDB7BFF7A1E79A290019B7410F0E4FDC4
:101B7B007F01122046021F667BFF7A1E79B290010D
:0C1B8B009B7410F0E4FD7F011220462244
:101A5E00121AFB9001B0E0FCE4120E279001A7E0F1
:101A6E00F8A3E0F9A3E0FAA3E0FB120DA460254071
:101A7E0023122547E4FF1213157BFF7A1E79BA90C5
:101A8E00019B7410F07D027F011220467BFF7A1EAF
:101A9E0079C880449001B1E0FFC3E49FFDE4940057
:101AAE00FC120E229001A7E0F8A3E0F9A3E0FAA33E
:101ABE00E0FB120DA45035122547E4FF1213157BDF
:101ACE00FF7A1E79BA90019B7410F07D027F01128D
:101ADE0020467BFF7A1E79D690019B7410F07D0410
:0D1AEE007F011220467FE87E0312260D22A4
:0A278E0000007F027EDADEFEDFFCB1
:01279800221E
:0A27990000007F027E62DEFEDFFC1E
:0127A3002213
:1026BE00D2907F75DFFEC2907F147E0012260DD25F
:0526CE00907F75DFFEA6
:0126D30022E4
:1026D4002090FD3090FD7F3C7E0012260D3090034B
:0626E4007F01227F0022AD
:1025B200E4FDFC2090FD3090FD122799EC25E0FC13
:0E25C2003090010C2090FD0DEDB408E7AF0441
:0125D00022E8
:0B191900900195EBF0A3EAF0A3E9F0C9
:101924001226BE3090030219BF3090FDE4FB12254D
:10193400B274A12BF582E43401F583EFF00BEBB420
:1019440005EC9001A2E0FF9001A1E02FFFE433FE3B
:101954009001A3E07C002FFFEC3EFEA3E02FFFEC00
:101964003EFEA3E0B50754ECB506509001A1E0FF9C
:1019740090019BE0FBA3E0FAA3E0F9EF120F44907F
:1019840001A2E0FF90019EE0FBA3E0FAA3E0F9EFDF
:10199400120F449001A3E0FF900195E0FBA3E0FA4D
:1019A400A3E0F9EF120F449001A4E0FF900198E046
:0B19B400FBA3E0FAA3E0F9EF120F44E0
:0119BF002205
:0A27A40000007F0D7ED3DEFEDFFC97
:0127AE002208
:0C277700D291C2911227A4D2910227A493
:10266000900199EFF0C29112280A900199E024FF9D
:0826700092911227AFD29122D2
:0523C800900197EFF009
:1023CD00E4A3F0900198E0FFC39408501DA8077492
:1023DD0001088002C333D8FCFF900197E05FFF1224
:0A23ED002660900198E004F080D90A
:0123F70022C3
:10262B00C291122805D291122805A291E433900190
:0A263B0099F01227AF900199E0FF1B
:012645002272
:1022F600E4900198F0900197F012262BEF60199068
:102306000198E0FF900197E0FEF87401088002C38F
:1023160033D8FC4F900198F0900197E004F0E0C3A9
:09232600940840D5900198E0FFF5
:01232F00228B
:0D275D001227777FCC1223C87F440223C8C7
:102397001227777FCC1223C87FBE1223C81222F6DA
:1023A700900196EFF01222F6EFFE900196E0FDED18
:1023B700FFAC06EC120E22E4FBFA79807841020D9D
:0123C700070E
:100026000000000000000000002F00000000070094
:10003600070000147F147F1400242A7F2A1200620E
:1000460064081323003649552250000005030000BA
:1000560000001C224100000041221C000014083E42
:1000660008140008083E0808000000A06000000808
:10007600080808080000606000000020100804025C
:10008600003E5149453E0000427F4000004261511A
:100096004946002141454B31001814127F100027B4
:1000A60045454539003C4A49493000017109050377
:1000B60000364949493600064949291E00003636A8
:1000C600000000005636000000081422410000140B
:1000D60014141414000041221408000201510906E8
:1000E60000324959513E007C1211127C007F494969
:1000F6004936003E41414122007F4141221C007F9A
:1001060049494941007F09090901003E4149497AA7
:10011600007F0808087F0000417F41000020404121
:100126003F01007F08142241007F40404040007F8D
:10013600020C027F007F0408107F003E4141413ED1
:10014600007F09090906003E4151215E007F091919
:1001560029460046494949310001017F0101003F16
:100166004040403F001F2040201F003F4038403F96
:1001760000631408146300070870080700615149FA
:10018600454300007F41410000552A552A5500008D
:1001960041417F000004020102040040404040400B
:1001A600000001020400002054545478007F4844A3
:1001B600443800384444442000384444487F0038DA
:1001C6005454541800087E0901020018A4A4A47C03
:1001D600007F080404780000447D400000408084CD
:1001E6007D00007F102844000000417F4000007C15
:1001F60004180478007C0804047800384444443821
:1002060000FC242424180018242418FC007C08046C
:10021600040800485454542000043F444020003C45
:100226004040207C001C2040201C003C4030403CCC
:10023600004428102844001CA0A0A07C004464545C
:100246004C441414141414140000000000000000A0
:100256000000000000000000000000F800000000A0
:10026600000000333000000000100C06100C0600E1
:10027600000000000000000040C07840C078400048
:10028600043F04043F040400007088FC08300000AA
:10029600001820FF211E0000F008F000E018000002
:1002A60000211C031E211E0000F0088870000000BB
:1002B6001E2123241927211010160E00000000000D
:1002C6000000000000000000000000E0180402002A
:1002D600000000071820400000020418E00000009B
:1002E6000040201807000000404080F08040400099
:1002F6000202010F01020200000000F000000000EF
:100306000101011F010101000000000000000000C2
:1003160080B0700000000000000000000000000037
:1003260000010101010101010000000000000000C0
:10033600003030000000000000000000806018045B
:10034600006018060100000000E010080810E00038
:10035600000F102020100F00001010F80000000001
:100366000020203F20200000007008080888700048
:1003760000302824222130000030088888483000C8
:100386000018202020110E000000C02010F80000E8
:1003960000070424243F240000F808888808080081
:1003A6000019212020110E0000E010888818000096
:1003B600000F112020110E0000380808C838080068
:1003C6000000003F000000000070880808887000E8
:1003D600001C222121221C0000E010080810E00069
:1003E6000000312222110F00000000C0C0000000F2
:1003F6000000003030000000000000800000000017
:10040600000080600000000000008040201008000E
:1004160000010204081020004040404040404000D7
:1004260004040404040404000008102040800000B2
:100436000020100804020100007048080808F000B7
:100446000000003036010000C030C828E810E00087
:100456000718272423140B000000C038E000000012
:10046600203C23020227382008F88888887000007C
:10047600203F202020110E00C03008080808380050
:10048600071820202010080008F808080810E000C7
:10049600203F202020100F0008F88888E808100068
:1004A600203F20202320180008F88888E80810003C
:1004B600203F200003000000C03008080838000074
:1004C60007182020221E020008F808000008F80875
:1004D600203F210101213F20000808F808080000FC
:1004E6000020203F2020000000000808F80808002F
:1004F600C08080807F00000008F888C028180800A7
:10050600203F20012638200008F8080000000000DF
:10051600203F20202020300008F8F800F8F80800D6
:10052600203F003F003F200008F830C00008F808D0
:10053600203F200007183F00E01008080810E000E0
:100546000F10202020100F0008F808080808F000F7
:10055600203F210101010000E01008080810E0001A
:100566000F18242438504F0008F8888888887000AF
:10057600203F2000030C302000708808080838004F
:100586000038202121221C00180808F80808180045
:100596000000203F2000000008F808000008F808C6
:1005A600001F202020201F000878880000C8380877
:1005B600000007380E010000F80800F80008F800EF
:1005C600033C0700073C0300081868808068180889
:1005D60020302C03032C30200838C800C838080007
:1005E6000000203F2000000010080808C838080056
:1005F6002038262120201800000000FE02020200FA
:100606000000007F40404000000C30C000000000A9
:10061600000000010638C00000020202FE000000D1
:10062600004040407F000000000004020202040077
:1006360000000000000000000000000000000000B4
:10064600808080808080808000020204000000009C
:100656000000000000000000000080808080000094
:100666000019242222223F2008F800808000000082
:10067600003F112020110E00000000808080000045
:10068600000E112020201100000000808088F80054
:10069600000E112020103F20000080808080000086
:1006A600001F222222221300008080F088888818EA
:1006B6000020203F202000000000808080808000F5
:1006C600006B94949493600008F80080808000008A
:1006D600203F210000203F20008098980000000065
:1006E6000020203F20200000000000809898000095
:1006F60000C08080807F000008F8000080808000B5
:10070600203F24022D302000000808F800000000D9
:100716000020203F20200000808080808080800094
:10072600203F20003F20003F808000808080000026
:10073600203F210000203F200000808080800000B4
:10074600001F202020201F008080008080000000E5
:1007560080FFA12020110E00000000808080800014
:10076600000E112020A0FF80808080008080800005
:1007760020203F2120000100000080808080800032
:100786000033242424241900008080E080800000A7
:100796000000001F202000008080000000808000F4
:1007A600001F202020103F20808080000080808055
:1007B60000010E30080601008080008000808080E5
:1007C6000F300C030C300F0000808000808080000A
:1007D6000020312E0E312000808080000080808035
:1007E60080818E70180601000080808080808000E5
:1007F6000021302C2221300000000000807C020203
:1008060000000000003F404000000000FF00000024
:1008160000000000FF0000000002027C80000000D3
:100826000040403F000000000006010102020404EF
:100836000000000000000000405050FEFEF8FCD40E
:10084600FC7C44FCFC00203F00000000000000008F
:1008560000000000000000000F1F3F31212F2F2550
:10086600252F3F10000000000000000000000000DF
:1008760000000000000000000414D454545454DF57
:1008860054545454D4140400000000000000000026
:10089600000000000000000080601F020202020348
:1008A6000202020203000000000000000000000037
:1008B60000000000000000001060020CC000F88874
:1008C6008888FF8888A81800000000000000000043
:1008D600000000000000000004047C0380601F800C
:1008E600432C102846818000000000000000000014
:1008F60000000000000000001060028C00FE02F202
:1009060002FE00F800FF00000000000000000000EA
:10091600000000000000000004047E018047300F44
:1009260010270047807F0000000000000000000044
:100936000000000000000000003E22E2223E00FE11
:100946002222222222E20200000000000000000013
:100956000000000000000000203F201F1111007F52
:1009660044444444444740000000000000000000A6
:100976000000000000000000040404F484D4A5A6CE
:10098600A4D484F404040400000000000000000065
:10099600000000000000000000FE0202123A1613DA
:1009A600121A3242827E00000000000000000000A1
:1009B6000000000000000000002018C74444444422
:1009C600FC44444444040000000000000000000011
:1009D60000000000000000000404040704040404EE
:1009E600FF040404040404000000000000000000EA
:1009F6000000000000000000000000FE222222226B
:100A060022222222FE00000000000000000000005A
:100A160000000000000000008040300F02020202C9
:100A2600020242827F000000000000000000000079
:100A36000000000000000000000000FE82828282AA
:100A4600828282FE0000000000000000000000001C
:100A56000000000000000000000000FF4040404091
:100A6600404040FF000000000000000000000000C1
:100A7600000000000000000000FC848484FC0010DC
:100A860010101010FF101000000000000000000001
:100A96000000000000000000003F1010103F0000A2
:100AA600010640807F0000000000000000000000FA
:100AB600000000000000000000F8010600F012121D
:100AC60012F2020202FE0000000000000000000018
:100AD600000000000000000000FF0000001F1111D0
:100AE600111F0040807F0000000000000000000091
:100AF60000000000000000001060028C0000FE9262
:100B060092929292FE000000000000000000000099
:100B1600000000000000000004047E01407E424206
:100B26007E427E42427E400000000000000000003F
:100B360000000000000000000000FC242424FC2526
:100B46002624FC24242404000000000000000000E9
:100B5600000000000000000040308F80844C5525C6
:100B66002525554C80808000000000000000000014
:100B760000000000000000001060028C00FE92924F
:100B860092929292FE000000000000000000000019
:100B9600000000000000000004047E014448507F6D
:100BA60040407F5048444000000000000000000024
:100BB6000000000000000000060909E6F80C040227
:100BC60002020202041E00000000000000000000F5
:100BD6000000000000000000000000071F30204059
:100BE60040404040201000000000000000000000CF
:080BF6000000000000000000F7
:10264600EF4E60157D087C07ED1DAA0470011C4A3B
:0926560070F6EF1F70EA1E80E728
:01265F002258
:0927D900D2B6D2B7C2B7C2B622D3
:0727F200D2B6C2B7D2B72234
:0B27220012250012272DAF0412250025
:05272D00D2B6C2B62285
:0724F900AC071227D97F7820
:10250000C2B6E4FEAD07ED5480B48004D2B78002B9
:0F251000C2B7EF25E0FFD2B6C2B60EEEB408E5B3
:01251F002299
:0E2741001224F912272DE4FF1227220227F29C
:0E274F001224F912272D7F401227220227F2B2
:10245300E924B0FFE433FEE4FDFC12246EE4FDFC4A
:0B246300FFFE12246E7F10E4FDFCFE63
:10246E00AB07AA06ED4C600302274FAF03122741BC
:01247E00223B
:052426009001E7EFF05A
:10242B00E4F9122453E49001E8F09001E7E0FF7E19
:10243B00007D017C0012246EA3E004F0E0C39480C5
:07244B0040E809E9B408DBD9
:012452002267
:1025D100D3EF9400EE940040147D657C18ED1D70DE
:0D25E100011CED4C70F7EF1F70E61E80E34B
:0125EE0022CA
:1026EA00EF1FAA0670011E4A600BE4FDEDC3947B3E
:0526FA0050EE0D80F719
:0126FF0022B8
:0823300090019FE0FFA3E0FD16
:10233800A907ED24B0FFE433FEE4FDFC12246EE9A6
:1023480054F0C4540F7E004410FFE4FDFC12246EC8
:0C235800E9540FFF7E00E4FDFC02246E3F
:102690007F8D12246AE4FDFC7F14FE12246EE4FD9B
:0726A000FC7FAFFE02246E77
:10270000E4FDFC7F8D122464E4FDFC7FAEFE022418
:012710006E5A
:10254700E4F9122453E4900195F07D017C00E4FF47
:10255700FE12246E900195E004F0E0C3948040EAF7
:0525670009E9B408DDE4
:01256C00224C
:10252000E4F9122453E49001EDF07D017C007F0179
:102530007E0012246E9001EDE004F0E0C394804030
:06254000E909E9B408DC22
:012546002272
:0B1790009001A0EDF090019FEFF0FD34
:10179B00E49001A3F0F9EB24E0F0EDD3947F400A41
:1017AB00E490019FF0A3E02402F09001A2E064100A
:1017BB00706E122330E4F99001A3E075F010A429A8
:1017CB00F582E435F0F583E582244EF582E583342A
:1017DB0002F583E493FF7E007D017C0012246E09E9
:1017EB00E9B408D390019FE0FFA3E004FD12233876
:1017FB00E4F99001A3E075F010A429F582E435F02B
:10180B00F583E5822456F582E5833402F583E49370
:10181B00FF7E007D017C0012246E09E9B408D322FF
:10182B00122330E4F99001A3E075F006A42426F509
:10183B0082E5F03400F583E58229F582E43583F502
:10184B0083E493FF7E007D017C0012246E09E9B4D2
:02185B0006D3B2
:01185D002268
:0725EF0090019FEFF0A90528
:1025F6007F017E00AD0119ED600C90019FE0FD7C2E
:0626060000120F5680EEE9
:01260C0022AB
:0E185E00900196EFF0A3EDF0A3EAF0A3EBF0FB
:10186C00E490019EF090019CF090019AE0FF9001B1
:10187C009CE0FEC39F4003021918C3EF9E14FD7F2A
:10188C000A1225EF900198E0FCA3E0FDCFCDCFCE5E
:10189C00CCCE120F687C007D0A120F6890019DED72
:1018AC00F0A3E0703690019AE014FF90019CE0FEEA
:1018BC00C39F5027A3E0701D90019BE0FCC3138EC7
:1018CC00F0A4FF900196E02FFFA3E0FD9001A2ECA5
:1018DC00F07B20802B90019E7401F090019BE0FE28
:1018EC00C313FFA3E0FDEF8DF0A4FF900196E02F52
:1018FC00FFA3E0FD90019DE02430FB9001A2EEF0EF
:0C190C0012179090019CE004F002187586
:0119180022AC
:10204600900196EFF0A3EDF0A3EBF0A3EAF0A3E97D
:01205600F099
:10205700E490019CF0900198E0FBA3E0FAA3E0F97B
:1020670090019CE0F582758300120F17FB602F909B
:102077000196E0FFA3E0FD90019BE09001A2F01222
:102087001790900196E02408F0E0D394784007E495
:0E209700F0A3E02402F090019CE004F080B77A
:0120A5002218
:0D1CC300900198EBF0900196EFF0A3EDF08A
:101CD000E4900199F0122338E4F9900198E075F04E
:101CE00040A4243EF582E5F03408F583E58229F529
:101CF00082E43583F583E493FF7E007D017C00124E
:101D0000246E900199E004F009E9B410CD90019699
:101D1000E0FFA3E004FD122338E4F9900198E07598
:101D2000F040A4245EF582E5F03408F583E58229CD
:101D3000F582E43583F583E493FF7E007D017C002A
:0E1D400012246E900199E004F009E9B410CD70
:011D4E002272
:0A1C30009001BEEFF09001C0EBF050
:101C3A00E49001C5F0A3F09001C1E0FF54077008D9
:101C4A00EF131313541F800A9001C1E013131354A6
:101C5A001F049001C8F09001C8EDF09001C1E0FFA7
:101C6A009001C8E0FDC39F504F9001BEE0FF1223D0
:101C7A0038E09001C7F09001C0E0FF9001C7E0C3CF
:101C8A009F502D9001C2E0FBA3E0FAA3E0F9A3E480
:101C9A0075F001120FD385F082F583120F17FF7EBC
:101CAA00007D017C0012246E9001C7E004F080C61A
:081CBA009001C8E004F080A3D2
:011CC20022FF
:1016B000E4FDFC7FAEFE12245DE4FDFC7F40FE12E3
:1016C000246EE4FDFC7FB0FE12246EE4FDFC7F81FD
:1016D000FE12246EE4FDFC7FFFFE12246EE4FDFC8E
:1016E0007FA1FE12246EE4FDFC7FA6FE12246EE4B0
:1016F000FDFC7FA8FE12246EE4FDFC7F3FFE122459
:101700006EE4FDFC7FC8FE12246EE4FDFC7FD3FE78
:1017100012246EE4FDFCFFFE12246EE4FDFC7FD576
:10172000FE12246EE4FDFC7F80FE12246EE4FDFCBC
:101730007FD8FE12246EE4FDFC7F05FE12246EE4C9
:10174000FDFC7FD9FE12246EE4FDFC7FF1FE122425
:101750006EE4FDFC7FDAFE12246EE4FDFC7F12FED7
:1017600012246EE4FDFC7FDBFE12246EE4FDFC7FA0
:1017700030FE12246EE4FDFC7F8DFE12246EE4FD2B
:10178000FC7F14FE12246EE4FDFC7FAFFE02246E8B
:102364009001E9EFF0A3EDF012000E7FAE1222BB54
:102374001225909001E9E0FF1222BB1225909001F2
:10238400EAE0FF1222BB1225901227327F057E005D
:0323940002260D11
:101FE3009001C9E0FFA3E0FBA3E0FAA3E0F99001AD
:041FF300997408F0E5
:101FF700900195EFF0A3EBF0A3EAF0A3E9F012004C
:102007000E7FAE1222BB122590900195E0801D90A5
:102017000199E0FF14F0EF601C900196E0FBA3E448
:1020270075F001120FD3A9F0FA120EFEFF1222BBB0
:0F20370012259080DA1227327F057E0002260DD7
:1014A1009001CAEBF0A3EAF0A3E9F09001C9EFF0D3
:1014B100E49001CEF0A3F0A3F0EF5407FEC374084B
:1014C1009EF09001CDE0FF131313541FA3F0EF54CE
:1014D10007A3F0AF06EF70359001CEE070028033C4
:1014E1009001CEE0FF14F0EF6016121FE39001C9E6
:1014F100E02408F09001CBE475F008120FBD80E004
:101501009001CFE0FE70030215B70215A19001CE44
:10151100E070189001C9E0FFA3E0FBA3E0FAA3E0AB
:10152100F99001CFE09001990215B39001CDE0FF50
:101531009001D0E0FEC3EF9E9001CDF0E0FF1313C8
:1015410013541FA3F0EF5407A3F0EE602C9001C9D0
:10155100E0FFA3E0FBA3E0FAA3E0F99001D0E09063
:101561000199F0121FF79001D0E0FF9001C9E02F1F
:10157100F09001CBE48FF0801B9001CEE0FF14F0DE
:10158100EF6016121FE39001C9E02408F09001CB2F
:10159100E475F008120FBD80E09001CFE0FE601607
:1015A1009001C9E0FFA3E0FBA3E0FAA3E0F99001F9
:0615B10099EEF0121FF795
:0115B7002211
:05227C009001EBEFF002
:10228100E4A3F012000E7FAE1222BB122590900142
:10229100EBE0FF1222BB12259012000E7FAF12223B
:1022A100BB1225901221AB9001ECEFF07F011227B8
:0922B1006A1227329001ECE0FFF3
:0122BA002201
:0E1B9700900195EFF0A3EBF0A3EAF0A3E9F0C4
:101BA500E490019BF0A3F012000E7FAE1222BB124F
:101BB5002590900195E0FF1222BB12259012000E90
:101BC5007FAF1222BB122590E490019BF0A3F09009
:101BD5000199E0FEA3E0FFD390019CE09F90019B5B
:101BE500E09E50441221AB900196E0FBA3E475F012
:101BF50001120FD3A9F0FAEF120F4490019BE0FEFA
:101C0500A3E0FF900199E0B50609A3E0B507047FBD
:101C1500018002E4FF12276A90019CE004F070AF96
:0B1C250090019BE004F080A702273232
:08000300EF24FF92A102280A7C
:0827E200EF24FF92A002280A77
:10271100A2A0E43390019FF012280A90019FE0FFEC
:012721002295
:10000E007F011227E27F01120003E4FF1227E2E4D0
:04001E00FF020003DA
:0F273200E4FF1227E27F011200037F010227E27A
:0522BB0090019DEFF011
:1022C000E4A3F0F090019EE0FFC394085027A80714
:1022D0007480088002C313D8FCFF90019DE05FFF6B
:1022E0001227E27F01120003E4FF12000390019E17
:0522F000E004F080CFC6
:0122F50022C6
:1021AB00E490019DF0A3F07F011227E2E490019DE2
:1021BB00F07F01120003122711EF601990019EE0CE
:1021CB00FF90019DE0FEF87480088002C313D8FCD9
:1021DB004F90019EF0E4FF12000390019DE004F08C
:0B21EB00E0C3940840CB90019EE0FF91
:0121F60022C6
:0D276A001227E27F01120003E4FF020003CA
:10259000E490019DF07F011227E27F0112000312F7
:1025A000271190019DEFF0E4FF12000390019DE0E0
:0125B000FF2B
:0125B1002207
:0A2575004201D500004201D300002E
:10267800538E7F5389F0438901758A66758CFCC235
:082688008DD28CD2AFD2A92241
:0727EA009001D7E0FFE4F0CD
:0127F10022C5
:10247F00E4FF2080010F2081027F022082027F0370
:10248F002083027F042084027F052085027F06209F
:09249F0086027F072087027F08F6
:0124A8002211
:1019C0009001D1E0A3F012247F9001D1EFF0A3E0C9
:1019D000FFB4010B9001D1E070059001D704F0EF46
:1019E000B4020C9001D1E070069001D77402F0901F
:1019F00001D2E0B4030C9001D1E070069001D774DD
:101A000003F09001D2E0FFB4040C9001D1E0700625
:101A10009001D77404F0EFB4050C9001D1E070068A
:101A20009001D77405F09001D2E0B4060C9001D17A
:101A3000E070069001D77406F09001D2E0FFB40781
:101A40000C9001D1E070069001D77407F0EFB40854
:0D1A50000C9001D1E070069001D77408F0F1
:011A5D002266
:03000B0002223B93
:0D223B00C0E0C083C082C0D075D000C007D5
:10224800758A66758CFC9001D4E004F070069001E4
:10225800D3E004F09001D3E07004A3E064147009A3
:092268009001D3F0A3F01219C09B
:0B227100D007D0D0D082D083D0E03264
:10257F004100CB00C1004100CC00C101410000006F
:1015B800900196EDF0A3EBF0EF14700302164F04C0
:1015C80060030216AF75985053877F90019AE064C4
:1015D800017030438E40538EFE53890F438920900B
:1015E8000198E0FEA3E0FBAA06E4F9F87FB07E715B
:1015F8007D0BFC1221F71211068F8D8F8BC2ABD297
:101608008E802B90019AE07025900198E0FEA3E06F
:10161800FBAA06E4F9F87FB07E717D0BFC1221F776
:101628001211068F9C438E04438E01438E10900145
:1016380096E07073A3E06401706D53B1FE53B2FE7F
:1016480053B1FD53B2FD22538EF7900198E0FEA3EB
:10165800E0FBAA06E4F9F87FB07E717D0BFC12214D
:10166800F71211068F9C759A50438E04438E109082
:101678000196E0FF64027015A3E0B403105391BF14
:101688005392BF53917F53927F53A2EF22EFB4043A
:1016980016900197E0B4050F53B3BF53B4BF53B3CB
:0816A8007F53B47F43A210221E
:0F23F800A3E475F001120FD3A9F0FA120EFEFD47
:10240700EF14600E0470178D99E59830E1FB53982F
:0F241700FD22AF058F9BE59A30E1FB539AFD2222
:1024A9009001E4EBF0A3EAF0A3E9F0AE079001E4B0
:1024B900E0FBA3E0FAA3E0F9120EFE600AAF069072
:0824C90001E41223F880E62271
:1024D1009001D9EBF0A3EAF0A3E9F0AE079001DC9B
:1024E10074FFF5F0120FD345F0600CAF069001D9DF
:0824F100E0FB1223F880E62253
:062157009001B2121149D3
:10215D009001BA121155000000019001B674FF12E2
:10216D001116EC4D4E4F60279001BAE0FCA3E0FD37
:10217D00A3E0FEA3E0FF9001B2E0F8A3E0F9A3E035
:10218D00FAA3E0FB120FE99001BA12114980CB902E
:0D219D0001BAE0FCA3E0FDA3E0FEA3E0FF1B
:0121AA002212
:102100009001DEEFF09001E3E0FF14F0EF6047E0B4
:10211000FFE4FCFDFE9001B61211497F0A7E007DAE
:10212000007C00122157A804A905AA06AB0790015C
:10213000DFE0FCA3E0FDA3E0FEA3E0FF121074E4E7
:102140007B0AFAF9F8121074EB2430FD9001DEE0FE
:07215000FF12240780AF22FB
:1026A700AE07EEB40A077D0DE4FF122407AD06E47A
:0726B700FF122407AF062209
:03002300021EE4D6
:0F1EE400C0E0C083C082C0D075D000C006C00768
:101EF300E59830E0615398FE900001E599F0E064C5
:101F0300236019E0FF04F09000CBE0FE04F074CDF1
:101F13002EF582E43400F583EFF0803A900000E47C
:101F2300F09000CBE0FF900000E0FEC39F502074D0
:101F3300CD2EF582E43400F583E0FF74032EF582A1
:101F4300E43400F583EFF0900000E004F080D290D9
:061F530000CBE4F0D20017
:0D1F5900D007D006D0D0D082D083D0E032A7
:042800007F03DFFE75
:0128040022B1
:042805007F1BDFFE58
:0128090022AC
:04280A007F39DFFE35
:01280E0022A7
:0627F90000007F26DFFE58
:0127FF0022B7
:0A27AF0000007F027E26DEFEDFFC44
:0127B90022FD
:0A27BA0000007F037E51DEFEDFFC0D
:0127C40022F2
:0A27C50000007F187E54DEFEDFFCEA
:0127CF0022E7
:10260D00AD07AC06C3ED9401EC940050047C007D45
:0E261D00011227C5ED1D70011C144C70F42233
:100BFE00EC4D6011E8497017ED33EC3304600DE4F1
:100C0E00FCFFFEFD22E933E8330470F8020EC71232
:100C1E000E9258046009E4CC248150062850090233
:100C2E000ED1284003020ECEC0E0EB4A7044B980CC
:100C3E0006D0E0FB020EBDEF4E701CBD8008EBFF30
:100C4E00EAFEE9FD80EBE98DF0A4FEE5F0020CE78B
:100C5E00E9CDF9EAFEEBFFEF89F0A4FCE5F0CE89D1
:100C6E00F0A42EFFE435F0CD89F0A42DFEE435F08E
:100C7E008067EF4E7005BD80D780C3EF8BF0A4ACBC
:100C8E00F0EE8BF0A42CFCE435F0F8EF8AF0A42CF7
:100C9E00E5F038FCE433CB8DF0A42CFCE5F03BF80A
:100CAE00EE8AF0A42CFCE5F038F8E433CF89F0A4FA
:100CBE002CFCE5F038CF3400CE89F0A42FFFE5F000
:100CCE003EFEE433C98DF0A42EFEE5F039CD8AF058
:100CDE00A42FFFE5F03EFEE43DFD33D0E0FB5007D0
:100CEE000BBB000F020ED1EC2CFCEF33FFEE33FEEC
:060CFE00ED33FD020EA91A
:100D0400020ED1EC5D046005E859047003020EC7BD
:100D1400120E92580460F6EC4860F2EC7004FDFE8A
:100D2400FF22C860DB2481C85009C39860025006C2
:100D3400020ECE9850CAF582E9294B4A7005AB825F
:100D4400020EBD75F0007C1A7880C3EF9BEE9AED1D
:100D540099400DC3EF9BFFEE9AFEED99FDE842F03A
:100D6400DC23ACF0D0E0FFD0E0FED0E0FDAB82208D
:100D7400E7101BEB60BAEC2CFCEF33FFEE33FEED17
:100D840033FD020EA9E803F830E705C0F075F00062
:100D9400EF2FFFEE33FEED33FD40B830E7C280AAFB
:100DA40074F8CC6480CCC86480C8F58204604FC3F6
:100DB400EB9FF5F0EA9E42F0E99D42F0E89C45F095
:100DC400603C501DE5825FFFE582D313CB5BCBF41F
:100DD4002B5582FB50280ABA002409B90020088048
:100DE4001DE5825BFBE582D313CF5FCFF4C3132FE2
:100DF4005582FF50090EBE00050DBD00010CC3EB6A
:100E04009FF5F0EA9E42F0E99D42F0E89C45F060CF
:090E140007CC4820E701B3EC22F1
:100E1D0075F020800E75F010800575F0087D007E50
:100E2D00007F003392D530D503121106EC334010FC
:100E3D00EF33FFEE33FEED33FDEC33FCD5F0ED2259
:0E0E4D00E5F0247EA2D513CC92E7CDCEFF2295
:100E5B00EDD2E7CD33EC3392D524814006E4FFFE8F
:100E6B00FDFC22FCE4CFCECDCC24E0501174FF80EE
:100E7B00EDC3CC13CCCD13CDCE13CECF13CF04708B
:070E8B00F030D5DE02110674
:100E9200E9D2E7C933E833F892D5EDD2E7CD33ECA6
:070EA20033FC5002B2D5221F
:100EA900EC30E7100FBF000C0EBE00080DBD0004AA
:100EB9000BEB6014A2D5EB13FCED92E7FD2274FF56
:100EC900FCFDFEFF22E480F8A2D574FF13FC7D80AF
:030ED900E480EFC3
:03000000021D4F8F
:0C1D4F00787FE4F6D8FD758120021D9617
:100EDC00C2D530F707B2D563F0FF05F030E70CB29E
:100EEC00D5F4048463F0FF05F080018430D502F45E
:020EFC000422CE
:100EFE00BB010689828A83E0225002E722BBFE02F2
:090F0E00E32289828A83E4932224
:100F1700BB010CE58229F582E5833AF583E022508F
:100F270006E92582F8E622BBFE06E92582F8E222D9
:0D0F3700E58229F582E5833AF583E49322F3
:100F4400BB010689828A83F0225002F722BBFE018C
:020F5400F32286
:100F5600EF8DF0A4A8F0CF8CF0A428CE8DF0A42EAF
:020F6600FE2269
:100F6800BC000BBE0029EF8DF084FFADF022E4CC6D
:100F7800F875F008EF2FFFEE33FEEC33FCEE9DEC36
:100F8800984005FCEE9DFE0FD5F0E9E4CEFD22ED7C
:100F9800F8F5F0EE8420D21CFEADF075F008EF2FC6
:100FA800FFED33FD4007985006D5F0F222C398FDB7
:050FB8000FD5F0EA2254
:100FBD00C5F0F8A3E028F0C5F0F8E58215827002BF
:060FCD001583E038F0225C
:100FD300A3F8E0C5F025F0F0E582158270021583D1
:060FE300E0C838F0E8222E
:100FE900E88FF0A4CC8BF0A42CFCE98EF0A42CFCA7
:100FF9008AF0EDA42CFCEA8EF0A4CDA8F08BF0A425
:101009002DCC3825F0FDE98FF0A42CCD35F0FCEB83
:101019008EF0A4FEA9F0EB8FF0A4CFC5F02ECD3948
:0F102900FEE43CFCEAA42DCE35F0FDE43CFC22B5
:1010380075F008758200EF2FFFEE33FECD33CDCC6F
:1010480033CCC58233C5829BED9AEC99E5829840F2
:101058000CF582EE9BFEED9AFDEC99FC0FD5F0D6CF
:10106800E4CEFBE4CDFAE4CCF9A88222B800C1B9F9
:101078000059BA002DEC8BF084CFCECDFCE5F0CB37
:10108800F97818EF2FFFEE33FEED33FDEC33FCEB70
:1010980033FB10D703994004EB99FB0FD8E5E4F92B
:1010A800FA227818EF2FFFEE33FEED33FDEC33FC18
:1010B800C933C910D7059BE99A4007EC9BFCE99A0C
:1010C800F90FD8E0E4C9FAE4CCFB2275F010EF2F51
:1010D800FFEE33FEED33FDCC33CCC833C810D70751
:1010E8009BEC9AE899400AED9BFDEC9AFCE899F88C
:0E10F8000FD5F0DAE4CDFBE4CCFAE4C8F9221F
:1021F700C2D5E830E70FB2D5E4C39BFBE49AFAE413
:1022070099F9E498F8EC30E717B2D512222D12109D
:1022170074E4C39BFBE49AFAE499F9E498F8800321
:1022270012107430D50DE4C39FFFE49EFEE49DFDBC
:04223700E49CFC2205
:0E110600C3E49FFFE49EFEE49DFDE49CFC22FA
:101114007401FF3395E0FEFDFCA3A3A3E0CF2FF001
:10112400E582158270021583E0CE3EF0E5821582D9
:1011340070021583E0CD3DF0E582158270021583BF
:05114400E0CC3CF022AC
:0C114900ECF0A3EDF0A3EEF0A3EFF02219
:10115500A8828583F0D083D08212116C12116C1293
:10116500116C12116CE473E493A3C583C5F0C583B8
:10117500C8C582C8F0A3C583C5F0C583C8C582C8E4
:011185002247
:101D5B00022783E493A3F8E493A34003F68001F2F4
:101D6B0008DFF48029E493A3F85407240CC8C33389
:101D7B00C4540F4420C8834004F456800146F6DF58
:101D8B00E4800B010204081020408090256DE47E56
:101D9B00019360BCA3FF543F30E509541FFEE4934D
:101DAB00A360010ECF54C025E060A840B8E493A314
:101DBB00FAE493A3F8E493A3C8C582C8CAC583CA3F
:101DCB00F0A3C8C582C8CAC583CADFE9DEE780BEF7
:01258F00004B
:00000001FF
