:10074B009001987425F0A37480F0E4A3F07B01FD75
:10075B00FF1202F3D2ACD2AF7B147A00E4FD7F061A
:08076B0012080312019680FB45
:0D0003004A01A10000000000000000000004
:09053600F07B017A0179A17D0638
:0B053F00900195EBF0A3EAF0A3E9F0B7
:10054A00E4A3F0A3F0FCECC39D5024900195E0FBDA
:10055A00A3E0FAA3E0F98C8275830012003FFF90B2
:10056A000199E02FF0900198E03400F00C80D790C8
:10057A000198E0FEA3E0FFC3E49FFFE49E90019888
:10058A00F0A3EFF0900198E0FF900195E0FBA3E063
:10059A00FAA3E0F98C82758300EF12006C9001983F
:1005AA00A3E0FFEC7C0029F9EC3AFA900001EF0293
:0205BA00006CD3
:0506DE00900195EFF012
:1006E300E4A3F07D7EFF12072CE4900196F09001C5
:1006F30095E0FFA3E0FEC39F501974A12EF582E499
:100703003401F583E0FDE4FF12072C900196E00429
:0A071300F080DB7DEFE4FF02072C0D
:100803009001A174FFF0A37406F0A3EFF0A3EDF041
:0D081300EAA3F0A3EB1205367F080206DE13
:1007C3009001A174FFF0A37406F0A3EFF0A3EDF082
:1007D300A3EBF09001B4E09001A61205367F080266
:0207E30006DE30
:10063E00504C41594D555349430053544F504D550D
:10064E0053494300504C41594F4E0053555350455A
:10065E004E444D55534943004E455854534F4E4703
:10066E00004C415354534F4E4700414444564F4C57
:10067E00554D4500524544554345564F4C554D45F5
:0C068E000052414E444F4D504C41590069
:100196002000030202F290019874FFF0A37406F0A7
:1001A600A3743EF07B017A0079031203EBE94A4B14
:1001B600600B7B247A00E4FD7F030202ED90019838
:1001C60074FFF0A37406F0A37448F07B017A0079FB
:1001D600031203EBE94A4B6009E4FBFAFD7F1602C2
:1001E60002ED90019874FFF0A37406F0A37452F028
:1001F6007B017A0079031203EBE94A4B6009E4FBC1
:10020600FAFD7F0D0202ED90019874FFF0A37406CB
:10021600F0A37459F07B017A0079031203EBE94AE3
:100226004B6009E4FBFAFD7F0E0202ED9001987423
:10023600FFF0A37406F0A37466F07B017A007903DD
:100246001203EBE94A4B600B7B247A00E4FD7F0145
:100256000202ED90019874FFF0A37406F0A3746F88
:10026600F07B017A0079031203EBE94A4B600A7BC3
:10027600247A00E4FD7F02806E90019874FFF0A35B
:100286007406F0A37478F07B017A0079031203EB0D
:10029600E94A4B600A7B017A00E4FD7F04804890BE
:1002A600019874FFF0A37406F0A37482F07B017AC0
:1002B6000079031203EBE94A4B600A7B017A00E4FA
:1002C600FD7F05802290019874FFF0A37406F0A3C9
:1002D600748FF07B017A0079031203EBE94A4B60D5
:0D02E60009E4FBFAFD7F18120803C2002294
:100010004100CB00C1004100CC00C1014100000003
:1002F300900196EDF0A3EBF0EF14700302038A0470
:1003030060030203EA75985053877F90019AE06473
:10031300017030438E40538EFE53890F43892090E2
:100323000198E0FEA3E0FBAA06E4F9F87FB07E7132
:100333007D0BFC12069A1200A48F8D8F8BC2ABD259
:100343008E802B90019AE07025900198E0FEA3E047
:10035300FBAA06E4F9F87FB07E717D0BFC12069AC6
:100363001200A48F9C438E04438E01438E10900190
:1003730096E07073A3E06401706D53B1FE53B2FE57
:1003830053B1FD53B2FD22538EF7900198E0FEA3C3
:10039300E0FBAA06E4F9F87FB07E717D0BFC120640
:1003A3009A1200A48F9C759A50438E04438E10902A
:1003B3000196E0FF64027015A3E0B403105391BFEC
:1003C3005392BF53917F53927F53A2EF22EFB40412
:1003D30016900197E0B4050F53B3BF53B4BF53B3A3
:0803E3007F53B47F43A21022F6
:0F071D00A3E475F00112008EA9F0FA120026FD78
:10072C00EF14600E0470178D99E59830E1FB539827
:0F073C00FD22AF058F9BE59A30E1FB539AFD221A
:100773009001B5EBF0A3EAF0A3E9F0AE079001B561
:10078300E0FBA3E0FAA3E0F9120026600AAF0690AB
:0807930001B512071D80E622EA
:10079B009001ACEBF0A3EAF0A3E9F0AE079001AF48
:1007AB0074FFF5F012008E45F0600CAF069001ACB3
:0807BB00E0FB12071D80E6229D
:10082000AE07EEB40A077D0DE4FF12072CAD06E417
:07083000FF12072CAF0622A6
:030023000205BC17
:0F05BC00C0E0C083C082C0D075D000C006C007A9
:1005CB00E59830E0615398FE900001E599F0E06406
:1005DB00236019E0FF04F09000CBE0FE04F074CD33
:1005EB002EF582E43400F583EFF0803A900000E4BE
:1005FB00F09000CBE0FF900000E0FEC39F50207412
:10060B00CD2EF582E43400F583E0FF74032EF582E2
:10061B00E43400F583EFF0900000E004F080D2901A
:06062B0000CBE4F0D20058
:0D063100D007D006D0D0D082D083D0E032E8
:020021000022BB
:070856000000007F0ADFFE35
:01085D002278
:07085E000000007F18DFFE1F
:010865002270
:0608660000007F26DFFE0A
:01086C002269
:0B0837000000007F017E85DEFEDFFC7C
:010842002293
:08084D007F027E0FDEFEDFFCDE
:010855002280
:09084300007F0B7EBEDEFEDFFC2F
:01084C002289
:1007E500AD07AC06C3ED9401EC940050047C007D8C
:0E07F50001120843ED1D70011C144C70F4221B
:030000000204AA4D
:0C04AA00787FE4F6D8FD7581200204F193
:10002600BB010689828A83E0225002E722BBFE02D8
:09003600E32289828A83E493220B
:10003F00BB010CE58229F582E5833AF583E0225076
:10004F0006E92582F8E622BBFE06E92582F8E222C0
:0D005F00E58229F582E5833AF583E49322DA
:10006C00F8BB010DE58229F582E5833AF583E8F0CA
:10007C00225006E92582C8F622BBFE05E92582C876
:02008C00F2225E
:10008E00A3F8E0C5F025F0F0E58215827002158325
:06009E00E0C838F0E82282
:10069A00C2D5E830E70FB2D5E4C39BFBE49AFAE48B
:1006AA0099F9E498F8EC30E717B2D51206D012019E
:1006BA0004E4C39BFBE49AFAE499F9E498F880030A
:1006CA0012010430D50DE4C39FFFE49EFEE49DFDB4
:0406DA00E49CFC227E
:0E00A400C3E49FFFE49EFEE49DFDE49CFC226D
:1003EB00900195EBF0A3EAF0A3E9F0A3E0FBA3E007
:1003FB00FAA3E0F91200267003020497900195E02E
:10040B00FBA3E0FAA3E0F912002670030204A39009
:10041B000198E0F9A3E0FAA3E0A3C9F0A3EAF0A3E3
:10042B00E9F0900195A3E0FAA3E0F990019EEBF0BF
:10043B00A3EAF0A3E9F090019BE0FBA3E0FAA3E0B1
:10044B00F9120026FF602690019EE0FBA3E0FAA3C1
:10045B00E0F91200266F701590019C75F0011200E7
:10046B00B290019FE475F0011200B280C990019B1C
:10047B00E0FBA3E0FAA3E0F91200267002800D90D6
:10048B000196E475F0011200B2020407900195E0A9
:0F049B00FBA3E0FAA3E0F9227B007A00790022AC
:1004B60002074BE493A3F8E493A34003F68001F20A
:1004C60008DFF48029E493A3F85407240CC8C33347
:1004D600C4540F4420C8834004F456800146F6DF16
:1004E600E4800B0102040810204080900003E47EA3
:1004F600019360BCA3FF543F30E509541FFEE4930B
:10050600A360010ECF54C025E060A840B8E493A3D1
:10051600FAE493A3F8E493A3C8C582C8CAC583CAFC
:10052600F0A3C8C582C8CAC583CADFE9DEE780BEB4
:0100200000DF
:1000B200C5F0F8A3E028F0C5F0F8E58215827002D9
:0600C2001583E038F02276
:1000C80075F008758200EF2FFFEE33FECD33CDCCEF
:1000D80033CCC58233C5829BED9AEC99E582984072
:1000E8000CF582EE9BFEED9AFDEC99FC0FD5F0D64F
:1000F800E4CEFBE4CDFAE4CCF9A88222B800C1B979
:100108000059BA002DEC8BF084CFCECDFCE5F0CBB6
:10011800F97818EF2FFFEE33FEED33FDEC33FCEBEF
:1001280033FB10D703994004EB99FB0FD8E5E4F9AA
:10013800FA227818EF2FFFEE33FEED33FDEC33FC97
:10014800C933C910D7059BE99A4007EC9BFCE99A8B
:10015800F90FD8E0E4C9FAE4CCFB2275F010EF2FD0
:10016800FFEE33FEED33FDCC33CCC833C810D707D0
:100178009BEC9AE899400AED9BFDEC9AFCE899F80B
:0E0188000FD5F0DAE4CDFBE4CCFAE4C8F9229E
:00000001FF
