:10048C009001A27425F0A37480F0E4A3F07B01FD2D
:10049C00FF1201807B147A00E4FD7F0612057A902E
:1004AC0001A27406F07B02E4FD7F0F12053A80FE78
:0D0003004A01950000000000000000000010
:09030100F07B017A0179957D067B
:0B030A009001A3EBF0A3EAF0A3E9F0E0
:10031500E4A3F0A3F0FCECC39D50249001A3E0FB03
:10032500A3E0FAA3E0F98C8275830012003FFF90E9
:1003350001A7E02FF09001A6E03400F00C80D790E3
:1003450001A6E0FEA3E0FFC3E49FFFE49E9001A6A3
:10035500F0A3EFF09001A6E0FF9001A3E0FBA3E07E
:10036500FAA3E0F98C82758300EF12006C9001A668
:10037500A3E0FFEC7C0029F9EC3AFA900001EF02CA
:02038500006C0A
:05044D009001A3EFF097
:10045200E4A3F07D7EFF1204CBE49001A4F09001AE
:10046200A3E0FFA3E0FEC39F501974952EF582E42A
:100472003401F583E0FDE4FF1204CB9001A4E00413
:0A048200F080DB7DEFE4FF0204CB05
:10057A0090019574FFF0A37406F0A3EFF0A3EDF0D9
:0D058A00EAA3F0A3EB1203017F0802044D69
:10053A0090019574FFF0A37406F0A3EFF0A3EDF019
:10054A00A3EBF09001A2E090019A1203017F080246
:02055A00044D4E
:100010004100CB00C1004100CC00C1014100000003
:100180009001A0EDF0A3EBF0EF1470030202150450
:10019000600302027475985053877F9001A4E06455
:1001A00001702F438E40538EFE53890F4389209058
:1001B00001A2E0FEA3E0FBAA06E4F9F8FF7E467D7B
:1001C00005FC1204091200A48F8D8F8BC2ABD28E56
:1001D000802A9001A4E070249001A2E0FEA3E0FB3D
:1001E000AA06E4F9F8FF7E467D05FC120409120018
:1001F000A48F9C438E04438E01438E109001A0E097
:100200007072A3E06401706C53B1FE53B2FE53B13F
:10021000FD53B2FD22538EF79001A2E0FEA3E0FB56
:10022000AA06E4F9F8FF7E467D05FC1204091200D7
:10023000A48F9C759A50438E04438E109001A0E0C9
:10024000FF64027015A3E0B403105391BF5392BF33
:1002500053917F53927F53A2EF22EFB40416900183
:10026000A1E0B4050F53B3BF53B4BF53B37F53B42E
:050270007F43A21022F3
:0F04BC00A3E475F00112008EA9F0FA120026FDDC
:1004CB00EF14600E0470178D99E59830E1FB53988B
:0F04DB00FD22AF058F9BE59A30E1FB539AFD227E
:1004EA009001AEEBF0A3EAF0A3E9F0AE079001AEFB
:1004FA00E0FBA3E0FAA3E0F9120026600AAF069037
:08050A0001AE1204BC80E622E0
:100512009001A9EBF0A3EAF0A3E9F0AE079001ACD9
:1005220074FFF5F012008E45F0600CAF069001A941
:08053200E0FB1204BC80E6228C
:10059700AE07EEB40A077D0DE4FF1204CBAD06E407
:0705A700FF1204CBAF062296
:030023000203874E
:0F038700C0E0C083C082C0D075D000C006C007E0
:10039600E59830E0615398FE900001E599F0E0643D
:1003A600236019E0FF04F09000CBE0FE04F074CD6A
:1003B6002EF582E43400F583EFF0803A900000E4F5
:1003C600F09000CBE0FF900000E0FEC39F50207449
:1003D600CD2EF582E43400F583E0FF74032EF5821A
:1003E600E43400F583EFF0900000E004F080D29052
:0603F60000CBE4F0D20090
:0D03FC00D007D006D0D0D082D083D0E03220
:020021000022BB
:0705CD000000007F0ADFFEC1
:0105D4002204
:0705D5000000007F18DFFEAB
:0105DC0022FC
:0605DD0000007F26DFFE96
:0105E30022F5
:0B05AE000000007F017E85DEFEDFFC08
:0105B900221F
:0805C4007F027E0FDEFEDFFC6A
:0105CC00220C
:0905BA00007F0B7EBEDEFEDFFCBB
:0105C3002215
:10055C00AD07AC06C3ED9401EC940050047C007D17
:0E056C00011205BAED1D70011C144C70F42232
:0300000002027584
:0C027500787FE4F6D8FD7581200202BC01
:10002600BB010689828A83E0225002E722BBFE02D8
:09003600E32289828A83E493220B
:10003F00BB010CE58229F582E5833AF583E0225076
:10004F0006E92582F8E622BBFE06E92582F8E222C0
:0D005F00E58229F582E5833AF583E49322DA
:10006C00F8BB010DE58229F582E5833AF583E8F0CA
:10007C00225006E92582C8F622BBFE05E92582C876
:02008C00F2225E
:10008E00A3F8E0C5F025F0F0E58215827002158325
:06009E00E0C838F0E82282
:10040900C2D5E830E70FB2D5E4C39BFBE49AFAE41E
:1004190099F9E498F8EC30E717B2D512043F1200C5
:10042900EEE4C39BFBE49AFAE499F9E498F88003B3
:100439001200EE30D50DE4C39FFFE49EFEE49DFD5E
:04044900E49CFC2211
:0E00A400C3E49FFFE49EFEE49DFDE49CFC226D
:1002810002048CE493A3F8E493A34003F68001F203
:1002910008DFF48029E493A3F85407240CC8C3337E
:1002A100C4540F4420C8834004F456800146F6DF4D
:1002B100E4800B0102040810204080900003E47EDA
:1002C100019360BCA3FF543F30E509541FFEE49342
:1002D100A360010ECF54C025E060A840B8E493A309
:1002E100FAE493A3F8E493A3C8C582C8CAC583CA34
:1002F100F0A3C8C582C8CAC583CADFE9DEE780BEEC
:0100200000DF
:1000B20075F008758200EF2FFFEE33FECD33CDCC05
:1000C20033CCC58233C5829BED9AEC99E582984088
:1000D2000CF582EE9BFEED9AFDEC99FC0FD5F0D665
:1000E200E4CEFBE4CDFAE4CCF9A88222B800C1B98F
:1000F2000059BA002DEC8BF084CFCECDFCE5F0CBCD
:10010200F97818EF2FFFEE33FEED33FDEC33FCEB05
:1001120033FB10D703994004EB99FB0FD8E5E4F9C0
:10012200FA227818EF2FFFEE33FEED33FDEC33FCAD
:10013200C933C910D7059BE99A4007EC9BFCE99AA1
:10014200F90FD8E0E4C9FAE4CCFB2275F010EF2FE6
:10015200FFEE33FEED33FDCC33CCC833C810D707E6
:100162009BEC9AE899400AED9BFDEC9AFCE899F821
:0E0172000FD5F0DAE4CDFBE4CCFAE4C8F922B4
:00000001FF
